S01800006275696C642F6D6963617A2F6D61696E2E73726563E5
S11300000C9460000C9454090C945E090C946809D7
S11300100C9472090C947C090C9486090C94B40C0D
S11300200C9490090C947F000C947F000C944E1255
S11300300C94EC130C941E090C9434090C94640A6B
S11300400C940D090C9420160C947F000C947F00E2
S11300500C947F000C947F000C947F000C947F0020
S11300600C9429090C947F000C947F000C947F005D
S11300700C947F000C947F000C947F000C947F0000
S11300800C947F000C947F000C947F005E2101226D
S113009005221B22492267226F22732277229C2287
S11300A0B322022937293A294A295621722980295B
S11300B0772A5221762BB42BB72B00081C18141066
S11300C011241FBECFEFD0E1DEBFCDBF11E0A0E011
S11300D0B1E0EEE6F5E600E00BBF02C007900D923A
S11300E0A634B107D9F71AE0A6E4B1E001C01D9225
S11300F0A539B107E1F70E944E2C0C94B6320C944A
S113010000008FB7F894992708958FBF0895AC0124
S11301103091770A8FEF4F3F580711F020E015C058
S1130120832F99270895822F9927FC0163E0EE0F0E
S1130130FF1F6A95E1F7E81BF90BE654FA4F80813B
S113014091818417950719F02F5F231761F7822F88
S113015099270895FC0182819927582F442781818A
S11301609927482B592BCA01892F9927869586955B
S1130170837090708230910559F08330910559F065
S1130180892B19F420E030E008C02CE93FEF05C0CA
S113019022E030E002C028E030E0CA0184E0989F09
S11301A0812D992711248230910559F083309105CE
S11301B059F0892B19F480E090E008C08CE99FEF96
S11301C005C082E090E002C088E090E0280F391F6B
S11301D02A5F3F4FCF01820F931F0895282F9FB7A7
S11301E0F894662349F0E82FFF27E455FA4F8081FD
S11301F0882311F021E006C0E22FFF27E455FA4FCF
S1130200608320E0892F99278FBF822F9927089533
S1130210E82F8FB7F894282F332790E0FF27E45571
S1130220FA4F8081861709F491E02FBF892F99270F
S11302300895682F81E00E94080199270895882372
S113024011F06E9A08956E980895882311F06F9AAC
S113025008956F98089580E00E941F01BA9ABB9890
S1130260B99AB89A6C9A80E00E9425016B986A98B2
S113027081E00E941F01709A8DB18C7F8DB9089521
S1130280282F9FB7F894E82FFF27E458FD4F80816B
S11302908F3F81F4E0917B0AE21771F40BC0209345
S11302A0600A04C0FF27E458FD4F208320937B0A93
S11302B020E007C025E005C08091600A8F3F91F7D8
S11302C0EECF892F99278FBF822F9927089585E034
S11302D00E9440019927089587E00E9440019927D0
S11302E0089581E10E9440019927089585E10E94C3
S11302F04001992708958EE00E94400199270895AE
S11303001F93182F81E00E941F011FB9779BFECF16
S11303108FB199271F9108958F929F92AF92BF92A8
S1130320CF92DF92EF92FF920F931F93CF93DF93BD
S11303308FB7F8949927C090750AD090760A809068
S1130340990490909A04C091A003D091A1032091A4
S11303506F01309170011AE0A12EB12CAC0EBD1EBC
S11303602A153B0508F459018FBF7401EC0EFD1EDC
S113037086010C0F1D1F14C0C114D10419F0F8011B
S1130380808101C080E00E9480018114910411F0F9
S1130390F701808321960894E11CF11C0F5F1F4F25
S11303A0C5010197C817D90738F381E00E942501D8
S11303B09FB7F894C114D10431F0CC0EDD1EF601C0
S11303C080818FB901C01FB8D093A103C093A0034B
S11303D0892F99278FBF80E090E0DF91CF911F9103
S11303E00F91FF90EF90DF90CF90BF90AF909F90D0
S11303F08F9008952FB7F89433275093700140934A
S11304006F019093760A8093750A70939A046093AF
S113041099041092A1031092A0032FBF452B29F039
S11304208FB10E948C019927089588E00E944001B1
S113043080E090E008958FB7F89499271092AE0564
S11304408FBF0895AC01EDEAF3E080E090E09C01F9
S1130450858180FF05C0808191818417950741F0D3
S1130460C90101963B968A30910589F72FEF30E058
S1130470C90108950E9422028F3F91F099272BE031
S113048030E0829FF001839FF00D929FF00D1124C4
S1130490E355FC4F858181FF03C0878190850895D2
S11304A08FEF9FEF08950E9422028F3F19F481E09D
S11304B090E00895282F33278BE090E0289FF001E7
S11304C0299FF00D389FF00D1124E355FC4F8581D1
S11304D08860858380E090E008952F923F924F9248
S11304E05F926F927F928F929F92AF92BF92CF92C0
S11304F0DF92EF92FF920F931F93CF93DF93CDB7C9
S1130500DEB729970FB6F894DEBF0FBECDBF6FB725
S11305106983F89420904503309046034090470344
S1130520509048036624772488249EE4A92E83E807
S1130530B82ECC24DD24EE24FF2400E010E0222D8C
S1130540332D442D552D662D772D882D90E00E9456
S11305508C2E2A833B834C835D836E837F838887C1
S11305609987822E932EA42EB52E2401350100E204
S11305700E948A2FA22EB32EC42ED52EA30192013F
S113058056954795379527952A0D3B1D4C1D5D1DA6
S113059057FF05C05F772F5F3F4F4F4F5F4F20934B
S11305A04503309346034093470350934803E9813E
S11305B08E2F99278FBFCA01B90129960FB6F894D7
S11305C0DEBF0FBECDBFDF91CF911F910F91FF9082
S11305D0EF90DF90CF90BF90AF909F908F907F90DF
S11305E06F905F904F903F902F9008950E946D02FE
S11305F0DC01CB010895EF920F931F93AE2D99E088
S1130600899FF0011124E55EFB4F4083518362838F
S113061073830483158326833783A17080858E7F3B
S11306208A2B826080878CE00E9440011F910F9189
S1130630EF9008957FB7F89462B720912802309123
S1130640290240912A0250912B0206B601FE0FC0E6
S113065081B792B7280F311D411D511D2F5F3F4FA8
S11306604F4F5F4F290F311D411D511D04C0260FEF
S1130670311D411D511D872F99278FBFCA01B90113
S11306800895AF92BF92CF92DF92EF92FF920F93B1
S11306901F93F82E5A016B010E941A03AB01BC018F
S11306A021E0E22E960185018F2D0E94FB021F910D
S11306B00F91FF90EF90DF90CF90BF90AF9008958F
S11306C09C016E5F6D3118F080E090E008950C9607
S11306D011F0C9010E960895FC0185899927982F78
S11306E0882726893327822B932B0895FC012781A1
S11306F03085C90143E0880F991F4A95E1F7820FBD
S1130700931F860F971F6AE070E00E942232708761
S113071067830895FC0161859285662329F48AE044
S1130720989FB001112409C077278AE0989FC001DF
S113073011240E94363211861286CF010E9476035C
S1130740089580915701E82FFF27EE0FFF1FE05B0C
S1130750F74F0190F081E02D20915901222351F0AF
S11307608F5F809357018D3011F4109257012150FF
S113077020935901CF010895FC0185899927982F69
S1130780882726893327822B932B0895AF92BF9213
S1130790DF92EF92FF920F931F93CF93DF935C014D
S11307A0D0902C02F0909E03EE2425C00F2D0370F0
S11307B01127C5010E94BC03F801EE0FFF1FEE0FC5
S11307C0FF1FE00FF11FEA56FD4F20813181821790
S11307D0930779F4D5011C96ED019B8582818917D5
S11307E041F49E818481891721F49C858381891732
S11307F021F0E394F394ED14C9F68E2D9927DF913B
S1130800CF911F910F91FF90EF90DF90BF90AF9029
S113081008950E94C60320E030E090912C028917CD
S113082010F421E030E0C9010895AC0120919B034C
S11308302C3018F081E090E0089580914A03682FED
S1130840620F712D711DFB016C30710508F03C972E
S1130850EE0FFF1FE357FA4F518340832F5F20931E
S11308609B0380E090E00895AC0120919A032C3022
S113087018F081E090E0089580916E0A682F620F6D
S1130880712D711DFB016C30710508F03C97EE0F62
S1130890FF1FE358F54F518340832F5F20939A0342
S11308A080E090E00895FC0186859927982F882799
S11308B027853327822B932B08950F931F93CF9370
S11308C0DF93EC01892BE9F02091710830917208D3
S11308D08FEF2F3F3807A9F080912D02813019F452
S11308E0198218820BC00091730810917408C90111
S11308F00E943A02080F191F1983088380E090E0D0
S113090002C081E090E0DF91CF911F910F91089593
S11309109C01635F6D3118F080E090E008950C96BF
S113092011F0C90149960895CF93DF93EC014FB7B5
S1130930F89480914801E82FFF27CF0101966AE5DA
S113094070E00E9436329C01809147019927281754
S1130950390741F0EE0FFF1FEE58FE4FD183C083DD
S113096020934801842F99278FBFDF91CF91089559
S11309708F929F92AF92BF92CF92DF92EF92FF92AB
S11309800F931F93CF93DF93EC016B010E94BC0381
S1130990F60122813327442755278824922EA32E3B
S11309A0B42EE080FF24002711271E2D0027FF24EA
S11309B0EE242181332744275527A90133272227F1
S11309C0E22AF32A042B152B2381332744275527A6
S11309D0E22AF32A042B152B8E289F28A02AB12A59
S11309E0FC01EE0FFF1FEE0FFF1FE958F74F808148
S11309F09181A281B38188159905AA05BB0590F45C
S1130A0080829182A282B38280912D02882351F048
S1130A1088899927982F882729893327822B932B14
S1130A200E949404CE01DF91CF911F910F91FF900A
S1130A30EF90DF90CF90BF90AF909F908F900895EC
S1130A40FC01648B672F7727638B0895FC018485F1
S1130A506095862384870895CF93DF93FC01DC019E
S1130A601196ED0129813327322F2227818199277D
S1130A708062282B392B2183232F3327298380E07D
S1130A8090E0DF91CF91089580E880934002109226
S1130A90050310926B0A10925F0A1092AD0208953A
S1130AA010924C0110924B01DE98DD98DE9A80E0A2
S1130AB090E008958FB7F8946091AB037091AC0304
S1130AC02CB53DB506B602FE04C06F5F7F4F2CB552
S1130AD03DB599278FBF88279927CB0177276627AC
S1130AE044275527622B732B842B952B0895EF9263
S1130AF0FF920F931F930E945A057B018C01209152
S1130B0056033091570340915803509159038091F3
S1130B104F0390915003A0915103B0915203820F5F
S1130B20931FA41FB51FE216F3060407150730F040
S1130B3082179307A407B50758F005C082179307D7
S1130B40A407B507E0F5E816F9060A071B07B8F588
S1130B509C01AD012E193F09400B510B213060E877
S1130B60360760E0460760E0560768F180E090E8E9
S1130B70A0E0B0E0E80EF91E0A1F1B1FE092560326
S1130B80F0925703009358031093590380E090E8C0
S1130B90AFEFBFEFE80EF91E0A1F1B1F20503048AD
S1130BA04040504020934F033093500340935103EF
S1130BB05093520320E030E840E050E014C020E0BD
S1130BC030E040E050E08093560390935703A093A5
S1130BD05803B093590310924F031092500310928C
S1130BE0510310925203A901B7012CB53DB5C901B7
S1130BF08E199F0903968417950720F0B9016D5F3C
S1130C007F4F02C0640F751F6115710511F461E017
S1130C1070E0615070407BBD6ABD80E186BF87B7DC
S1130C20806187BF1F910F91FF90EF9008950F93FC
S1130C301F930FB7F89411276093560370935703CB
S1130C40809358039093590320934F033093500398
S1130C5040935103509352030E9477050FBF1F9195
S1130C600F910895AF92BF92CF92DF92EF92FF92CD
S1130C700F931F93F82E5A016B010E941A03AB01C4
S1130C80BC01EE24960185018F2D0E94FB021F9169
S1130C900F91FF90EF90DF90CF90BF90AF900895A9
S1130CA0DF92EF92FF920F931F938FB7F894282F40
S1130CB03327D22E91B782B746B7981711F041FF68
S1130CC002C02FBF6AC080919F038823E1F10E9474
S1130CD01A03E090A805F090A9050091AA051091C7
S1130CE0AB0520913C0230913D0240913E0250916F
S1130CF03F026E197F09800B910B621773078407FB
S1130D00950720F010929F0371E01EC02E0D3F1D29
S1130D10401F511F8091280290912902A0912A021C
S1130D20B0912B02281B390B4A0B5B0B273E310574
S1130D304105510540F4822F223010F070E005C0C7
S1130D4070E082E002C070E086EE682F615000B669
S1130D5001FCFDCF82B7681709F46F5F2091280268
S1130D603091290240912A0250912B02DA01C901E3
S1130D700196A11DB11D860F911DA11DB11D8217E4
S1130D809307A407B50710F4622F609561BFDFBE17
S1130D90772319F08BE00E9440011F910F91FF907F
S1130DA0EF90DF900895AFB7F894BB27E1E0E093AC
S1130DB09F036093A8057093A9058093AA05909357
S1130DC0AB0520933C0230933D0240933E02509386
S1130DD03F02AFBF0E9450060895AC0130916D0AE6
S1130DE08FEF4F3F580711F020E014C0832F99274D
S1130DF00895822F9927FC01EE0FFF1FE80FF91FBA
S1130E00EE0FFF1FE153FB4F8081918184179507FB
S1130E1019F02F5F231769F7822F992708950F93ED
S1130E201F93CF93DF938C01EB010E94ED06982F63
S1130E308F3019F481E090E032C080916D0A292F3F
S1130E40332740916E0850916F08981789F4F9017F
S1130E50EE0FFF1FE20FF31FEE0FFF1FE153FB4FD7
S1130E6011830083D583C4839F5F90936D0A0FC061
S1130E70F901EE0FFF1FE20FF31FEE0FFF1FE15307
S1130E80FB4F84819581D583C483C81BD90B4C0F38
S1130E905D1F50936F0840936E0880E090E0DF91EF
S1130EA0CF911F910F9108959BE0899FF001112428
S1130EB0E355FC4F7183608312821382148285E0B0
S1130EC085831682108617820895882349F0682F37
S1130ED0772784EC99E00E9436326B3F710510F05D
S1130EE06FEF7FEFCB010895CF92DF92FF920F93C4
S1130EF01F93CF93DF93282F062F482F55278BE07E
S1130F0090E0489FE001499FD00D589FD00D1124D7
S1130F10C355DC4F8D8182FF02C08B7F8D838A8114
S1130F20302F381B0A838B818F5F8B83332379F0B7
S1130F308C81830F81508C833B3048F068817981A8
S1130F40822F0E9454070A8381E08B836EC08BE05A
S1130F5090E0489FF001499FF00D589FF00D112437
S1130F60E355FC4F83812481820F912D911D0397BA
S1130F701CF4333008F459C0C080D180CDEAD3E0EA
S1130F80888199818C159D0509F049C08D81282F90
S1130F90332720FF44C06B81FC80F60E21FD16C070
S1130FA07727882799272AEF30E040E050E00E9415
S1130FB0F7312F2D3327442755270E944932DA0170
S1130FC0C9012E830E94650798878F838D81826073
S1130FD08D830E8189E0089F800111246B8177271E
S1130FE0882799272AEF30E040E050E00E94F7314B
S1130FF02F2D3327442755270E944932C801820FD9
S1131000911D6AE070E00E943632CB016E831B8230
S11310101C820E946507BC01CE010E9476032B96B8
S113102084E0CB31D80709F0ABCFDF91CF911F918A
S11310300F91FF90DF90CF90089580E090E0E2EB75
S1131040F3E09C01808180FF08C0C90101963B96B2
S11310508A309105B1F72FEF30E0C9010895982F38
S1131060AFEF60E070E040E050E0E2EBF3E080815D
S1131070282F332720FF0BC021FF09C023FD07C001
S1131080228133812617370710F0A42FB9014F5F4F
S11310905F4F3B964A30510551F7892F99276817BE
S11310A0790718F48FEF90E008958A2F992708950F
S11310B0AC01309178028FEF4F3F580711F020E0D8
S11310C012C0832F99270895E22FFF2773E0EE0FB4
S11310D0FF1F7A95E1F7E055FD4F808191818417D8
S11310E0950719F02F5F231779F7822F9927089511
S11310F0FC018081448555274F7050709A01220F5E
S1131100331F240F351F821B8F50992708951F9377
S1131110CF93DF93162FC0E0D0E06AE10E94600312
S1131120FC0180818123811711F4C1E0D0E0CE015C
S1131130DF91CF911F910895AC01209159012D3079
S113114018F081E090E0089580915801E82FFF277E
S1131150EE0FFF1FE05BF74F518340838F5F809357
S113116058018D3011F4109258012F5F20935901CA
S113117080E090E00895CF93DF93FC0115A6DC0195
S11311809E96ED011B821A82198280E886A7DF9160
S1131190CF91089597B79F7D97BF90E296BF88231C
S11311A019F08EB5806402C08EB58F7B8EBD87B773
S11311B0806287BF80E090E00895AF92BF92CF92A3
S11311C0DF92EF92FF920F931F93CF93DF93CDB7EC
S11311D0DEB728970FB6F894DEBF0FBECDBF20E070
S11311E070E0E0910001F091010132E14DE65CE430
S11311F06FE4809101019E2F28960FB6F894DEBF0C
S11312000FBECDBFDF91CF911F910F91FF90EF9053
S1131210DF90CF90BF90AF9008951F920F920FB6BA
S11312200F9211248F9383B783BF00B600FCFDCFC8
S11312308F910F900FBE0F901F90189578941F9266
S11312400F920FB60F9211240F900FBE0F901F90A4
S1131250189578941F920F920FB60F9211240F9045
S11312600FBE0F901F90189578941F920F920FB68F
S11312700F9211242F933F938F939F932FB7F8943A
S113128033278091AB039091AC0301969093AC0308
S11312908093AB032FBF9F918F913F912F910F901C
S11312A00FBE0F901F9018951F920F920FB60F92BA
S11312B011240F900FBE0F901F9018951F920F923C
S11312C00FB60F9211240F900FBE0F901F90189518
S11312D01F920F920FB60F9211240F900FBE0F9012
S11312E01F9018951F920F920FB60F9211240F9012
S11312F00FBE0F901F9018951F920F920FB60F926A
S113130011240F900FBE0F901F9018951F920F92EB
S11313100FB60F9211240F900FBE0F901F901895C7
S11313201F920F920FB60F9211240F900FBE0F90C1
S11313301F901895AF92BF92CF92DF92FF920F93B6
S11313401F93CF93DF935C01FC018281882391F585
S1131350B092740AA092730A8281882309F0AAC009
S11313602FB7F8949091470180914801891749F06B
S1131370892F992701966AE570E00E94363280939E
S11313804701822F99278FBF809106019091070111
S1131390A0910801B09109010196A11DB11D80938E
S11313A0060190930701A0930801B09309011092DC
S11313B0460180C0442309F475C0F501C080D18082
S11313C080912C02843009F046C0C6010E94C603F5
S11313D020912C02622F0E941632492F9217D8F5C1
S11313E0992359F480919E039927019664E070E053
S11313F00E94363280939E0329C080919E03840FFD
S1131400912D911D9C0123703070E901CC0FDD1FDB
S1131410CC0FDD1FC20FD31F019664E070E00E9461
S11314203632FC01EE0FFF1FEE0FFF1FE80FF91F0E
S1131430CA56DD4FEA56FD4F85E00190099281506E
S1131440E1F74F5F80912C024817B8F280912C028B
S1131450815080932C02F0902C0280919E038F0D7A
S1131460912D911D837090708C01000F111F000F3E
S1131470111F080F191F0A561D4FC6010E94BC03F5
S1131480F80191838083F6018789F8018283F6014C
S11314908289F8018483F601808DF8018383F394B3
S11314A0F0922C02F501808191810E941504C501FE
S11314B00E943404DF91CF911F910F91FF90DF9030
S11314C0CF90BF90AF9008951F920F920FB60F92D6
S11314D011242F933F934F935F936F937F938F9335
S11314E09F93AF93BF93EF93FF9383B783BF00B6EC
S11314F000FCFDCF81B799270196AA27BB2720912D
S113150028023091290240912A0250912B02280F7F
S1131510391F4A1F5B1F20932802309329024093EE
S11315202A0250932B0278940E945006FF91EF9167
S1131530BF91AF919F918F917F916F915F914F91E7
S11315403F912F910F900FBE0F901F9018950F93FE
S11315501F93CF93DF93182F8FB7F894C82FDD27ED
S11315600C2F61E080E00E94EE00882321F0CFBFC1
S113157085E090E024C080910D018823A1F480913E
S11315804F01823081F409C082E080934F011092B0
S11315900D010E942B01B89AC09810930A0180E0B3
S11315A00FBF99270CC080914F01882369F38FB72F
S11315B0F89499271092AC058FBF81E0F1CFDF91A9
S11315C0CF911F910F9108950F931F93182F0FB769
S11315D0F89461E080E00E94EE00882371F5109396
S11315E00A0180910D018823A9F580914F01823071
S11315F089F587E00CC00E942B0180914F0188235C
S113160049F481E080934F011092AE0289E00E9478
S113161040012AC0809155038F3F31F5E0910C01C0
S1131620EE2311F11CC010920B0104C0FF27EB5AEA
S1131630FC4F108210920C0117C081E090E002C0B0
S1131640880F991F1A95E2F720914E01282B2093B9
S11316504E010AC080914F018823E1F6CCCF8091DE
S11316600B018F3F19F7DFCF802F99278FBF80E0C1
S113167090E01F910F9108951F9383E00E94A70AA1
S11316809927182F882319F083E00E94E40A812FF8
S113169099271F910895CF93DF93EC010E94580876
S11316A0282F809178022817D1F0382F31503093A9
S11316B0780213C0822F992743E0880F991F4A9517
S11316C0E1F7DC01A055BD4FFC01E854FD4F88E073
S11316D001900D928150E1F72F5F231758F3809109
S11316E07108909172088C179D07A1F48FEF9FEFFA
S11316F09093720880937108109274081092730882
S1131700109275081092760881E080935F0181E160
S11317100E944001DF91CF91089561E081E00E9431
S1131720EE008823E9F48FB7F894282F33278091AB
S11317304B0190914C01892B11F02FBF20C081E007
S113174090E090934C0180934B012FBFDD9A0E944F
S11317505A0524E130E040E050E00E9417060FC033
S113176062E081E00E940801882319F089E090E09A
S1131770089561E081E00E940801882319F080E067
S113178090E0089585E090E00895CF92DF92EF9283
S1131790FF920F931F93CF93DF938C01F62E6A0170
S11317A0E22E8FB7F894C82FDD2760E080E00E9416
S11317B00801882321F0CFBF80E090E01EC0CFBF96
S11317C00F0D111D802F80680E948001F82E169540
S11317D00795802F807C0E9480010E2D0AC0EE2D7B
S11317E0FF27E01BF109EC0DFD1D80810E948001A3
S11317F001500023A1F78F2D9927DF91CF911F91DD
S11318000F91FF90EF90DF90CF900895CF93DF93E7
S1131810CDB7DEB72C970FB6F894DEBF0FBECDBFA1
S11318208FB7F894282FAE014F5F5F4FDA01E2EBD8
S1131830F5E088E001900D928150E1F780913A0340
S113184090913B038987892F99278A8780915A032E
S113185090915B038B87892F99278C872FBF2CE06E
S113186060E080E691E00E94C50B2C960FB6F894D8
S1131870DEBF0FBECDBFDF91CF9108951F93CF93ED
S1131880DF93182F8FB7F894C82FDD2760E080E02E
S11318900E940801882321F0CFBF80E090E005C0BA
S11318A0CFBF812F0E9480019927DF91CF911F9193
S11318B00895EF92FF920F931F93CF93DF93182F06
S11318C07B01042F8FB7F894C82FDD2760E080E0F8
S11318D00E940801882321F0CFBF80E090E014C06B
S11318E0CFBF1064812F9927909361038093600385
S11318F00E948001182F402F5527B70180E090E007
S11319000E94FA01812F9927DF91CF911F910F91A6
S1131910FF90EF900895C09860916D0170916E01F1
S113192041E08FE30E94590C089582E090E0909387
S113193094028093930281E08093050320E030E0D9
S113194080910A01843011F421E030E0232B29F442
S113195084E00E94A70A882319F40E948B0C08953E
S113196084E00E94E40A08951F920F920FB60F922A
S113197011242F933F934F935F936F937F938F9390
S11319809F93AF93BF93EF93FF93809193029091B2
S11319909402019749F482E090E09093940280933A
S11319A093020E94950C05C08091AD028F5F8093D5
S11319B0AD02FF91EF91BF91AF919F918F917F9174
S11319C06F915F914F913F912F910F900FBE0F90A8
S11319D01F9018951F9380914E01882309F04BC0E6
S11319E010910A011F3F09F046C060E00E940801FF
S11319F0882309F440C081E080934E0880917B02E3
S1131A008823E1F110924E0885E090E045C09230C1
S1131A1069F5C09A80910B0120E030E08F3F11F40A
S1131A2021E030E0232BE9F410930D018F3F19F4EA
S1131A302FEF30E00DC0282F3327F901EB5AFC4F6C
S1131A40808180930B018F3F11F410930C0110835C
S1131A502093AE0281E080934F0189E00E9440010F
S1131A6005C010930D0110924F0111C080914F01D8
S1131A70882369F00FC081E090E00EC080910D01D1
S1131A8090914F01882319F2923021F0EFCF80E03A
S1131A900E941F0180E090E01F9108951F93CF934F
S1131AA0DF939FB7F894C92FDD271C2F90910A016B
S1131AB0981721F0CFBF81E090E03AC08FEF809378
S1131AC00A0130914E013323F1F48FB7F89499272A
S1131AD01092AC058FBF0E94EA0CCFBF11C02093B7
S1131AE00A0181E090E002C0880F991F4A95E2F74D
S1131AF08095382330934E0187E00E9440011FBF38
S1131B0080E090E015C080E065E0E32FFF270E94AD
S1131B101632292F492F5527CF01042E02C095953F
S1131B2087950A94E2F780FDDACF822F8F5FEFCF9B
S1131B30DF91CF911F9108951F93CF93DF938FB7B8
S1131B40F894C82FDD271C2F809193029091940262
S1131B50892B29F484E00E944E0DCFBF1EC0109241
S1131B6005038091AD02882311F0B79904C00E9942
S1131B7008C0882319F081508093AD020E94950C0F
S1131B800BC081E090E090939402809393021092B2
S1131B90AD0284E00E944E0D1FBFDF91CF911F91D3
S1131BA008950E944405C09AC09888E00E943E0CA3
S1131BB088E00E943E0CC09A84E00E944E0D0E9470
S1131BC09C0D0895FF920F931F93CF93DF93F82EEC
S1131BD08B018FB7F894C82FDD2760E080E00E9466
S1131BE00801882321F0CFBF80E090E00CC0CFBF74
S1131BF08F2D0E948001812F99270E948001802FC0
S1131C000E9480019927DF91CF911F910F91FF903E
S1131C1008951F931FB7F8948091AC02882319F498
S1131C2060E070E009C060E08091720A882309F4E2
S1131C3061E081E06827772780914103882319F4C4
S1131C4080E090E00AC090E08091B105882309F417
S1131C5091E081E09827892F9927762F6627770FBF
S1131C60770F770FF4E0880F991FFA95E1F7826EEA
S1131C709262682B792B81E10E94E20D812F9927D2
S1131C808FBF1F9108958FB7F89499276091DD0550
S1131C908FBF85E0689FB0011124625D7E4F706440
S1131CA088E10E94E20D0895EF92FF921F93CF9373
S1131CB0DF93E0904303F0904403F70182A5992752
S1131CC0182F882309F41FE1C0988091AB02811773
S1131CD049F0612F77276F717070606E706885E1CD
S1131CE00E94E20D1093AB02F70110818FB7F894B4
S1131CF0C82FDD2760E080E00E940801882311F0EE
S1131D00CFBF12C0CFBF8EE390E090936103809366
S1131D1060038EE30E9480011150412F552760E03B
S1131D2070E0C7010E94FA01DF91CF911F91FF90EB
S1131D30EF9008950F931F93CF93DF93EC010FB7A8
S1131D40F89411270E94AA00FC018FE380830FBF3F
S1131D501092700A10926F0A61E082E00E94EE0015
S1131D60882319F085E090E072C080914F088F5F5E
S1131D7080934F0881508B838FB7F894082F1127D5
S1131D8062E081E00E940801882329F40FBF0E94C9
S1131D901B0281E05BC08FB7F894992724E020935D
S1131DA0AD058FBFD0939D03C0939C030FBFFE016D
S1131DB03196818129819927982F88273327822B6F
S1131DC0932B80729C7C8983892F99278183298115
S1131DD0982F882733272164822B932B8983892F7B
S1131DE0992781831CA618A619A619AA18AA1FA6A2
S1131DF080E88EA761E06093B00540919C03509108
S1131E009D038FB7F894282F332780915001909128
S1131E1051018830910511F0019711F02FBF15C0C1
S1131E2082E090E0909351018093500160937C0A8A
S1131E305093440340934303109271012FBF0E94B7
S1131E403C0B882311F40E94540E80E09927DF9103
S1131E50CF911F910F910895CF93DF93DA01422F11
S1131E602D3118F082E090E05EC0ED018B876E8327
S1131E70872F99278F832FB7F894332780913A03BC
S1131E8090913B032FBFFD018483892F992785837C
S1131E902FB7F894332780910E0190910F012FBF33
S1131EA08887892F99278987319681812981992764
S1131EB0982F8827332720643868822B932B8983B3
S1131EC0892F99278183435F4C934D508091110151
S1131ED0882359F010921101642FCD010E949A0EAB
S1131EE09927282F8823A9F417C0842F9927909322
S1131EF0990380939803B0935501A09354018DE006
S1131F000E94400180911101882349F489E090E006
S1131F100AC08FEF80931101822F992704C0109279
S1131F20490380E090E0DF91CF9108951F93809161
S1131F3014019927019664E070E00E943632682FFC
S1131F408093140110E0462F5527FA01EE0FFF1F6E
S1131F50EE55FC4FA081B181109799F0E62FE695DC
S1131F60E695E695FF27E459F54F808199279A0174
S1131F702770307002C0959587952A95E2F780FF07
S1131F800DC0CA01019664E070E00E943632682FE9
S1131F901F5F1430C1F61093140119C0609314012B
S1131FA06430A8F42C912D503327FD0167817727E5
S1131FB0762F662786819927682B792BAD01838537
S1131FC00E942C0F882319F080E10E9440011F9188
S1131FD00895CF93DF93582FFB01843018F081E0EC
S1131FE090E033C0C82FDD27CC0FDD1FCE55DC4F6A
S1131FF088819981892B19F085E090E026C0798346
S11320006883435F40834D5080911401843018F4F9
S113201080E090E01AC0838567817727762F662752
S113202026813327622B732B50931401242FAF0185
S11320300E942C0F9927282F882329F084E080936D
S1132040140119821882822F9927DF91CF91089564
S1132050FB018683892F9927878381E7838780E023
S11320600E94E90F99270895FB018683892F9927F8
S1132070878380EF838782E00E94E90F9927089580
S11320804091600143FD3EC0209166033327322F07
S113209022278091650399278062282B392B20936E
S11320A06503232F33272093660344604093600124
S11320B0E0914202F091430281E0808380916701C4
S11320C090916801FC01EE0FFF1FE80FF91FEE0F5E
S11320D0FF1FE153FB4F45E064E673E0808191818B
S11320E00E9434109927882331F48091600188601C
S11320F0809360010895843029F4809160018D7F7C
S11321008093600108951F938FB7F894282F332785
S113211080914D01882311F02FBF30C02FBF80B3B1
S11321209927E6E096958795EA95E1F7182F1170BF
S113213090915E0380915F038917D9F01917C9F450
S113214084E090E090934C0180934B018FB7F89416
S1132150992721E020934D018FBF60E070E08DE16D
S11321600E94E20D0E94060CC09AC09881E00E9471
S1132170400110935F0386E00E9440011F9108957F
S11321801F93182F81E090E09093510180935001A8
S113219010927B020E94EA0C8FB7F894992710934F
S11321A04A018FBF83E00E9440011F9108950F935D
S11321B01F930FB7F89411271092510110925001F8
S11321C087B78F7E87BF87B78F7D87BF83E00E94E5
S11321D04E0DC09A0FBF0FB7F894112710929402B6
S11321E0109293020E944405C09A89B78F7B89BFDD
S11321F00FBF80E090E01F910F9108950E94D710C7
S11322000E94500582E00E9440010895CF92DF921F
S1132210EF92FF920F931F93CFB6F894DD240E94A0
S11322206D02DC01CB0166E470E00E942232FBE027
S1132230EF2EF12CE80EF91EF092790AE092780A5A
S11322400E945A0500271127A80197010E9417062A
S1132250CFBE1F910F91FF90EF90DF90CF90089524
S11322601F93CF93DF938FB7F894C82FDD271C2FCC
S113227080915001909151010897C9F489E00E941E
S11322803E0C83E00E944E0DC09A81E090E0909352
S11322905101809350018FB7F894992723E020933C
S11322A04A018FBF83E00E944001CFBF30C0C09875
S11322B080917C0A882311F085E001C084E00E94AB
S11322C03E0C83FD09C080E00E943E0C83FF04C0E5
S11322D085E090E020E003C083E090E021E090936B
S11322E0510180935001C09A1FBF222341F01092E4
S11322F0710183E00E944E0D0E94061108C00E94E5
S11323005A0520E431E040E050E00E941706DF91D6
S1132310CF911F9108951F93CF93DF938FB7F894B4
S1132320992710910A018FBF123009F465C0133048
S113233030F4112359F0113009F0ACC048C0133007
S113234009F474C0143009F0A5C0A2C0C0988FB7B6
S1132350F894C82FDD2780914B0190914C0102978E
S1132360A1F583E090E090934C0180934B0168E1E8
S113237070E08DE10E94E20D81E080935E03109293
S11323804D0180B39927A6E096958795AA95E1F724
S11323908170907080935F0386E00E94400181E029
S11323A00E943E0C6FE772E08CE10E94E20D0E94F5
S11323B0430E0E94090E66E57AE287E10E94E20D6F
S11323C06FEF70E885E10E94E20DCFBF63C0C09853
S11323D086E00E943E0C0E94430E0E94090E0E9459
S11323E0060CC09AC09883E00E943E0CC09A81E01B
S11323F00E944E0D85E045C0C0988FB7F894C82F51
S1132400DD2760E080E00E940801882311F0CFBF3F
S11324100AC0CFBF83E50E94800180E00E94800152
S113242080E00E948001C09A82E02FC08FB7F894A8
S11324309927209150018FBF243039F0283041F082
S1132440223011F50E94540E25C00E94301122C082
S1132450C09889E00E943E0CC09A83E00E944E0D11
S11324608FB7F894992721E030E0309351012093FD
S113247050018FBF8FB7F894992710934A018FBFEB
S113248083E00E94400106C083E00E944E0D02C01A
S11324900E948B0CDF91CF911F91089578941F9225
S11324A00F920FB60F9211242F923F924F925F9288
S11324B06F927F928F929F92AF92BF92CF92DF9250
S11324C0EF92FF920F931F932F933F934F935F933A
S11324D06F937F938F939F93AF93BF93CF93DF9328
S11324E0EF93FF93C6B5D7B58FB7F894282E0E9403
S11324F05A059B012C1B3D0B442755272B013C01FE
S1132500421A530A640A750A80915001909151014C
S11325108530910521F0069709F0E0C0BFC086E040
S113252090E0909351018093500131E0332E30922A
S113253004031092520180E00E94CA08E091430310
S1132540F091440341AABB27A72D962D852D80AB7E
S1132550C301AA27BB2787A7872D9927AA27BB27AB
S113256086A7E0914303F091440385A5882309F4E9
S113257084C06081655077274F01860E971EF40151
S11325802081E1808281A3809927AA27BB27BA2FC3
S1132590A92F982F8827332744275527522F4427BC
S11325A033272227FF24002711278701FF24EE2445
S11325B02E293F29402B512BBB24CC24DD242A294E
S11325C03B294C295D29822B932BA42BB52B8419F1
S11325D09509A609B7098383292F3A2F4B2F55272D
S11325E022839D014427552721838B2F9927AA27CE
S11325F0BB278083C09824E0A40180E090E00E947F
S1132600C50BC09AF4012081E1808281A3809927BF
S1132610AA27BB27BA2FA92F982F88273327442707
S11326205527522F442733272227FF240027112719
S11326308701FF24EE242E293F29402B512BBB2454
S1132640CC24DD242A293B294C295D29822B932B78
S1132650A42BB52B840D951DA61DB71D8383292F8F
S11326603A2F4B2F552722839D0144275527218339
S11326708B2F9927AA27BB278083E0914303F091EE
S11326804403818185FF02C030927B0283E00E9473
S11326904E0D87B78F7E87BF84997AC0109204034A
S11326A081E00E94CA08E0914303F09144038181D0
S11326B085FF0FC087E090E0909351018093500113
S11326C00E945A0520E031E040E050E00E941706E5
S11326D003C080E00E94C010849B5AC080915201C4
S11326E0882391F580910403882371F511E01093F8
S11326F004030E94CA0880B320915F0A283098F42A
S1132700E0916B0AE20FFF27E770F070EE0FFF1FF6
S1132710EE0FFF1FE55FF54F4082518262827382A4
S11327202F5F20935F0A10935201D0936303C093E9
S1132730620384992DC09927B4E096958795BA953C
S1132740E1F7182F117001C010E08091040381306B
S1132750F9F4109204030E94CA0810925201112342
S1132760B9F48091620390916303C81BD90B2A9733
S113277078F480915F0A882319F0815080935F0A6E
S11327808091430390914403009711F00E94BB0889
S11327902FBEFF91EF91DF91CF91BF91AF919F91A8
S11327A08F917F916F915F914F913F912F911F91E5
S11327B00F91FF90EF90DF90CF90BF90AF909F90DC
S11327C08F907F906F905F904F903F902F900F90DD
S11327D00FBE0F901F90189578941F920F920FB60A
S11327E00F9211241F932F933F934F935F936F93F3
S11327F07F938F939F93AF93BF93EF93FF9387B789
S11328008F7E87BF78941FB7F89480914F0390917F
S11328105003A0915103B09152030097A105B10553
S113282009F051C08091500190915101853091057A
S113283061F18630910530F48330910549F00497B5
S113284081F51AC087309105F1F0089751F514C04D
S1132850869B0FC084E090E09093510180935001D7
S11328600E945A0527E030E040E050E00E9417063D
S113287018C00E94061115C00E943C0B882389F4DD
S11328800E9430110EC080E00AC089E00E943E0C14
S113289081E00E94CA0883E00E944E0D87E00E94F6
S11328A0C01080914B0190914C01019771F482E02A
S11328B090E090934C0180934B01DE98DE9A80E087
S11328C00E94E40A02C00E947705812F99278FBFD6
S11328D0FF91EF91BF91AF919F918F917F916F91F4
S11328E05F914F913F912F911F910F900FBE0F90C9
S11328F01F901895EF92FF920F931F93CF93DF933E
S11329008B01809160039091610386FF40C18F7BAE
S11329108F3309F08EC1C0916D01D0916E01588141
S11329205093950280919302909194028530910581
S113293009F443C08630910509F48AC0029709F06E
S11329401FC185E090E0909394028093930240919C
S11329504002852F99270196242F332728173907FA
S11329604CF1B79906C00E9904C0451B41504093E1
S11329704002409195024A32E8F44423A1F0BE019A
S11329806F5F7F4F483018F047E050E007C086E0A3
S113299090E09093940280939302552780E090E016
S11329A00E94FA0146C110920503C09A84E00E9475
S11329B04E0DE3C00E94D10D3CC186E090E090939F
S11329C094028093930280914103882309F439C0CF
S11329D08091B1058823A9F5898185FF32C08F8153
S11329E04E812FB7F894332760915A0370915B039B
S11329F02FBF9927982F88275527842B952B861727
S1132A00970759F08F812E819927982F882733278C
S1132A10822B932B8F5F9F4FA1F489818770813024
S1132A2081F4C09AC0988AE00E943E0CC09AC09873
S1132A304091950247502896BE018FE30E94590C9D
S1132A40F8C040919502475055272896BE01A6CF5D
S1132A50C09A8091AD02882339F484E00E944E0D1F
S1132A608091AD02882311F0B7990AC00E9B08C06B
S1132A7090915F0A992321F0809195028B3038F46C
S1132A8080916D0190916E010E94BB083DC0913010
S1132A9001F5E0916B0AFF27EE0FFF1FEE0FFF1FFA
S1132AA0E55FF54F2081318142815381E0916D01D1
S1132AB0F0916E0121ABBB27A52F942F832F80AB00
S1132AC0CA01AA27BB2787A7252F332744275527C1
S1132AD026A780916B0A9927019668E070E00E940E
S1132AE0363280936B0A80915F0A815080935F0A2B
S1132AF0882351F080916D0190916E010E94BB0872
S1132B0010926B0A10925F0A80919502FE01E80F01
S1132B10F11D808187FF31C0012B79F169816770D4
S1132B20E0916D01F0916E01623019F5A0914303BB
S1132B30B0914403109709F1809150019091510193
S1132B400797D9F4ED019B8183819817B1F487B776
S1132B508F7E87BF908181E08CA7E90FF11D829160
S1132B60319688A780818F7789A780E00E94C01062
S1132B7004C0613011F48AE02AC00E949C0D59C03F
S1132B8010920503C09A84E00E944E0D52C08E3309
S1132B9009F04FC0C09A809150019091510108975B
S1132BA0C9F4C09889E00E943E0CC09A83E00E9458
S1132BB04E0D81E090E090935101809350018FB7C6
S1132BC0F894992723E020934A018FBF83E00E9461
S1132BD040012FC080917C0A882349F484E090E06E
S1132BE090935101809350010E94301122C083E0E0
S1132BF00E944E0D83E090E0909351018093500128
S1132C000E946D02DC01CB0166E371E00E94223276
S1132C104BE0E42EF12CE80EF91EF0923B02E09218
S1132C203A020E945A0500271127A80197010E9421
S1132C301706DF91CF911F910F91FF90EF900895A8
S1132C401F920F920FB60F9211242F933F934F931D
S1132C505F936F937F938F939F93AF93BF93EF9300
S1132C60FF932FB1E0919904F0919A04309739F0D1
S1132C708091A0039091A103E80FF91F2083809114
S1132C80A0039091A10301969093A1038093A003C4
S1132C9080E00E94250140916F0150917001809164
S1132CA0A0039091A1038417950718F40E948C0146
S1132CB01CC06091990470919A048091750A909156
S1132CC0760A10929A04109299041092760A10923D
S1132CD0750A1092700110926F011092A103109264
S1132CE0A0032FB120E00E947A14FF91EF91BF91CD
S1132CF0AF919F918F917F916F915F914F913F9190
S1132D002F910F900FBE0F901F901895AF92BF9206
S1132D10CF92DF92EF92FF920F931F938C017B016E
S1132D200E946D02DC01CB01B8010E9422325C01D9
S1132D300E941A03AB01BC01AE0CBF1CCC24DD24E1
S1132D4081E0E82E9601850186E00E94FB021F9136
S1132D500F91FF90EF90DF90CF90BF90AF900895C8
S1132D60AF92BF92CF92DF92EF920F931F935B01CA
S1132D706C010E941A03AB01BC0191E0E92E96019B
S1132D80850184E00E94FB021F910F91EF90DF9078
S1132D90CF90BF90AF900895EF92FF920F931F933F
S1132DA08091270190912801A0912901B0912A01D5
S1132DB0B695A795979587958093670A9093680A27
S1132DC0A093690AB0936A0A0E946D02E090670AB0
S1132DD0F090680A0091690A10916A0AA8019701A3
S1132DE00E9449326E0D7F1D801F911F6093670AF8
S1132DF07093680A8093690A90936A0A1092400358
S1132E000E94B0161F910F91FF90EF900895AF921A
S1132E10BF92CF92DF92EF920F931F935B016C01ED
S1132E200E941A03AB01BC0131E0E32E9601850137
S1132E3085E00E94FB021F910F91EF90DF90CF90ED
S1132E40BF90AF900895EF92FF920F931F938091DC
S1132E50340190913501A0913601B0913701B695B6
S1132E60A7959795879580934B0390934C03A093D4
S1132E704D03B0934E030E946D02E0904B03F0901B
S1132E804C0300914D0310914E03A80197010E9439
S1132E9049326E0D7F1D801F911F60934B03709309
S1132EA04C0380934D0390934E03109242030E946F
S1132EB007171F910F91FF90EF90089580913401AF
S1132EC090913501A0913601B0913701880F991F77
S1132ED0AA1FBB1F8093340190933501A093360140
S1132EE0B093370120912F0130913001409131018D
S1132EF050913201281739074A075B0768F4209379
S1132F003401309335014093360150933701809159
S1132F106A018F5F80936A010E942317089580914C
S1132F202B0190912C01A0912D01B0912E01809341
S1132F30340190933501A0933601B0933701109278
S1132F406A010E942317089560913401709135013C
S1132F50809136019091370120914B0330914C03BD
S1132F6040914D0350914E03621B730B840B950BE0
S1132F7021E0209342030E9407170895AF92BF9265
S1132F80CF92DF92EF920F931F935B016C010E942B
S1132F901A03AB01BC01E1E0EE2E9601850183E04A
S1132FA00E94FB021F910F91EF90DF90CF90BF9092
S1132FB0AF900895CF92DF92EF92FF920F931F93F9
S1132FC06C017B010E946D02DC01CB01B6010E9401
S1132FD02232E80EF91E00271127C801B7010E940A
S1132FE0BE171F910F91FF90EF90DF90CF9008953F
S1132FF00F931F93CF93DF93EC01E0915701FF27C9
S1133000EE0FFF1FE05BF74F00811181662329F06B
S11330106CE170E08CE190E02FC08091560183FF59
S11330203DC08CA58823D1F58F819927982F8827B7
S11330302E813327822B932B0E942202982F8F3FBD
S113304071F08BE0989FF0011124E355FC4F8285C9
S11330508F5F8287853018F0CF010E948A0381E157
S11330600E944001F801838181508383882339F0D1
S113307067E070E087E090E00E94DA173FC00E94AA
S1133080A103809156018F7E8093560167E070E022
S113309087E090E00E94DA1740E02CC00E94A10370
S11330A0809156018F7E8093560167E070E087E03F
S11330B090E00E94DA178F819927982F88272E8114
S11330C03327822B932B0E942202982F8F3F89F063
S11330D08BE0989FF0011124E355FC4F81858F5FAD
S11330E0818782858F5F8287853018F0CF010E94A7
S11330F08A0341E0BE01C8010E949A09DF91CF9181
S11331001F910F910895AF92BF92CF92DF92EF92E9
S1133110FF920F931F93CF93DF93FB01813069F0EC
S1133120813030F08230A9F0833009F0F7C0F2C06A
S1133130642FCF010E94F817F1C06650734009F064
S1133140EDC080915E01882309F4E8C010925E010D
S1133150E5C0442329F06CE170E08CE190E012C0FA
S11331604091600142FF13C084A5882381F48091BB
S1133170AA0381508093AA03882339F067E070E0A2
S113318087E090E00E948616C9C0477FC0C0842FA4
S1133190877F8093600146FFC1C0C0916701D091D1
S11331A068012196D0936801C093670180916D0AEC
S11331B0A82EBB24CA15DB0508F092C00091630158
S11331C010916401B801882777FD8095982F0E949B
S11331D0083117FF06C020E030E040E857E40E94C1
S11331E00E3026E636E646E65FE30E9494316B0134
S11331F07C01FE01EE0FFF1FEC0FFD1FEE0FFF1F02
S1133200E153FB4F048115810F5F1F4FB8018827DD
S113321077FD8095982F0E94083117FF06C020E0A3
S113322030E040E857E40E940E309B01AC01C70136
S1133230B6010E9494316B017C0100916E081091DB
S11332406F080A0D1B1DB801882777FD8095982FFC
S11332500E94083117FF06C020E030E040E857E440
S11332600E940E309B01AC01C701B6010E9472306E
S11332700E94DA30E0914202F09143026483672FA6
S1133280772763838091670190916801A09142023E
S1133290B0914302FC01EE0FFF1FE80FF91FEE0F80
S11332A0FF1FE153FB4F3497ED018B819927982F32
S11332B088272C813327822B932B208131813496CC
S11332C0820F931F0197938382838A83892F99277F
S11332D089838EE18093AA0385E10E9440011EC088
S11332E0FE01EE0FFF1FEC0FFD1FEE0FFF1FE55356
S11332F0FB4F80916C0890916D0820813181821B75
S1133300930B9093660180936501477B40684093DB
S1133310600104C0442311F410926101DF91CF9144
S11333201F910F91FF90EF90DF90CF90BF90AF90DF
S11333300895EF92FF920F931F93E82E8B01F42EC2
S1133340E82FFF27EE0FFF1FEE55FC4F118210826E
S11333500E94960F4F2DB8018E2D0E9483181F9145
S11333600F91FF90EF9008950F931F93CF93DF93E6
S1133370042F109114011430A0F4E12FFF27EE0F55
S1133380FF1FEE55FC4FC081D181C617D70749F402
S1133390118210820E94960F402FBE01812F0E943D
S11333A08318DF91CF911F910F910895CF93DF93ED
S11333B0C0915401D091550160919803CE010E94AF
S11333C09A0E482F5527442351F08FEF8093110113
S11333D060915401709155018B850E94B419DF915D
S11333E0CF9108958F929F92AF92BF92CF92DF9226
S11333F0EF92FF920F931F93CF93DF93CDB7DEB776
S113340022970FB6F894DEBF0FBECDBF8091560150
S113341084FD9BC190E080915901882309F491E0D7
S1133420992309F092C1E0915701FF27EE0FFF1F86
S1133430E05BF74FE080F180D7010D911C91C8014A
S11334400E945304AC0120916C0830916D08281738
S1133450390750F08091630190916401281B390B66
S11334604217530708F06BC180912D02882359F449
S113347020E080917108909172088F5F9F4F09F04E
S113348021E0222331F0CE0101960E945D048823BD
S113349039F060E177E280E090E00E94BE1755C108
S11334A0D701ED91FC91B0808090710890907208E2
S11334B0CF010E94C60320E090912C02891708F4E2
S11334C021E0222309F06EC08091600185FD04C0D3
S11334D0BFEFCB2EDB2E04C0C0906C08D0906D08DB
S11334E0D7010D911C91C8010E945304C816D90636
S11334F0C9F4F801B08CA0915C03B0915D0384E33E
S113350001900D928150E1F700915C0310915D03ED
S1133510D8018C918A51C82EDD246C2DC8010E94DB
S11335208804BDC069817A81C8010E94200560ECCD
S1133530D7018D919C910E942605F701808191818C
S11335400E942C05882329F4809156018860809379
S113355056018091560180FF0BC0D701ED91FC917B
S1133560848580648487809156018E7F8093560180
S1133570B3EFBB0E4B2D5527F70160817181C40158
S11335800E9428109927882309F4D0C0823009F0BA
S1133590DCC0D701ED91FC9189E280838EE00E942A
S11335A04001D3C00E94A103F7018081918144C0EE
S11335B0D8019C90F80186859927382F2227878582
S11335C09927282B392B40E011C0842F9927FC011F
S11335D0EE0FFF1FE80FF91FEE0FFF1FE153FB4F24
S11335E0828193818217930718F44F5F451769F717
S11335F0842F4517E1F09927FC01EE0FFF1FE80F18
S1133600F91FEE0FFF1FE153FB4FA080B180FFEFC6
S1133610AF16FFEFBF0659F0C8010E94C60320E0B1
S113362090912C02891708F421E0222359F00E947A
S1133630A103D7018D919C910E941504C7010E949A
S11336403404ACCF8091600185FD04C02FEFC22EFD
S1133650D22E04C0C0906C08D0906D08F701008190
S11336601181C8010E945304C816D90661F5F801F6
S1133670B08CA0915C03B0915D0384E301900D9242
S11336808150E1F700915C0310915D03D8018C91A6
S11336908A51C82EDD246C2DC8010E948804BC0107
S11336A0B0EFBB1629F44C2DC8010E94B8048C015C
S11336B010935D0300935C0360E0F70180819181C6
S11336C00E94F81742C06FEF7FEFC8010E942005E7
S11336D060ECD7018D919C910E942605F7018081B1
S11336E091810E942C05882329F4809156018860D9
S11336F0809356018091560180FF0BC0D701ED9154
S1133700FC91848580648487809156018E7F8093A8
S11337105601B3EF9B0E492D5527F7016081718146
S1133720C5010E9428109927882331F480915601FD
S113373080618093560109C0823039F42ACF5091B8
S11337406D0A552309F034CF2DCF22960FB6F89485
S1133750DEBF0FBECDBFDF91CF911F910F91FF90C0
S1133760EF90DF90CF90BF90AF909F908F9008958F
S1133770AF92BF92CF92DF92EF92FF920F931F937B
S11337808091160190911701A0911801B09119012F
S1133790B695A79597958795809300039093010319
S11337A0A0930203B09303030E946D02E090000310
S11337B0F09001030091020310910303A801970103
S11337C00E9449325B016C01AE0CBF1CC01ED11EAD
S11337D0A0920003B0920103C0920203D0920303AB
S11337E0109270080E941A03AB01BC0101E0E02EA4
S11337F09601850181E00E94FB021F910F91FF90C9
S1133800EF90DF90CF90BF90AF9008956F927F922A
S11338108F929F92AF92BF92CF92DF92EF92FF92DC
S11338200F931F93CF93DF93CDB7DEB722970FB6D5
S1133830F894DEBF0FBECDBF3B014C01CC24DD2488
S11338406BE174E0FB01A084A1FE43C320813181BC
S113385042815381E480F58006811781D401C3013C
S1133860821B930BA40BB50B8E159F05A007B10704
S113387008F42FC3A0FE05C0FDEFAF22FB01A08614
S113388009C02E0D3F1D401F511FFB0120833183B2
S113389042835383F6E0CF1609F45EC2FC15B8F0F8
S11338A023E0C21609F494C02C1540F081E0C81638
S11338B031F1E2E0CE1609F016C37EC0F4E0CF1673
S11338C009F48FC025E0C21609F00DC37BC18BE05B
S11338D0C81609F45BC28C1548F0E9E0CE1609F469
S11338E047C2FAE0CF1609F0FEC24EC22CE0C2165F
S11338F009F465C28DE0C81609F0F5C268C280916A
S11339005C01882309F4EFC280915D01882309F4E6
S1133910EAC280917008882339F581E10E94400150
S113392082E10E944001A0901601B0901701C0905E
S11339301801D09019018091000390910103A09186
S11339400203B0910303A81AB90ACA0ADB0A81E088
S1133950809370080E941A03AB01BC01E1E0EE2ED3
S11339609601850181E0B2C2809116019091170100
S1133970A0911801B0911901880F991FAA1FBB1FAC
S11339808093160190931701A0931801B093190125
S11339908150904DA740B04060F080E090EDA7E0EA
S11339A0B0E08093160190931701A0931801B0938F
S11339B019010E94B81B97C280915C01882309F405
S11339C092C280915D01882309F48DC281E106C011
S11339D0809156018F7E809356018EE00E944001B3
S11339E082C26091690180912601681708F07EC047
S11339F080914003882309F04AC000917108109116
S1133A007208FFEF0F3F1F0719F020E030E003C0FA
S1133A108C0121E030E080911C0190911D01081778
S1133A20190711F4232BC9F080911E0190911F01F5
S1133A30A0912001B0912101809327019093280146
S1133A40A0932901B0932A01109269010E94CC1617
S1133A5010931D0100931C0146C2609127017091CF
S1133A6028018091290190912A012091670A3091BF
S1133A70680A4091690A50916A0A621B730B840BAD
S1133A80950B21E0209340030E94B0162CC2809134
S1133A90270190912801A0912901B0912A01880F52
S1133AA0991FAA1FBB1F8093270190932801A093FD
S1133AB02901B0932A0120912201309123014091E0
S1133AC0240150912501281739074A075B0758F448
S1133AD020932701309328014093290150932A0110
S1133AE06F5F609369010E94CC16FDC180911C0137
S1133AF090911D0190931B0180931A01CE010196B0
S1133B000E945D04E0902B01F0902C0100912D01A6
S1133B1010912E01C801B70142E0660F771F881F7C
S1133B20991F4A95D1F76E0D7F1D801F911FA980A3
S1133B30BA800894A11CB11CCC24DD24A6019501F3
S1133B400E94493239014A016E0C7F1C801E911E6D
S1133B5060922B0170922C0180922D0190922E0183
S1133B60E0902F01F0903001009131011091320169
S1133B70C801B70132E0660F771F881F991F3A9575
S1133B80D1F76E0D7F1D801F911FA60195010E9424
S1133B904932E20EF31E041F151FE0922F01F0922A
S1133BA0300100933101109332016092340170921C
S1133BB03501809236019092370110926A010E9479
S1133BC0231791C180912D02882309F4A6C09091F6
S1133BD06A0180913301981730F48091420388235D
S1133BE009F4B4C0B6C08EEF9FEF90936D08809334
S1133BF06C089093640180936301809160018062FA
S1133C0080936001F0906D0AFF2009F46CC18091EB
S1133C10670190916801FC01EE0FFF1FE80FF91F87
S1133C20EE0FFF1FE153FB4F048115810F5F1F4F00
S1133C30B801882777FD8095982F0E94083117FFD7
S1133C4006C020E030E040E857E40E940E309B01BB
S1133C50AC0169E974E686E697E40E9494313B017D
S1133C604C0100916E0810916F080F0D111DB801E1
S1133C70882777FD8095982F0E94083117FF06C08A
S1133C8020E030E040E857E40E940E309B01AC0194
S1133C90C401B3010E9472300E94DA30E091420202
S1133CA0F09143026483672F77276383A0914202D4
S1133CB0B0914302FD014381648180916701909139
S1133CC06801FC01EE0FFF1FE80FF91FEE0FFF1F45
S1133CD0E153FB4F80916C0890916D082091630132
S1133CE030916401821B930B5527542F4427772767
S1133CF0462B572B840F951F019793838283FD01D5
S1133D008283892F992781838091600180648093C5
S1133D1060018EE18093AA0329C09091600195FD12
S1133D20E2C0809142038823A1F494FF0FC091FF65
S1133D300DC090FF0BC08EE18093AA0384E10E9422
S1133D404001809160018F7E809360010E94A417DE
S1133D50CAC00E945E17C7C090916001892F877FF7
S1133D608093600195FD02C084E138CE85E136CEB2
S1133D7080912D02882341F410E08EEF9FEF0E9482
S1133D8094041F5F1A30C9F780E028CE80916C013B
S1133D90882309F0A8C080912D02882309F0A3C0CC
S1133DA081E080936C014091380150913901609118
S1133DB03A0170913B018DE00E94320694C08091DB
S1133DC06B01882309F08FC00E948D0B8CC00E9468
S1133DD06D025B016C010E946D02E0903E01F09067
S1133DE03F01009140011091410120914201309125
S1133DF0430140914401509145012E193F09400B64
S1133E00510B0E944932E60EF71E081F191FE0925B
S1133E103801F092390100933A0110933B01C50136
S1133E2064E670E00E94223220913C0130913D0111
S1133E3040916B012817390780F1442391F162E026
S1133E4081E00E940801882379F08FB7F8949927BC
S1133E5023E02093AD058FBF0E94D7100E94500528
S1133E6082E00E9440011DC060E081E00E940801E0
S1133E708823B9F464E081E00E940801882341F0BA
S1133E808FB7F894992723E02093AD058FBF09C01D
S1133E9063E081E00E94080104C0442311F40E94FD
S1133EA08D0B80916C018823F1F0A0903801B090C3
S1133EB03901C0903A01D0903B010E941A03AB0132
S1133EC0BC0131E0E32E960185018CE00E94FB02E7
S1133ED00AC00894C11CD11C675F7F4FFEE0CF1657
S1133EE0D10409F0AFCC8CE00E94400122960FB6B9
S1133EF0F894DEBF0FBECDBFDF91CF911F910F911C
S1133F00FF90EF90DF90CF90BF90AF909F908F90F5
S1133F107F906F900895AF92BF92CF92DF92EF920D
S1133F20FF920F931F930E941A035B016C018FB7DA
S1133F30F894992710929F038FBFFFEFEF2EFFEFA6
S1133F40FF2EFFEF0F2FFFE71F2F60E0EBE1F4E000
S1133F50808581FF1CC080819181A281B381A601EB
S1133F609501281B390B4A0B5B0BDA01C90124812B
S1133F70358146815781281B390B4A0B5B0B2E1563
S1133F803F05400751071CF479018A0161E0399625
S1133F9034E0E939F307E1F66623D9F01E141F046F
S1133FA0100611062CF0C601B5010E94061C11C0B2
S1133FB0E0927708F09278080093790810937A08D1
S1133FC081E08093AA02A8019701C601B5010E946D
S1133FD0D3061F910F91FF90EF90DF90CF90BF9089
S1133FE0AF90089580E890E0A0E0B0E080931601DF
S1133FF090931701A0931801B09319010E94B81B64
S11340000895AF92BF92CF92DF92EF92FF920F93F7
S11340101F930FB7F894112781E00E94CA08B1E0FA
S1134020EB2EF12CF0925101E092500110925201CA
S113403010927B021092AB020FBF0FB7F8941127B6
S11340400E944405F0929402E092930210920503B8
S113405089B78F7B89BF80E488BF8AB780628ABFB3
S11340608AB78F7E8ABF89B7806489BF0FBF8FB735
S1134070F894082F112780914B0190914C010497DB
S113408019F483E00E943E0C0FBF0FB7F894112778
S1134090C09A80E00E944E0D0FBF8FB7F894992705
S11340A022E02093AD058FBF11E010935C01809155
S11340B05D01882311F00E946D0280915601846095
S11340C08093560190E080915901882309F491E08E
S11340D0992319F48EE00E9440018091600182606E
S11340E080936001809156018260809356018FB75E
S11340F0F894992720910E0130910F018FBF3093CE
S1134100A6052093A50580915D018823B9F4109339
S11341105D0180E890E0A0E0B0E080931601909308
S11341201701A0931801B09319010E94B81B40E035
S113413050E260E070E082E00E9432068FB7F894AB
S1134140992720910E0130910F018FBF30936B0896
S113415020936A088091600180FD17C0816080937C
S1134160600180911E0190911F01A0912001B091E6
S113417021018093270190932801A0932901B093F2
S11341802A01109269010E94CC168091000190913D
S11341900101019721F52091710830917208109363
S11341A02D028091A5059091A605909372088093A5
S11341B0710810927408109273082F5F3F4F19F41E
S11341C08EE00E94400188EE93E0A0E0B0E080938E
S11341D0020190930301A0930401B093050180911F
S11341E04901882359F581E0809349010E946D02B9
S11341F07B018C010E941A035B016C01C801B701A9
S113420028EC3FEA40E050E00E9449326057704A8F
S11342108E4F9F4FA1E0EA2E8B019C01B601A501B0
S113422089E00E94FB020E941A03AB01BC0100E476
S11342301CE920E030E08BE00E94FB0281E08093E7
S11342406B011F910F91FF90EF90DF90CF90BF9083
S1134250AF9008953F924F925F926F927F928F92A8
S11342609F92AF92BF92CF92DF92EF92FF920F9301
S11342701F93CF93DF93CDB7DEB7AA970FB6F89409
S1134280DEBF0FBECDBFE82FFF27E731F10510F0E9
S11342900C94192CEA5BFF4FEE0FFF1F0590F4916D
S11342A0E02D099400E010E00C94702B80916C0ACE
S11342B0882311F00C944D290C94192C80914601FB
S11342C0882309F085C0E0914701809148018E1749
S11342D009F47EC0FF27EE0FFF1FEE58FE4F6081EA
S11342E071812FEF6F3F720709F472C020910601AC
S11342F0309107014091080150910901E091790240
S1134300F0917A022383BB27A52F942F832F8283D6
S1134310CA01AA27BB278183252F33274427552782
S11343202083E0E5F2E060935302872F992780937E
S113433052028091560181FF4AC08EE1809344026B
S1134340109251028091600185FD03C08FEF9FEFB1
S113435004C080916C0890916D0880935502892F58
S113436099278483809100019091010180935A02DE
S1134370892F99278187809141028F5F8093410221
S11343808150838780EF84871682E091730AF091CD
S1134390740A3097E1F084E492E09183808312827E
S11343A08EE18383CF010E949C08882381F480914D
S11343B0560182FF04C084FD02C00E947B0110925A
S11343C0740A1092730A81E08093460101C0DA985E
S11343D00E946D02E0900201F0900301009104013B
S11343E010910501A80197010E944932E60EF71EBB
S11343F0081F191FB801A7018AE00E9441030C9409
S1134400192C0E9401200C94192C8FB7F894992729
S11344101092AD058FBF10925C01809156018B7F85
S113442080935601809160018D7F8093600110928A
S11344306B010C94192C8FB7F8949927F0904A01CA
S11344408FBF83E00E941901882319F00E94FE1097
S113445007C08FB7F894992722E02093AD058FBF4A
S113446000919C0310919D030E941B0280916F0A8E
S11344709091700A892B11F00C94192C8FEF809372
S113448011014F2DB801F80183850E94B4190C94D1
S1134490192C8FB7F894282F3327122F80917A0A7A
S11344A0882319F02FBF0C94192C81E080937A0A89
S11344B080914B0190914C01049721F481E00E947A
S11344C0E40A02C00E9467011FBF0C94192C8FB725
S11344D0F894992710927A0A8FBF0C94192C0E9491
S11344E083100C94192C0E948B110C94192C0FB767
S11344F0F894112740916F015091700160919904D3
S113450070919A048091750A9091760A10929A0497
S1134510109299041092760A1092750A1092700102
S113452010926F011092A1031092A00320E00E9448
S11345307A140FBF0C94192C2FB7F8943327809159
S1134540AE0280930D0182E080934F012FBF8091D2
S11345500D01882311F00C94192CB89AC0980E946C
S11345606C010C94192CA0916D01B0916E01FC901A
S11345709D012F0D311DF9018081881F8827881F17
S1134580FD0183A7F90180818F77FD0181A7215067
S11345903040F9018081FD0180A7A0916D01B091A7
S11345A06E01FD0132818FB7F89499272091AC02F6
S11345B08FBF222309F490C0832F9927969587955E
S11345C096958795837090708230910541F5878127
S11345D046812FB7F894332760915A0370915B0397
S11345E02FBF9927982F88275527842B952B86171B
S11345F0970719F481E090E06CC0FD018781268162
S113460040E050E09927982F88273327822B932B5B
S11346108F5F9F4F11F441E050E0CA015AC00397E5
S113462009F0E7C59E012D5F3F4F42EB55E088E05E
S1134630FA010190AF01F90101929F018150C1F784
S11346409E012D5D3F4FAE014D5F5F4F88E0FA0143
S11346500190AF01F90101929F018150C1F79E01C0
S1134660255F3F4FAE014D5D5F4F88E0FA01019039
S1134670AF01F90101929F018150C1F79E012D5EA6
S11346803F4FAE01455F5F4F88E0FA010190AF01F3
S1134690F90101929F018150C1F79E01255E3F4FB0
S11346A0AE014D5E5F4F88E0FA010190AF01F90160
S11346B001929F018150C1F748E050E0BE01655E60
S11346C07F4FCD0106960E94A232892B09F091C535
S11346D003C0882309F48DC5FCE0FF1508F089C5E3
S11346E0C0906D01D0906E01F6012281822F99272E
S11346F016E0969587951A95E1F7039719F468E003
S113470070E002C062E070E0822F99279695879549
S11347109695879583709070039719F488E090E0DC
S113472002C082E090E026E030E0C20ED31E40E0FA
S113473050E020E030E0F601E80FF91F8AEF9FEF28
S1134740C80ED91E05C08191480F511D2F5F3F4FE0
S113475026173707C4F3F60163818FEF8093710A3C
S11347608FB7F894782F20E030E0EEE2F2E0808119
S113477091818417950731F48281861709F42CC539
S11347802093710A2F5F3F4F33962430310579F718
S11347907FBF9091710A3FB7F8949F3F21F08091B9
S11347A05301891799F420915301822F9927FC0111
S11347B0EE0FFF1FE80FF91FE25DFD4F51834083A9
S11347C062832F5F2370209353010CC0892F992794
S11347D0FC01EE0FFF1FE80FF91FE25DFD4F51834F
S11347E040836283832F99278FBF0FB7F8941127D3
S11347F0C6010E94AA00FC0190810FBFF60183A5A7
S1134800882309F4F2C49F3309F0EFC487814681F9
S11348102FB7F894332760910E0170910F012FBFC9
S11348209927982F88275527842B952B8617970728
S113483061F0878126819927982F88273327822B37
S1134840932B8F5F9F4F09F0CBC7AF2DAD50F6016F
S113485083859927813709F4F3C1823720F480379F
S113486009F0C3C407C0803F09F4F0C2813F09F0D6
S1134870BCC453C4F601878126819927982F8827C1
S11348803327822B932B8F5F9F4F09F0E8C0F601EB
S1134890818520859927F82EEE243327E22AF32AEE
S11348A0C7010E9422028F3F21F0F6016585772718
S11348B01CC00E941D08182F8F3FD1F0B7010E9421
S11348C05407F6014585212F33278BE090E0289F7C
S11348D0F001299FF00D389FF00D1124E355FC4F92
S11348E04283F60165857727812F0E947407B7C03C
S11348F081E40E942F08182F8F3FA1F0282F33271F
S11349008BE090E0289FF001299FF00D389FF00D77
S11349101124E355FC4F808191810E944B0BB70118
S1134920812F9BC090E0F60181A58A3608F091E0C2
S1134930992309F494C0C6010E947808182F682F9F
S1134940C6010E946003DC01F6018385803709F00B
S113495086C0153009F049C4FD018181228199275F
S1134960982F88273327822B932B8F5F9F4F09F42F
S113497047C7FD01838124819927582F4427332772
S1134980422B532B4115510521F180917802082FB8
S113499011276091710870917208A0E020E030E066
S11349A0E0EBF2E00EC0808191818617970731F029
S11349B0848195814817590708F4A1E02F5F3F4F80
S11349C038962017310714F4AA2369F3AA2309F4AB
S11349D012C710E0E2EBF3E08081992780FF04C066
S11349E083FD02C081FF1F5F3B9624E0E032F207A3
S11349F099F71123A1F10E94F602612F77270E94F3
S1134A00223200E010E0E2EBF3E09081992349F0D8
S1134A10292F332723FD05C021FD03C081508F3F7B
S1134A2039F00F5F1F4F3B960A301105C1F0EDCFEF
S1134A30202F0F3FA1F033278BE090E0289FF00157
S1134A40299FF00D389FF00D1124E355FC4F808110
S1134A5091810E944B0BB701802F0E945407C6011D
S1134A600E947808182F682FC6010E9460037C01F9
S1134A70153009F0BAC3F6011185908460E4C601CB
S1134A800E948708382E57010894A11CB11CF70115
S1134A90818125010894411C511CF501218199272C
S1134AA0982F88273327822B932B8F5F9F4F09F4EE
S1134AB0BFC0812F9927182F0027892D9927082BEC
S1134AC0192B63E0862E912C8E0C9F1CF701838199
S1134AD054E0652E712C6E0C7F1C24819927982F2D
S1134AE088273327822B932B892B51F5C8010E94E9
S1134AF022028F3F11F50E941D088F3F11F0B8016B
S1134B001AC08AE00E942F08F82EFFEF8F17A9F031
S1134B10282F33278BE090E0289FF001299FF00D88
S1134B20389FF00D1124E355FC4F808191810E9440
S1134B304B0BB8018F2D0E945407C8010E945302E9
S1134B40F4019080F3018080F501B080F201A0802F
S1134B50C8010E943A027C01C8010E945808482FEB
S1134B608A3009F43FC0892D9927782F6627882D2C
S1134B709927682B792B8B2D9927382F22278A2D5B
S1134B809927282B392B809178024817D1F4F2E326
S1134B90EF16F10438F5E42FFF27B3E0EE0FFF1F03
S1134BA0BA95E1F7E055FD4F1183008333832283E7
S1134BB07583648381E0868317824F5F4093780214
S1134BC011C0E42FFF27A3E0EE0FFF1FAA95E1F722
S1134BD0E055FD4F118300833383228375836483FF
S1134BE081E0868380911501882311F5C8010E9414
S1134BF05808E82F80917802E81748F4FF2753E01B
S1134C00EE0FFF1F5A95E1F7E055FD4F3782809173
S1134C107608882311F0332049F08091710890912F
S1134C2072088017910721F4332011F00E9471015A
S1134C3060E8C6010E948708882309F4D6C2D3C25B
S1134C40F601908C82898F5F828BAD3108F0CDC2E2
S1134C50C6010E940904882309F0C7C210915901B2
S1134C60812F9927E82E8823B9F1C6010E94BC033D
S1134C705C01F0905701F10EFA94EA94FCE0FF1500
S1134C8010F0EF2D02C0EF2DED50FF27EE0FFF1FA8
S1134C90E05BF74F0190F081E02D00811181C801A4
S1134CA00E94BC038A159B0509F0A0C5F8019789E9
S1134CB0F6018789981709F099C5F8019289F601D8
S1134CC08289981709F092C5F801908DF601808DBC
S1134CD0981709F08BC589C2C6010E945304AC0120
S1134CE08091600185FD03C02FEF3FEF04C0209148
S1134CF06C0830916D0842175307A1F4F6018081C6
S1134D008A51082F1127602FC6010E948804BC0114
S1134D10F0EF9F1609F069C2402FC6010E94B80443
S1134D206C0163C280E020919B03222309F481E09B
S1134D30882309F05AC290919A03992309F481E0D7
S1134D40882309F052C2992309F44FC280916E0A54
S1134D50E82FFF27EE0FFF1FE358F54F0081118165
S1134D6011821082915090939A038F5F80936E0A00
S1134D708C3011F410926E0A0115110509F435C234
S1134D80222309F432C280914A03E82FFF27EE0F51
S1134D90FF1FE357FA4FE080F18011821082215007
S1134DA020939B038F5F80934A038C3011F41092FD
S1134DB04A03E114F10409F418C284E3F7011192DF
S1134DC08A95E9F728E230E0C20ED31E8CE0F601A2
S1134DD011928A95E9F728ED3FEFC20ED31EF80130
S1134DE0D182C0828FEF82838EE18383C8010E94C7
S1134DF09C08882321F5CE0101960E945D04882336
S1134E00B1F4F601838924899927982F88273327B9
S1134E10822B932B29813A812817390740F00E946D
S1134E20F21F6CE170E08CE190E00E94DA1780914F
S1134E303E0481FD02C00E947B016701D6C1C70107
S1134E400E941504C8010E943404CFC1A53009F0A2
S1134E50CCC1F601918540858485282F33272223F0
S1134E6021F0213009F0C1C194C0892F9927182F4E
S1134E700027842F9927082B192B8091600185FD29
S1134E8017C00E948F17F601678580897727762FD0
S1134E9066279927682B792BC8010E940F07813058
S1134EA009F4A3C1809160018061809360019DC178
S1134EB0F601678580897727762F66279927682BDF
S1134EC0792BC8010E940F07813009F48EC18091AB
S1134ED0600186FD8AC10091650110916601B801E7
S1134EE0882777FD8095982F0E94083117FF06C008
S1134EF020E030E040E857E40E940E302DEC3CEC1A
S1134F004CEC5DE30E9494310E94DA30E09142025D
S1134F10F09143026483672F77276383A091420251
S1134F20B0914302FD01238184813327322F22274C
S1134F309927282B392B8091650190916601821B5A
S1134F40930B9093660180936501409167015091A2
S1134F50680183812481FA01EE0FFF1FE40FF51F1E
S1134F60EE0FFF1FE153FB4F34979927982F8827A3
S1134F703327822B932B208131813496820F931F08
S1134F80019793838283FD018283892F99278183EB
S1134F90BEC04091600145FD28C1F6018585268586
S1134FA09927982F88273327822B932B90936D086A
S1134FB080936C08878520899927182F0027332729
S1134FC0022B132B015010401093640100936301D2
S1134FD0406240936001F0906D0AFF2009F405C11E
S1134FE0B801882777FD8095982F0E94083117FF14
S1134FF006C020E030E040E857E40E940E3026E688
S113500036E646E65FE30E9494314B015C018091F1
S1135010670190916801FC01EE0FFF1FE80FF91F73
S1135020EE0FFF1FE153FB4F048115810F5F1F4FEC
S1135030B801882777FD8095982F0E94083117FFC3
S113504006C020E030E040E857E40E940E309B01A7
S1135050AC01C501B4010E9494314B015C01009183
S11350606E0810916F080F0D111DB801882777FD88
S11350708095982F0E94083117FF06C020E030E089
S113508040E857E40E940E309B01AC01C501B40115
S11350900E9472300E94DA30E0914202F0914302A1
S11350A06483672F77276383A0914202B091430200
S11350B0FD01438164818091670190916801FC0145
S11350C0EE0FFF1FE80FF91FEE0FFF1FE153FB4F19
S11350D080916C0890916D08209163013091640176
S11350E0821B930B5527542F44277727462B572B86
S11350F0840F951F019793838283FD018283892FF7
S113510099278183809160018064809360018EE19E
S11351108093AA030E94760168C0A43009F065C098
S1135120F601918520858091600187FF5EC0892FFB
S11351309927F82EEE24822F9927E82AF92A10912C
S11351406D0AC7010E94ED06181709F04EC0F6015A
S1135150B684A78414850585C7010E948700482F5B
S1135160853009F442C08091770A242F33274817E9
S113517031F5F901A3E0EE0FFF1FAA95E1F7E21B59
S1135180F30BE654FA4FF182E082812F9927982F8E
S11351908827202F3327822B932B938382838B2D75
S11351A09927982F88272A2D3327822B932B958391
S11351B0848382E086834F5F4093770A16C0F901A7
S11351C053E0EE0FFF1F5A95E1F7E21BF30BE65491
S11351D0FA4F82E0868309C07FBF07C0F601848549
S11351E08078803811F40E94F21FD0926E01C09230
S11351F06D018FB7F8949927109205038FBF0E9411
S11352009C0D17C38091AA02882361F52091770829
S1135210309178084091790850917A08EFB7F89462
S1135220FF276091A8057091A9058091AA05909126
S1135230AB05E0903C02F0903D0200913E021091DB
S11352403F026E0D7F1D801F911FEFBF20937708D3
S1135250309378084093790850937A081092AA0200
S11352600E94D3060E941A030E94061CE2C20E94F6
S11352708B1FDFC29091490380911101981709F4A3
S1135280D8C290931101992309F4D1C28FEF80936E
S11352901101CFC20E94F219CCC241E0D42EEE24F7
S11352A0FF2402EA13E090916C0A8D2D892371F09A
S11352B0F80160817181118210828D2D809598236F
S11352C090936C0A43E08E2D0E9483180894E11C8D
S11352D0F11C0E5F1F4FF8E0EF16F10409F4A9C2A8
S11352E0DD0CE1CF80911401E82FFF27EE0FFF1FA3
S11352F0EE55FC4F6081718141E00E94991999C279
S113530080912D02882309F094C2EE24FF242FEF0C
S1135310C22ED22E9FEF892E992EAA24BB2443C0DD
S1135320022F112783E0000F111F8A95E1F7005522
S11353301D4FF80122813381FFEF2F3F3F0781F199
S11353408091A5059091A6052817390749F1F80120
S1135350808191810E943A023C01F8016481758147
S1135360AC01460F571F20813181809171089091C3
S11353707208A7812817390741F470937408609361
S11353807308A09376084A010BC0AA2349F4F2E3F8
S11353906F16710428F44C155D0510F478016A0148
S11353A00894A11CB11C2A2D80917802A81608F437
S11353B0B7CF2FEFC2162FEFD20609F485C03FEF07
S11353C083163FEF930691F080917608882341F08D
S11353D080917308909174080A96C816D90630F023
S11353E0C6010F968815990508F06EC08091630A6E
S11353F09091640AA091650AB091660A0196A11D74
S1135400B11D8093630A9093640AA093650AB093D4
S1135410660AF701208131818091600185FF11C006
S113542030931D0120931C0180911A0190911B015E
S11354302817390721F081E08093620102C010929D
S1135440620180917108909172080E9422028F3F3C
S113545081F0282F33278BE090E0289FF001299FCB
S1135460F00D389FF00D1124E355FC4F8581877FA3
S11354708583F701808191810E945302F701808125
S113548091810E9422028F3F41F0EBE08E9FF00158
S11354901124E355FC4F12861186F7018081918116
S11354A09093720880937108848195819093740815
S11354B080937308878180937608C4018C199D09B1
S11354C0459710F00E94F21F80915F01882361F4D8
S11354D0FFEF8F16FFEF9F0639F42FEFC2162FEF61
S11354E0D20611F00E947B0110925F01A2C180914B
S11354F05E01882309F09DC1E0915303F0915403A8
S113550010828091710890917208E0915303F09198
S113551054038283892F9927818380912D028823C4
S113552029F0809173089091740820C080917108CB
S11355309091720800917308109174083FEF8F3FA7
S1135540930781F4E0915303F09154030483812F72
S113555099278383E0915303F091540380818068F9
S113556080830CC00E943A02800F911FE091530384
S1135570F09154038483892F99278383E2E1CE2E0B
S1135580E3E0DE2E68E0C6010C970E94600375E03C
S1135590E72EF12CE80EF91E40E0882400E010E02C
S11355A06BE0A62EB12C53E0952E80915B019927D8
S11355B00196800F911F6AE070E00E9436329C01D0
S11355C099278A9DD0018B9DB00D9A9DB00D112411
S11355D0A355BC4FFD018581992780FF15C081FF2C
S11355E013C08D919C911197499DB00111246E0DAA
S11355F07F1DFB018183892F99278083FD0186818B
S1135600FB0182834F5F822E0930110521F00F5F69
S11356101F4F473050F280925B0180915A018F5F97
S113562080935A018150F6018183842F8F70809377
S113563012038FEF80930C0380930D0380E7809314
S1135640110383E0489FC0011124895F482F552727
S113565066E073E081E00E94E90F9927882309F44A
S1135660D8C0843009F0E5C010925C01E2C0892FF3
S11356709927FC01A3E0EE0FFF1FAA95E1F7E81BB1
S1135680F90BE654FA4F868186958683882331F593
S1135690808191810E948700482F8091770A481762
S11356A0E9F081508093770A582F16C0242F3327AE
S11356B0C90173E0880F991F7A95E1F7821B930B58
S11356C0DC01A654BA4FFC01EF53FA4F87E0019076
S11356D00D928150E1F74F5F451740F30F5F1F4F65
S11356E0902F8091770A081710F2A3C040916001AF
S11356F043FD9FC0209166033327322F22278091D8
S1135700650399278062282B392B20936503232F67
S1135710332720936603446040936001E091420282
S1135720F0914302108220916D0A80916E0890914D
S11357306F08820F911DE0914202F091430284832D
S1135740892F9927838345E064E673E080911A01E9
S113575090911B010E9434109927882309F45DC09D
S1135760843009F066C038C00E94401062C0809145
S11357706101882309F05DC080916C0890916D08E7
S1135780E0912602F09127028183892F9927808353
S11357908091630190916401E0912602F0912702C7
S11357A08383892F9927828380911C0190911D0105
S11357B080935F05892F99278093600581EF8093FB
S11357C0640544E069E575E083E00E94E90F9927E8
S11357D0882349F1843069F5809160018D7F20C070
S11357E0F6018385813709F000CDF8CCFA94EE20D8
S11357F009F472CA42CA65E0C6010E94600307C088
S1135800C6010E947808682FC6010E9460037C01CB
S113581032C981E080935E010CC080916001886090
S11358208093600106C081E08093610102C00E9400
S1135830D619AA960FB6F894DEBF0FBECDBFDF917E
S1135840CF911F910F91FF90EF90DF90CF90BF9079
S1135850AF909F908F907F906F905F904F903F900C
S113586008958091600A8F3FB1F0282F3327F90102
S1135870E458FD4F80818093600A8F3F11F4809338
S11358807B0A8FEF80832F3F31F0822F0E942A21E1
S113589081E090E0089580E090E008951F93CF9315
S11358A0DF93CDB7DEB7E0970FB6F894DEBF0FBE37
S11358B0CDBF1FB7F89447E150E06FEF70E08CE77D
S11358C092E00E94AF328FEF8093600A80937B0A4C
S11358D081E08EBD88E080BF83E083BF8CB59DB539
S11358E04AE72CB53DB52817390708F4415044233D
S11358F011F0C901F6CF92B782B78917E9F32CB535
S11359003DB592B782B78917E9F38CB59DB5821B73
S1135910930B409625E0969587952A95E1F7909309
S1135920620A8093610A13BE83B78EBD8EB580BFB1
S113593012BE1DBC1CBC8FEF86BF86B780937C0053
S113594080B7992787709070892BD1F7D29AD19A12
S1135950D09ADA9AD99AD89A15BA8FEF84BBD49888
S1135960DC981DBC1CBC87B7846087BF8EB5887F5C
S113597084608EBD0E94312C8823E1F710929E032F
S113598010922C02EDE7FAE089E295E0819391937D
S113599004962AE0E539F207C9F78CE080939A036C
S11359A010926E0AEDE8F5E08EED95E08193919307
S11359B0C49625E0E53AF207C9F78CE080939B038F
S11359C010924A0310925C0110925D011092630AD6
S11359D01092640A1092650A1092660A10922D02BF
S11359E08FEF9FEF90937208809371081092740860
S11359F0109273081092750810927608109278022B
S1135A006AE186E093E00E946003909354038093DC
S1135A1053038CE393E09093740A8093730A8BE9A5
S1135A2094E090935D0380935C0310924102809113
S1135A30600180618093600110926D0A1092770A70
S1135A4080E793E0909343028093420285E695E0D9
S1135A509093270280932602E2EBF3E010823B96B8
S1135A6084E0E032F807D1F78FEF8093AF02EEE2E3
S1135A70F2E08FEF9FEF918380831282339622E0CE
S1135A80EA33F207C1F70E946D0260934F088091D8
S1135A900001909101010196AA27BB278093450339
S1135AA090934603A0934703B093480380B788605C
S1135AB080BF8BE083BF86EE81BF87B7826087BFDC
S1135AC00E9450068BE29AE090936E0180936D01E0
S1135AD08E98B89A8C988FEF809355031092AC05EA
S1135AE01092AD051092AE051092AF05B89AD69AF1
S1135AF0D59A8FB7F894992720910E0130910F0110
S1135B008FBF30935B0320935A030E94DD0829A7BB
S1135B103AA74BA75CA76DA77EA78FA798ABDE011A
S1135B209196FE01B99688E001900D928150E1F7BB
S1135B30DE015196FE01B19688E001900D928150EC
S1135B40E1F7DE015996FE01719688E001900D920D
S1135B508150E1F7A2EBB5E0FE01799688E001906F
S1135B600D928150E1F780911001992790933B03A6
S1135B7080933A038FE18093A7058AE18093DD0542
S1135B800E94DD0829A73AA74BA75CA76DA77EA7AB
S1135B908FA798ABDE019196FE01B99688E001903B
S1135BA00D928150E1F7DE011196FE01B19688E075
S1135BB001900D928150E1F7DE011996FE013196B4
S1135BC088E001900D928150E1F7A2EBB5E0FE016F
S1135BD0399688E001900D928150E1F7A2EBB5E08F
S1135BE0FD0137969C9180818D939083319785E058
S1135BF0E53BF807B9F781E08093AC021092720A92
S1135C00809341031092B1050E94312C8823E1F75F
S1135C10812F99278FBF789464E084E492E00E94F6
S1135C20880490937A02809379020E948D0BEBE7AB
S1135C30F8E011921192119211922AE0EB30F207DE
S1135C40C1F78FB7F894482F55274BC087B79927CA
S1135C5083709070892B19F4E5E0F0E013C080B7ED
S1135C60992787709070892BD1F781B792B7891BD8
S1135C708C3030F082B7853F18F4E3E0F0E002C0E6
S1135C80E2E0F0E087B7887BC1F480917D008B7FF0
S1135C90A1F46E9912C08AB190919A00892B8871EF
S1135CA061F48091740082FD08C0379B03C081E0D9
S1135CB090E005C085E090E002C080E090E025B768
S1135CC08E1708F4E82FFF27E654FF4FE491237E54
S1135CD02062E22BE5BF78948895F89485B78F7D90
S1135CE085BF8091600A8F3F09F4B0CF282F3327F6
