:100000000C9469000C9488000C9488000C9488006F
:100010000C9488000C9488000C9488000C94880040
:100020000C9488000C9488000C9488000C94880030
:100030000C9488000C9468230C9488000C94AE23D4
:100040000C94C6240C947A240C94B0240C94BB24F5
:100050000C94FF240C9488000C9488000C94880065
:100060000C94D6230C9488000C9488000C9488007F
:100070000C9488000C9488000C9488000C948800E0
:100080000C9488000C9488000C9488000C948800D0
:100090000C9488000C9488000C9488000C948800C0
:1000A0000C9488000C9488000C9488000C948800B0
:1000B0000C9488000C9488000C9488000C948800A0
:1000C0000C9488000C9488000C94880000020E06A2
:1000D0000C0411241FBECFEFD1E2DEBFCDBF12E072
:1000E000A0E0B2E0E4E5F0E500E00BBF02C007905D
:1000F0000D92A633B107D9F719E0A6E3B2E001C02B
:100100001D92AC34B107E1F70E942D210C942828F0
:100110000C940000169A08952F980895289A08952F
:10012000209A0895EFE6F0E080818F7D8083089526
:10013000FC01218130E0908180E0282B392BC9011E
:100140000895FC01668377830895635FFC016083F3
:100150000895FC01918180E0208130E0282B392B2B
:10016000C901089506960E94A900089501960E946B
:10017000A9009C0127743C7C81E098E82134390770
:1001800009F080E008959FB7F894809190028F5F06
:10019000809390029FBF08950DB407FEFDCF8EB5EA
:1001A0000895982F0DB407FEFDCF8EB59EBD08951E
:1001B00028980895DF93CF930F92CDB7DEB7898348
:1001C0000E94D800898180688EBD80E00E94D100A5
:1001D0000E94CC0089830E948E0089810F90CF916C
:1001E000DF910895FB0121E030E002C0220F331FB0
:1001F0008A95E2F7209584A5822384A708951F930A
:10020000DF93CF930F92CDB7DEB7182F69830E948B
:10021000D800106C1EBD89810E94D1000E94CC00C4
:100220000E948E000F90CF91DF911F9108952F9A19
:10023000089580936A0381E0809361052091840092
:1002400030918500EFB7F8948091840090918500FB
:100250000396AC01421B530B4617570718F4CB010A
:10026000820F931F009711F481E090E00197909323
:1002700089008093880082E086BB80916F00826055
:1002800080936F00EFBF0895EFE6F0E080818D7FEF
:100290008083089501960E94A9009C012770307008
:1002A00081E02230310509F080E008959C01262785
:1002B000022E2295207F2025032E322F22952F708B
:1002C0000226269532272327220F220F220F2025D0
:1002D000C90108956FB7F89420917B0430917C0494
:1002E00040917D0450917E0480918400909185001E
:1002F00076B370FF08C02F5F3F4F4F4F5F4F809125
:100300008400909185006FBFA90133272227A0E0C8
:10031000B0E0282B392B4A2B5B2BB901CA01089579
:10032000362F272FFC014383528361837083BA01E8
:10033000832F922F089512980895FC0180818D508B
:10034000089590914402982B9093440208958095CB
:100350009091440298239093440208950F931F9321
:10036000CF93DF938C01EC012196CE010E94A9006E
:100370008062F8018183998380E090E0DF91CF91E2
:100380001F910F91089540919B034C30B8F4209138
:100390005B0830E0240F311D2C30310510F02C505B
:1003A0003040F901EE0FFF1FE15DF64F918380832E
:1003B0004F5F40939B0320E030E002C021E030E03B
:1003C000C901089540919C034C30B8F420915F031B
:1003D00030E0240F311D2C30310510F02C5030400E
:1003E000F901EE0FFF1FE456FA4F918380834F5FB0
:1003F00040939C0320E030E002C021E030E0C901DE
:10040000089530914502E32FF0E0EE0FFF1FE55114
:10041000F84F8081918120914702222351F03F5F64
:10042000309345023E3011F4109245022150209342
:1004300047020895009721F0019701960197E1F78F
:100440000895882319F08CB5806402C08CB58F7B29
:100450008CBD08959091B60093FDFCCF8093B300BE
:1004600008952FB7F89480912402909125022FBF10
:100470000895209147022E30C0F430914602E32FB8
:10048000F0E0EE0FFF1FE551F84F91838083832F3B
:100490008F5F809346028E3011F4109246022F5FD8
:1004A0002093470220E030E002C021E030E0C901A3
:1004B000089508960E94A90008959FB7F89482B104
:1004C00022E0822782B99FBF0895809152088F3F12
:1004D00089F0282F30E0F901E459FD4F9081909385
:1004E00052089F3F11F490932C0924593D4F9FEFE0
:1004F000F901908308958091B0008093B0008091BD
:10050000B60081FDFCCF0895882319F08CB5806872
:1005100002C08CB58F778CBD08959C01EFE7F4E0A5
:1005200080E0958190FF05C04081518142175307BB
:1005300029F08F5F3B968A30A1F78FEF08950E94D4
:100540008D028F3F91F090E02BE030E0829FF00130
:10055000839FF00D929FF00D1124E158FB4F858190
:1005600081FF03C02781308502C02FEF3FEFC90113
:1005700008950E948D028F3F91F090E02BE030E0D3
:10058000829FF001839FF00D929FF00D1124E1589E
:10059000FB4F85818860858320E030E002C021E048
:1005A00030E0C90108955F926F927F928F929F927F
:1005B000AF92BF92CF92DF92EF92FF920F931F9371
:1005C0005FB6F894A0905A03B0905B03C0905C03B0
:1005D000D0905D039501A60160E070E080E090E0BE
:1005E000FEE4AF2EE3E8BE2ECC24DD24EE24FF246F
:1005F00000E010E00E942A2539014A0100E20E9431
:10060000F42559016A01A401930156954795379540
:1006100027952A0D3B1D4C1D5D1D57FF05C05F77BB
:100620002F5F3F4F4F4F5F4F20935A0330935B0331
:1006300040935C0350935D035FBEB901CA011F91F3
:100640000F91FF90EF90DF90CF90BF90AF909F9071
:100650008F907F906F905F9008959FB7F894E82FE8
:10066000F0E0E459FD4F20812F3F49F421E030E0D4
:1006700040912C09481729F020E030E002C021E029
:1006800030E02115310591F4209152082F3F19F4E3
:100690008093520806C0E0912C09F0E0E459FD4F28
:1006A000808380932C0920E030E002C025E030E018
:1006B0009FBFC901089590936108809360080097D7
:1006C00011F484E001C081E08093200382E00E9465
:1006D0002D03089580912003823031F481E08093CE
:1006E000200382E00E942D0308958DE00E942D03D7
:1006F00008958AE00E942D0308951F931FB7F89470
:1007000080914202823059F580912902882339F57F
:10071000209127022F3FE9F08FEF80932902822F4B
:1007200090E0FC01EB56FD4F3081309327023F3FB4
:1007300011F4309328028B569D4F3FEFFC0130831C
:100740002093920281E08093420280E00E942D0378
:1007500004C0209329021092420281E001C080E08F
:100760001FBF21E030E0813011F420E030E0C9010A
:100770001F910895EF92FF921F93CF93DF931FB7BE
:10078000F89480914302823059F580912C0288239D
:1007900039F520912A022F3FE9F08FEF80932C0248
:1007A000822F90E0FC01EA59FC4F308130932A02FD
:1007B0003F3F11F430932B028A599C4F3FEFFC01CD
:1007C00030832093670381E08093430289E00E9495
:1007D0002D0304C020932C021092430281E001C03B
:1007E00080E01FBFC1E0D0E0813011F4C0E0D0E074
:1007F0001FB7F89480914302882311F40E942102CC
:100800001FBFCE01DF91CF911F91FF90EF90089510
:100810008FB7F8949091B20067B320916502309140
:100820006602409167025091680261FF0CC06091BE
:10083000B3009091B2002F5F3F4F4F4F5F4F260F95
:10084000311D411D511D290F311D411D511D8FBFEE
:10085000B901CA010895DF92EF92FF920F931F939F
:10086000D82E7A018B010E9408044D2D50E09A0188
:10087000A3E0220F331FAA95E1F7240F351FF901DA
:10088000E351FB4F6083718382839383E482F5821B
:1008900006831783F901EB50FB4F808183608083CF
:1008A00086E00E942D031F910F91FF90EF90DF9043
:1008B0000895EF92FF920F931F9380912F029091D2
:1008C0003002A0913102B0913202B695A79597956A
:1008D000879580931A0390931B03A0931C03B093F6
:1008E0001D030E94D302E0901A03F0901B030091B5
:1008F0001C0310911D03A80197010E94C827AB019A
:10090000BC014E0D5F1D601F711F40931A03509371
:100910001B0360931C0370931D0310920D0880E06D
:100920000E942B041F910F91FF90EF90089580E893
:1009300090E0A0E0B0E080932F0290933002A0936B
:100940003102B09332020E94590408956E5F6D31F6
:1009500040F49C01245F3F4F31F09C01225F3F4FE8
:1009600002C020E030E0C90108951F9380E00E949A
:1009700021021FB7F894229A2398219A0E9490008E
:100980008CB580618CBD80E00E9484028CB5877F2D
:100990008CBD8CB58B7F8CBD81E00E9421028DB512
:1009A00081608DBD8CB58C7F8CBD1FBF1F9108955C
:1009B0001F931FB7F89480914302882311F40E947B
:1009C000B5041FBF1FB7F89480914302882361F4D8
:1009D00081E0809343021092670389E00E942D0317
:1009E0001FBF20E030E026C0809166038F3F49F4AE
:1009F00081E090E020912B02222329F080E090E01A
:100A000002C081E090E0009791F480912A028F3F2C
:100A100019F410922A0206C0E0912B02F0E0EA5984
:100A2000FC4F108210922B0220E030E002C025E043
:100A300030E01FBFC9011F9108958FB7F8949091BE
:100A40002C02992331F490914302923011F48FBF1C
:100A500013C08FBF8FB7F89490914302992371F41C
:100A600092E09093430210922C028FBF0E94B50433
:100A70000E9490000E948E0081E008958FBF0E9426
:100A8000D80480E00895FB0121E030E002C0220F8D
:100A9000331F8A95E2F784A5822B84A708950196D7
:100AA0000E94A90091E085FF90E0892F0895CF93DF
:100AB000DF93EC010E944F058823A9F0CE010E942C
:100AC000B600882381F0CE010E94B200AC018FB73E
:100AD000F89420912402309125028FBF81E090E0AC
:100AE0004217530711F080E090E0DF91CF91089515
:100AF0002F923F924F925F926F927F928F929F922E
:100B0000AF92BF92CF92DF92EF92FF920F931F931B
:100B1000CF93DF936C0180914F02882309F0F5C0D9
:100B20008091F508853009F0F0C00E941D058823EA
:100B300009F4EBC080910E08882309F0E6C0F601A5
:100B400084A582FF03C066A56F7001C060E080913C
:100B50009A03681731F060939A03606885E00E94F9
:100B6000FF00C6010E94B6008823B1F086E00E9413
:100B7000DA0090E08F7190704091150320915E0330
:100B800030E0240F311D73E0359527957A95E1F714
:100B9000281739070CF4B9C082E069E00E94FF0011
:100BA0000E946A014B015C0176010894E11CF11C72
:100BB000F601008194A5802F825094FF08C06BEF4E
:100BC000262E200E2C0C2E18682E621802C0282EFD
:100BD000662481E00E94DA008F71893029F082E07A
:100BE00066E00E94FF0091C07FB6F8940E94170152
:100BF00040908400509085007FBE0E948C000E942F
:100C0000D80080E68EBD802F0E94D100722C870113
:100C1000F80181918F010E94D1007A94C9F72A943A
:100C2000C22DD0E02196CE0DDF1D52EAE52EF12C2B
:100C30004E0C5F1C48185908C2011C01442437FCA3
:100C40004094542C280C391C4A1C5B1C662009F467
:100C500042C0FE018C2EBF2EEB80FF2400E010E08E
:100C6000888190E0A0E0B0E0B82FAA2799278827D4
:100C7000E82AF92A0A2B1B2B898190E0A0E0B0E03A
:100C8000DC0199278827E82AF92A0A2B1B2B8A815D
:100C900090E0A0E0B0E0BA2FA92F982F8827E82A8B
:100CA000F92A0A2B1B2BB801A70142195309640921
:100CB0007509CE010E949001FE01E70DF11D8081B2
:100CC0000E94D10073947614B9F7882D9B2DB8013A
:100CD000A7010E9490010E94CC000E948E0082E039
:100CE00066E00E94FF0081E0B6010E944305F60124
:100CF00020A631A642A653A686E08093F50884E09C
:100D000080934F0220E030E002C025E030E0C901CE
:100D1000DF91CF911F910F91FF90EF90DF90CF90D7
:100D2000BF90AF909F908F907F906F905F904F900B
:100D30003F902F900895BC0181E00E941901089511
:100D40000F931F93CF93DF938C012FB7F894C0912B
:100D50009805D0919905CE018F5E9E4F909399058D
:100D6000809398052FBF84E00E942D03CE01B80127
:100D70000E94A1279C012A5D3E4FC901DF91CF91BE
:100D80001F910F9108958FB7F89490919002992335
:100D900029F09068909390028FBF089591E090930E
:100DA00090028FBF0E94D50608952F923F924F92D6
:100DB0005F926F927F928F929F92AF92BF92CF92EB
:100DC000DF92EF92FF920F931F93CF93DF9315E083
:100DD000D12EB8E0CB2EA4E0AA2EF0E23F2EE0E820
:100DE0002E2E7EE9472E73E0572E80910E08882321
:100DF00009F4C9C00E941D05882309F4C4C08FB737
:100E0000F89460906003709061038FBF10920E0899
:100E10008FE00E94DA0090914F02933011F09730EA
:100E200021F4D092F508C0924F02B82E82FF57C02D
:100E300090914F02963011F410924F0290914F0210
:100E4000992309F04CC08430D1F586E00E94DA0085
:100E5000082F0F7180911503982F96959695891BF1
:100E6000800F80931503C0915E02D0915F0282E0F3
:100E7000BE010E94F20083E0BE010E9443050EA75E
:100E80000E946A017B018C0129EF3FEF620E731E05
:100E9000661A770A882477FC8094982CC0915E02A9
:100EA000D0915F0281E0BE010E944305E60CF71C71
:100EB000081D191DE8A6F9A60AA71BA70EC0609178
:100EC0005E0270915F0283E00E94F20060915E0218
:100ED00070915F0281E00E94F200D0924F02B3FE57
:100EE00052C080914F028430E1F5D092F508109203
:100EF0004F0280916202833019F41092620243C063
:100F0000C0912D09D0912E09CE010E944F05882352
:100F100071F0CE010E94B600882349F0CE010E94F4
:100F2000B20021E030E04FEF8F3F940711F420E052
:100F300030E0222369F080916105882349F482E042
:100F400069E973E00E94190182E0809362021BC08C
:100F5000109262021092210380E090E00E945B03F5
:100F600012C0853081F486E00E94DA0090915E0321
:100F7000292F26952695921B8F71980F90935E03CB
:100F800059E050934F0280914F02882309F456C2D2
:100F9000893009F0CDC10E94D8003EBC0DB407FED7
:100FA000FDCF8EB51EBC0DB407FEFDCF2EB5233090
:100FB00008F473C0822F90E08A3291050CF06DC066
:100FC0001EBCE0915E02F0915F027F010894E11C7B
:100FD000F11C20836EEF662E620E862D873018F08E
:100FE00057E0B52E01C0B62CE7019B2C00E010E0C5
:100FF00080E00E94D100682F8993C8010E945601A9
:101000008C019A94A9F78B2D8150C82FD0E021969E
:10101000CE0DDF1D80915E0290915F020E944A0119
:10102000882329F0809162028230A9F50BC09FB716
:10103000F89481E020910708233008F080E09FBFFA
:10104000882349F16B180AC080E00E94D100682F04
:101050008993C8010E9456018C016A946620A1F709
:1010600080E00E94D100682FC8010E945601EC0167
:1010700080E00E94D100682FCE010E945601EC0151
:1010800000915E0210915F020E94CC00D8019D96F3
:101090008C939D9704C00E94CC00C1E0D0E00E94D8
:1010A0008E00D092F50810924F02209709F0BDC132
:1010B000C0915E02D0915F02CE010E944A019091E0
:1010C0006202882399F1923009F02DC1CE01019678
:1010D000E0912D09F0912E09DC0112963C911297B6
:1010E0002381321751F40E94A9009C0127703070AF
:1010F00081E090E02230310511F080E090E088231B
:1011000009F411C10E9444011092610560912D09FA
:1011100070912E0980E00E944305109262021092A5
:10112000210380E090E00E945B03FDC09923B9F4A5
:10113000CE010E945705882391F0D0929D0382E052
:1011400080939E03F20111828B8182838DE993E06B
:101150000E947805009719F483E080936202009161
:10116000840010918500CE010E945705882311F05C
:10117000045E1C4F109372040093710480918400EC
:10118000909185007801E81AF90AC7011816190626
:1011900084F420912103222349F420916105222324
:1011A00041F40E949B062092210303C020682093F3
:1011B00021038E010F5F1F4FCE0108960E94A900E8
:1011C00060916B02262F30E0F901EE0FFF1FEC5B00
:1011D000F74F40815181E09062054817590769F443
:1011E000F901E95DF64F80818E1509F464C0E3943E
:1011F000E0926205E08270E847C0A4E4B8E0E7E26C
:10120000F9E020E030E0BB2470E0622F4D915D9169
:101210004817590791F420936B0240916205F90138
:10122000E95DF64F2081241709F445C0242F2F5F74
:1012300020936205208370E80DC041912F5F3F4FDE
:10124000FE2CF41A7F1510F4B62E7F2D622F253058
:101250003105D9F66530C1F4B0926B022B2D30E028
:10126000F901EE0FFF1FEC5BF74F918380838091B4
:1012700062058F5F80936205F901E95DF64F808317
:10128000295B364FD9011C9280916205982F9F7778
:101290009F3779F47F3768F0E7E2F9E0282F20786C
:1012A00090819F67981320833196B9E0EC32FB0759
:1012B000B9F760916B02F801828170E0FB01E95B94
:1012C000F64F908190FF07C0FB01E85FF74F9081D8
:1012D000891719F428C091609083685F774FDB010C
:1012E0008C930FB7F894809107088330D8F4E0917D
:1012F0005908E80FE33008F0E350F0E0EE0FFF1F6D
:10130000EC5AFD4FB080E180D183C0838F5F809322
:10131000070883E00E942D038E2DEB2DEF017E0147
:10132000F82EE7010FBFD0935F02C0935E027DC02D
:10133000982F9150933008F063C091509230A0F5EF
:101340009091F508913069F420916105222349F4C8
:101350000E948C0083E06BE273E00E94190182E03E
:1013600039C0833009F59330F9F40E941D058823B4
:10137000D9F08FE00E94DA00809181008064809330
:10138000810036BA80916F00806280936F00609117
:101390009102606688E00E94FF0082E066E00E94A1
:1013A000FF00A092F50818C080914F028150823052
:1013B00098F48091F508853079F40E941D05882302
:1013C00059F082E063E00E94FF000E9492001092B8
:1013D0000E0883E08093F50800914F02013049F434
:1013E0008091F508833009F50E9417010093F508F4
:1013F0001AC00230D1F48091F5088330B1F413C0E3
:10140000873099F40E941D05882379F0609191023C
:10141000606688E00E94FF008091F508853019F42D
:10142000A092F50802C0C0924F0280914F0288300E
:1014300029F410924F0281E00E942D0380914F0207
:101440008823B1F48091F508853091F480910E08DD
:10145000882371F480916202882351F480912103E2
:10146000882331F480916105882311F40E946A0376
:1014700080914F02882319F487E00E942D03809108
:101480006105823009F080C01092610580916A0385
:10149000823009F45EC0833009F464C0813009F001
:1014A00073C0009171041091720480918400909136
:1014B000850020912103203829F4109221030E94F5
:1014C0006A0362C0081B190B27FF03C01016110620
:1014D000E4F0C0911E03D0911F0380916202882323
:1014E000A1F4CE010E947805009791F480E0BE013E
:1014F0000E94F20081E080936202D0932E09C09393
:101500002D0983E0809321033FC0C5E0D0E001C0F6
:10151000EC0180912103982F9F77913059F48078C6
:1015200082608093210380E198E00E94A0060E94DF
:101530009B062AC087FF09C01016110634F42092BA
:101540002103C8010E949B0602C010922103CE0114
:1015500006C0109262021092210380E090E00E9487
:101560005B0312C09091F508923019F48093F5084E
:1015700009C080914F02863029F410924F0281E019
:101580000E94DA000E94C3068FB7F89490919002EF
:101590009130B1F4109290028FBFDF91CF911F91E3
:1015A0000F91FF90EF90DF90CF90BF90AF909F9002
:1015B0008F907F906F905F904F903F902F90089505
:1015C00091E0909390028FBF10CC9FB7F8948091D8
:1015D0009002815080939002803811F09FBF08954F
:1015E00081E0809390029FBF0E94D5060895EF92FC
:1015F000FF92CF93DF93EC018FE38A8780914E02B5
:101600008F5F80934E028B830E94C30080912003E2
:10161000882379F4D0939705C093960581E0809351
:1016200020031092650582E00E942D03C0E0D0E007
:1016300002C0C5E0D0E00E94E50ACE01DF91CF9163
:10164000FF90EF900895CF92DF92EF92FF920F9369
:101650001F93CF93DF93D82E8B01EA01C22E2D3139
:1016600008F07DC0CA010E94B600882371F47E0193
:101670000894E11CF11CC7010E94A90080739070BE
:10168000816498688983F7019183CE016C2D0E9453
:10169000A5000E943102888799879FB7F8948091AE
:1016A00026029FBF8C831D82DB86CE01B8010E947B
:1016B000A1008FB7F89490914202992371F492E0BF
:1016C00090934202109229028FBFCE010E94F70A26
:1016D000EC01009709F445C00CC08FBFD093940271
:1016E000C09393020FB7F89480914202882381F44B
:1016F00003C00E947D0335C081E0809342021092B6
:10170000920280E00E942D030FBFC0E0D0E029C00C
:10171000809195028F3F49F481E090E0209128026A
:10172000222329F080E090E002C081E090E0009761
:1017300091F4809127028F3F19F41092270206C07E
:10174000E0912802F0E0EB56FD4F10821092280243
:10175000C0E0D0E002C0C5E0D0E00FBF02C0C6E0EC
:10176000D0E0CE01DF91CF911F910F91FF90EF90CC
:10177000DF90CF900895DF92EF92FF920F931F9327
:10178000CF93DF93E82E8B01F42E843058F5C82FC9
:10179000D0E0CC0FDD1FCD58DB4F288139812115DA
:1017A000310519F579836883CB01642F0E94A50068
:1017B00080912D028430E0F0F801D384C8010E94AA
:1017C000B200BC01E0922D028D2DA8012F2D0E94A8
:1017D000230B009769F024E020932D0219821882D0
:1017E0009C0108C021E030E005C025E030E002C0E7
:1017F00020E030E0C901DF91CF911F910F91FF9060
:10180000EF90DF9008950F931F93CF93DF93EC0138
:101810008B010E94D302CB01BE010E94A127800F41
:10182000911FAC0160E070E082E00E942B04DF9128
:10183000CF911F910F91089540960E9498000895AE
:10184000FF920F931F93CF93DF938C01FF24EC0142
:101850002C9623C0C8010E941C0C2091CC032F0D94
:10186000237030E0F901EE0FFF1FEE0FFF1FE20FB4
:10187000F31FE558FD4F208131818217930761F4F2
:101880009E818281981741F499818481981721F46F
:101890009F818381981729F0F39480915202F81662
:1018A000C8F28F2DDF91CF911F910F91FF90089576
:1018B0000F931F93CF93DF9380912D028F5F8093BF
:1018C0002D02843010F010922D0240912D0250E034
:1018D000242F30E0F901EE0FFF1FED58FB4F808100
:1018E0009181009791F0E42FE695E695E695F0E07A
:1018F000E65AF74F808190E02770307002C09595CE
:1019000087952A95E2F780FF08C04F5F443008F0C2
:1019100040E05F5F5430E1F620C040932D02E0913B
:101920002D02E430E8F4F0E0EE0FFF1FED58FB4F1E
:10193000C081D181CE010E94B2008C01CE010E94F3
:101940009D01282F8B85B801AE010E94230B0097C3
:1019500039F08CE00E942D0303C050932D02DFCF9D
:10196000DF91CF911F910F910895CF93DF93EC01F9
:101970000097E1F080910F08909110082FEF8F3FB2
:101980009207A1F020915302213019F41982188294
:101990000AC00E949F022091110830911208280F5E
:1019A000391F3983288320E030E002C021E030E095
:1019B000C901DF91CF910895685F6D3120F49C01DA
:1019C000245F3F4F02C020E030E02115310511F0C7
:1019D000285F3F4FC9010895EF92FF920F931F9325
:1019E0008091100290911102A0911202B091130205
:1019F000B695A795979587958093160390931703AF
:101A0000A0931803B09319030E94D302E090160329
:101A1000F09017030091180310911903A801970182
:101A20000E94C827AB01BC014E0D5F1D601F711FD6
:101A30004093160350931703609318037093190390
:101A40001092CD0383E00E942B041F910F91FF9011
:101A5000EF90089580910C0290910D02A0E0B0E00B
:101A60008093100290931102A0931202B09313027C
:101A70000E94EC0C10923B0210923A0208952091C1
:101A8000F6083091F708AFECB3E0E0E0F0E01AC000
:101A90004D915C91119718964817590791F4B3E04E
:101AA000EE0FFF1FBA95E1F7E153FC4F228133811E
:101AB0007383628380919A0590919B05821B930B9F
:101AC0001AC03196E217F30718F3F901A3E0EE0FFD
:101AD000FF1FAA95E1F7E153FC4F91838083738345
:101AE00062832F5F3F4F3093F7082093F608809171
:101AF0009A0590919B05860F971F90939B05809365
:101B00009A050E942A0D81E08093CE030895A0914A
:101B1000F608B091F708E3EDF3E020E030E01AC0FA
:101B2000608171818617970790F042815381460F3B
:101B3000571F8417950758F4F90183E0EE0FFF1F34
:101B40008A95E1F7E153FC4F2081318108C02F5F76
:101B50003F4F38962A173B0718F32FEF3FEFC90185
:101B60000895FF920F931F93CF93DF93F82EEB010D
:101B70008091440281FF4FC0453108F04FC0642F6F
:101B8000685FCE010E94A500DE011C9690910002C4
:101B900080910102998B888B80916002982F9F5FC2
:101BA0009093600216968C9316978F2D823030F4A6
:101BB000EF2DF0E0ED5CFD4F808101C080E08B8B6C
:101BC00011961C9211970F2D10E0F801EE0FFF1FD8
:101BD000E151F74F0190F081E02D309711F1D18361
:101BE000C083F2828EE18383CF010E943902009785
:101BF000D9F48091440282FF04C084FD02C00E9497
:101C00007903F801EE0FFF1FE151F74F11821082A7
:101C100020E030E00BC024E030E008C022E030E0FB
:101C200005C025E030E002C021E030E0C901DF91CD
:101C3000CF911F910F91FF900895EF92FF920F9314
:101C40001F938091060290910702A0910802B09123
:101C50000902B695A7959795879580932E05909341
:101C60002F05A0933005B09331050E94D302E09078
:101C70002E05F0902F050091300510913105A80137
:101C800097010E94C827AB01BC014E0D5F1D601F6C
:101C9000711F40932E0550932F056093300570936C
:101CA00031051092B60584E00E942B041F910F911C
:101CB000FF90EF90089585E198E062E00E94DC0CCF
:101CC0002091F6083091F70840919A0550919B05B4
:101CD000240F351FFC012183308380E065E178E02B
:101CE00042E00E94B10D009719F00E949B010895F7
:101CF00081E08093360208954091100250911102C4
:101D00006091120270911302809116039091170353
:101D1000A0911803B0911903481B590B6A0B7B0B58
:101D200081E08093CD0383E00E942B04089580918D
:101D3000100290911102A0911202B0911302880F2B
:101D4000991FAA1FBB1F8093100290931102A093AA
:101D50001202B093130220910E0230910F0240E064
:101D600050E0281739074A075B0788F420931002D0
:101D700030931102409312025093130280913A0261
:101D800090913B02019690933B0280933A020E940D
:101D9000EC0C0895CF92DF92EF92FF920F931F9376
:101DA0001FB7F8942091B3009091B20087B3291720
:101DB00011F081FF02C01FBF70C0809151038823C2
:101DC000D9F10E94080420915A0230915B0240919F
:101DD0005C0250915D02C0905C08D0905D08E0907C
:101DE0005E08F0905F08621B730B840B950B6C15FB
:101DF0007D058E059F0528F01092510396EE01E0B7
:101E00001FC0D701C601820F931FA41FB51F2091C9
:101E10006502309166024091670250916802821B10
:101E2000930BA40BB50B873E9105A105B10520F4DA
:101E3000982F823020F402C096EE01C092E000E0BC
:101E4000E92FE1508091B60083FDFCCF8091B20074
:101E5000E81709F4E92F209165023091660240915C
:101E6000670250916802CA01B9016F5F7F4F8F4FBF
:101E70009F4F6E0F711D811D911D6217730784079F
:101E8000950710F4E22FE0958E2F0E942A021FBFC3
:101E9000002319F085E00E942D031F910F91FF9000
:101EA000EF90DF90CF9008950F9320934E083093DA
:101EB0004F08409350085093510800938F02EFB79A
:101EC000F894F1E0F093510360935A0270935B022F
:101ED00080935C0290935D0220935C0830935D08D0
:101EE00040935E0850935F08EFBF0E94CA0E0F91A7
:101EF000089590E02BE030E0829FF001839FF00D89
:101F0000929FF00D1124E158FB4F71836083128280
:101F10001382148285E085831682108617820895C5
:101F2000AF92BF92CF92DF92EF92FF920F931F93E7
:101F3000CF93DF93162F282F30E04BE050E0249F03
:101F4000F001259FF00D349FF00D1124E158FB4F57
:101F5000958192FF02C09B7F95834BE050E0249FC8
:101F6000E001259FD00D349FD00D1124C158DB4FC7
:101F70009A81412F491B1A839B819F5F9B83442336
:101F800079F09C819150940F9C834B3048F02881CC
:101F90003981B9010E94790F1A8381E08B839AC03D
:101FA0008BE090E0289FF001299FF00D389FF00D05
:101FB0001124E158FB4F5481838190E0850F911DDE
:101FC000833091051CF4433008F484C08BE090E02A
:101FD000289FF001299FF00D389FF00D1124E15842
:101FE000FB4FA080B180CFE7D4E009E07AE0E72E94
:101FF000F12C64ECC62E69E0D62E888199818A1571
:102000009B0509F061C08D8180FF5EC06B811C81E2
:10201000160F81FD1EC070E080E090E02AEF30E0F6
:1020200040E050E00E948227212F30E040E050E065
:102030000E94C827622F2E83222339F0C60170E048
:102040000E94B5276B3F710510F06FEF7FEF788727
:102050006F838D8182608D836B8170E080E090E082
:102060002AEF30E040E050E00E948227212F30E04C
:1020700040E050E00E94C8278E81809FC00111245B
:10208000820F911DB7010E94B5276E831B821C82AF
:10209000662339F0C60170E00E94B5276B3F7105D9
:1020A00010F06FEF7FEF2F813885C90153E0880F63
:1020B000991F5A95E1F7820F931F860F971FB7015B
:1020C0000E94A12778876F832B9684E0CD3ED807A6
:1020D00009F093CFDF91CF911F910F91FF90EF9077
:1020E000DF90CF90BF90AF900895E4E8F4E080E0F7
:1020F000908190FF05C08F5F3B968A30C9F78FEFC4
:102100000895682FE4E8F4E020E030E08FEF90E0FD
:10211000508150FF0BC051FF09C053FD07C04281E1
:1021200053814217530710F09A01892F9F5F3B9606
:102130009A3071F7462F50E02417350708F48FEFD7
:1021400008959C01909161028FEF2F3F380721F095
:10215000E5ECF2E080E009C0892F089540815181CB
:1021600038964217530719F08F5F8917B8F308950F
:10217000CF93DF93EC010E94A1102091610282179E
:10218000C9F021502093610213C0E82FF0E0DF0175
:10219000E3E0AA0FBB1FEA95E1F7FD01AB53BD4F8A
:1021A000E353FD4F98E001900D929150E1F78F5F5E
:1021B000821758F380910F08909110088C179D0793
:1021C00099F48FEF9FEF9093100880930F0810926F
:1021D000120810921108109213081092140881E04E
:1021E00080934D020E947503DF91CF910895CF93A4
:1021F000DF93EC010E949D019C859F70292F220F87
:10220000290F821B8250DF91CF910895DF92EF92C8
:10221000FF920F931F93CF93DF93EC01EA81E2309B
:1022200050F4F0E0EE0FFF1FE151F74FD183C08370
:10223000109236026EC0662309F464C0E880F9800B
:10224000809152028430B9F5C7010E94200C83703E
:1022500049F48091CC0390E0019683709070809354
:10226000CC0326C02091CC0330E0280F311DA901FA
:1022700043705070DA01AA0FBB1FAA0FBB1FA40F37
:10228000B51F2F5F3F4F23703070F901EE0FFF1F16
:10229000EE0FFF1FE20FF31FA558BD4FE558FD4F8E
:1022A00095E001900D929150E1F78F5F8430D0F26C
:1022B00083E080935202D09052020091CC0310E050
:1022C0000D0D111D03701070C7010E941C0CF80148
:1022D000EE0FFF1FEE0FFF1FE00FF11FE558FD4F40
:1022E00091838083D7011C9616968C9116978283D2
:1022F00011968C911197848317968C918383D39434
:10230000D0925202888199810E94E201CE010E94FE
:10231000C301DF91CF911F910F91FF90EF90DF905C
:1023200008950F931F93CF93DF93EC01E091450243
:10233000F0E0EE0FFF1FE551F84F008111816115AC
:10234000710529F08CE190E06CE170E05BC0809158
:10235000440283FF68C08CA580FD65C0CE010E9449
:10236000B2000E948D028F3F09F440C0282F30E058
:102370008BE090E0289FF001299FF00D389FF00D31
:102380001124E158FB4F82858F5F8287853070F181
:102390006185662329F46AE0869FB001112409C093
:1023A0009AE0899FC001112470E00E94B527118630
:1023B00012868BE090E0289FF001299FF00D389F56
:1023C000F00D1124E158FB4F27813085C90153E0FE
:1023D000880F991F5A95E1F7820F931F860F971F59
:1023E0006AE070E00E94A127708767830E947503EE
:1023F000F801838181508383882339F087E090E05E
:1024000067E070E00E94030C67C00E94010280E157
:102410000E94A70187E090E067E070E00E94030C53
:10242000C80160E057C00E94010280E10E94A7013C
:1024300087E090E067E070E00E94030CCE010E940C
:10244000B2000E948D028F3F09F442C0282F30E075
:102450008BE090E0289FF001299FF00D389FF00D50
:102460001124E158FB4F61856F5F618782858F5F23
:102470008287853068F1662329F46AE0869FB0017F
:10248000112409C09AE0899FC001112470E00E94C4
:10249000B527118612868BE090E0289FF001299FD6
:1024A000F00D389FF00D1124E158FB4F2781308546
:1024B000C90143E0880F991F4A95E1F7820F931FE6
:1024C000860F971F6AE070E00E94A12770876783DC
:1024D000C80161E00E940611DF91CF911F910F9119
:1024E0000895CF93DF93EB01BA01813059F0813029
:1024F00028F0823091F0833069F517C0CE010E9438
:10250000911128C083E0C232D80721F580914C0296
:10251000882301F110924C021DC04115510511F0A4
:102520000E949B011092360215C04115510519F009
:102530000E949B0109C040911E0250911F0260E061
:1025400070E085E00E942B0410923602D09364055F
:10255000C0936305DF91CF910895EF92FF920F939F
:102560001F93DF93CF930F92CDB7DEB79C017B0112
:1025700080912D028430A8F4E82FF0E0EE0FFF1FC9
:10258000ED58FB4F008111810217130751F411829E
:10259000108289830E94580C8981B801A7010E948A
:1025A00071120F90CF91DF911F910F91FF90EF90DB
:1025B0000895CF93DF93BC01C8EFD8E0CE010E940D
:1025C000A10081EF8093030982E0BE014AE00E94EE
:1025D000BB0BDF91CF9108950F931F938093050953
:1025E00090930409E6E0F9E061837093060945835E
:1025F00050930A092383309308098FEF87838093D0
:102600000C09C8010E94D912009719F00E949B0181
:1026100003C081E0809336021F910F910895AF921D
:10262000BF92CF92DF92EF92FF920F931F93CF93BF
:10263000DF93EC01162F072FF42EE52ED22EC32E9A
:102640000E94870D409100025091010220912002CA
:102650003091210242175307E9F420912202309170
:10266000230282179307B1F45E01C0930509B0926B
:102670000409E6E0F9E0118300930609F582E0928F
:102680000A09D382C0920809878390930C098FEFBF
:102690009FEF2AC040913E0250913F024C175D07C8
:1026A00030F52091160230911702240F351F2F5F4D
:1026B0003F4FC217D307D8F43FEF8F3F9307B9F1CD
:1026C0005E01C0930509B0920409E6E0F9E01183C8
:1026D00000930609F582E0920A09D382C0920809A4
:1026E0002FEF278320930C090E94D91218C088EF7E
:1026F00098E06AE00E94DC0CFC01CE01C18390836B
:1027000013830283F782E682D582C4828FEF8187AA
:10271000808781E068EF78E04AE00E94B10D009781
:1027200019F00E949B0103C081E080933602DF9183
:10273000CF911F910F91FF90EF90DF90CF90BF90BE
:10274000AF900895CF93DF93BC01C6E9D2E0CE01EC
:102750000E94A10082EF8093A10283E0BE0144E0C9
:102760000E94BB0BDF91CF9108950F931F93CF93DE
:10277000DF9322EA32E050911A0240911B02F901E4
:102780005183408389010E5F1F4F4091F60850919D
:10279000F7080097A1F5C0913C02D0913D0293E06B
:1027A000CC0FDD1F9A95E1F7C153DC4F6A817B8125
:1027B0006F5F7F4FE0911C02F0911D026E9FC00180
:1027C0006F9F900D7E9F900D112460919A057091DE
:1027D0009B05640F751F0E94A127D80111966C9369
:1027E0007093A402C9010E9498009D838C83C80144
:1027F0000E9498009F838E838881998111C0FA017D
:1028000083E0EE0FFF1F8A95E1F7E153FC4F9681BD
:102810008781D80111969C938093A4028081918135
:102820000E94A213009719F00E949B0103C081E04F
:102830008093360286E992E00E94AE01DF91CF914B
:102840001F910F9108950F931F93CF93DF93E09102
:10285000F608F091F708E431F10538F420911802F8
:10286000309119022115310519F48FEF9FEF58C0EF
:1028700023E0EE0FFF1F2A95E1F7E153FC4F918310
:1028800080837383628380911A0290911B029583E7
:10289000848380911C0290911D029783868381E03E
:1028A00090E00E94B5138091F6089091F708019688
:1028B0009093F7088093F60880913C0290913D0236
:1028C000019690933D0280933C02C0911802D091F2
:1028D00019028E0101501040B80180E090E00E9482
:1028E00091262DEC3CEC4CEC5DE30E94F7260E9417
:1028F00065269B0170931D0260931C0280913E022D
:1029000090913F028C0F9D1F821B930B90931B0293
:1029100080931A02021B130B1093190200931802E2
:10292000DF91CF911F910F9108958F929F92AF9257
:10293000BF92CF92DF92EF92FF920F931F93DF939C
:10294000CF9300D0CDB7DEB7D62EC72E803F21F073
:10295000813F09F06BC01FC0862F972F49835A8390
:102960000E9459028C018091390249815A81882341
:1029700051F4CA010E949800BC01C8010E943F0D99
:102980000E945D0253C0CA010E949800BC01C801A8
:102990000E9423144BC02091400230914102211526
:1029A000310539F4209100023091010221303105C6
:1029B000E9F54A0100913E0210913F02CA010E94CE
:1029C00098007C010817190771F4C40104960E944D
:1029D0009800009759F1C40102960E949800B8012E
:1029E00041E050E01FC02091F6083091F708C40183
:1029F00002962115310589F00E9498008C01C401CE
:102A000006960E9498005C01C40104960E949800FA
:102A10009C01C701B801A50107C00E949800B80138
:102A200040E050E020E030E00E940F138D2D9C2DFF
:102A30000F900F90CF91DF911F910F91FF90EF902A
:102A4000DF90CF90BF90AF909F908F9008957F922E
:102A50008F929F92AF92BF92CF92DF92EF92FF92AE
:102A60000F931F93CF93DF934B015C01CDEED4E026
:102A700060E070E0FB0193E0EE0FFF1F9A95E1F735
:102A8000E60FF71F8DEEC82E84E0D82ECE0EDF1E87
:102A9000D60118967C90189771FE7DC28881998125
:102AA000AA81BB81EC80FD800E811F81A50194016C
:102AB000281B390B4A0B5B0B2E153F0540075107AE
:102AC00008F469C270FE06C0EB50FB4F80818D7F19
:102AD000808309C08E0D9F1DA01FB11FF60180834A
:102AE0009183A283B383633009F47DC0643038F4EA
:102AF000613009F465C0623008F06FC00AC065300B
:102B000009F4B8C1653008F4B1C0663009F04AC2B2
:102B10002EC280914A02882309F444C280914B025C
:102B2000882309F43FC280910D088823F1F40E94A4
:102B300075038EE00E942D0340912F0250913002C8
:102B4000609131027091320280911A0390911B03BF
:102B5000A0911C03B0911D03481B590B6A0B7B0B02
:102B600081E080930D0880E0E5C080912F02909174
:102B70003002A0913102B0913202880F991FAA1F32
:102B8000BB1F80932F0290933002A0933102B09329
:102B900032028130F0ED9F07F7E0AF07F0E0BF07AA
:102BA00060F080E090EDA7E0B0E080932F0290937A
:102BB0003002A0933102B09332020E945904F2C154
:102BC00080914A02882309F4EDC180914B02882349
:102BD00009F4E8C10E947503E5C180E10E94A701E4
:102BE0000E947903DFC1809100029091010281303F
:102BF0009105E9F420913A0230913B028091140250
:102C00009091150228173907B8F08091F608909135
:102C1000F708009709F4C6C181E0809339028091DA
:102C200010058D7F809310051092360298C1809117
:102C30003902882309F0B6C18091CD03882399F425
:102C400080913602882361F48091CE03882341F07D
:102C500080915302882321F40E945B0E1092CE03D0
:102C60000E947C0E9FC10E94970E9CC1609137020A
:102C70007091380280910A0290910B0268177907CF
:102C800008F08BC08091B605882309F056C080916A
:102C90000F08909110082FEF8F3F920739F0909313
:102CA00063038093620380E090E002C081E090E0E3
:102CB00040916203509163032091690230916A024E
:102CC0004217530711F40097E9F0809102029091A6
:102CD0000302A0E0B0E08093060290930702A09365
:102CE0000802B09309020E941D0E10923802109241
:102CF0003702809162039091630390936A028093FC
:102D0000690250C140910602509107026091080289
:102D10007091090280912E0590912F05A0913005A8
:102D2000B0913105481B590B6A0B7B0B81E08093F6
:102D3000B60584E00E942B0435C180910602909173
:102D40000702A0910802B0910902880F991FAA1FDB
:102D5000BB1F8093060290930702A0930802B093D2
:102D60000902209104023091050240E050E028174A
:102D700039074A075B0770F4209306023093070275
:102D800040930802509309026F5F7F4F709338029F
:102D9000609337020E941D0E05C183E692E00E94F7
:102DA000B50C809119058D7F80931905C0910C0297
:102DB000D0910D02E0916302F09164023196CE0150
:102DC000880F991F880F991F8C0F9D1FBF010E94AC
:102DD000A1279B012C0F3D1F30930D0220930C0265
:102DE000C0910E02D0910F02CE01880F991F880F5B
:102DF000991F8C0F9D1FBF010E94A1276C0F7D1F83
:102E000070930F0260930E0240E050E02093100296
:102E10003093110240931202509313025695479536
:102E20003795279520931603309317034093180383
:102E3000509319030E94D302E0901603F0901703F9
:102E40000091180310911903A80197010E94C82747
:102E5000AB01BC014E0D5F1D601F711F4093160337
:102E60005093170360931803709319031092CD03C6
:102E700083E060CFE0916305F091640584A580FF55
:102E80006AC0E0913C02F0913D02C091F608D091F9
:102E9000F70820911A0230911B022F5F3F4FDF018C
:102EA00043E0AA0FBB1F4A95E1F7A153BC4F12960E
:102EB0004D915C9113974F5F5F4F60911C02709131
:102EC0001D02469FC001479F900D569F900D1124F3
:102ED00060919A0570919B056C0F7D1F0E94A12740
:102EE000260F371F30931B0220931A023196F0935E
:102EF0003D02E0933C02EC17FD0768F1C091180217
:102F0000D09119027E010894E108F108B70180E030
:102F100090E00E9491262DEC3CEC4CEC5DE30E948D
:102F2000F7260E9465269B0170931D0260931C0288
:102F300080913E0290913F028C0F9D1F821B930B4C
:102F400090931B0280931A02E21AF30AF09219027C
:102F5000E092180227C080913602882329F480E08D
:102F600090E00E94B5131EC00E949B011BC080917F
:102F700000029091010282309105A1F460913E021D
:102F800070913F028BE29FE34BE150E021E030E0A3
:102F90000E940F1307C06F5F7F4F2996673071053E
:102FA00009F068CD86E00E942D03DF91CF911F913B
:102FB0000F91FF90EF90DF90CF90BF90AF909F90D8
:102FC0008F907F9008952F923F924F925F926F92D1
:102FD0007F928F929F92AF92BF92CF92DF92EF92A9
:102FE000FF920F931F93DF93CF9300D00F92CDB733
:102FF000DEB7873009F445C6883098F4833009F489
:1030000026C1843038F4813009F446C0823008F09B
:10301000C7C01FC0853009F452C5863008F078C596
:1030200044C58B3009F4F5C68C3038F4893009F486
:10303000DEC58A3008F02BC6C6C58D3009F428C716
:103040008D3008F40FC78E3011F00C9408210C94C9
:103050002F208FB7F894909192029093290292E0DA
:10306000909342028FBF80912902882311F00C9423
:10307000082180919302909194020E94F70A8C019A
:10308000009711F40C9408210E947D038091930213
:1030900090919402B801D8C090912003109220031F
:1030A000953009F06CC080934A0280914B028823CE
:1030B00011F00E94D30284E00E94A1018091470296
:1030C000882311F00E94790382E00E94A1010E94EE
:1030D00031029093B5058093B40580914B0288230B
:1030E00021F581E080934B020E9497040E9408041E
:1030F0006093F6047093F7048093F8049093F904B6
:1031000080E090E2A0E0B0E08093FA049093FB04AA
:10311000A093FC04B093FD048091FE048E7F826036
:103120008093FE0486E00E942D038091000290911E
:10313000010281309105C9F480910F089091100827
:1031400021E0209353022091B4053091B5053093CE
:10315000100820930F0810921208109211082FEFF8
:103160008F3F920711F40E94790340912E055091F0
:103170002F05609130057091310584E0A8C5963027
:1031800039F410924A0284E00E94A7010C940821AD
:10319000973011F40C940821909320030C9408218B
:1031A0000E94C30080912003813091F580916505D4
:1031B0008F5F80936505863058F5809196059091D4
:1031C0009705209121032223A1F420916105222358
:1031D00081F490931F0380931E0381E08093210369
:1031E0008BED91E10E94A0060E949B0680E090E09A
:1031F00002C085E090E0909361088093600800979A
:1032000011F483E001C082E08093200300E003C05A
:103210001092200301E00E94E50A002311F40C94AF
:1032200008210091960510919705E0906008F090B4
:103230006108D8011A968C911A978F3309F0E8C764
:103240000E947D03C801B7010E94AD12E1C73BE0B7
:10325000232E312C8FB7F89490910708992309F405
:10326000C4C4E0915908F0E0EE0FFF1FEC5AFD4F87
:10327000C080D1808FBFF60182858F3309F0E5C30E
:103280009BE0A92EB12CAC0CBD1C23858601045FEC
:103290001F4FC6012B830E949D01882EC6010E94EC
:1032A000B2007C010E9431022B81E816F90651F030
:1032B00081E090E0FFEFEF16FFEFFF0629F080E0DE
:1032C00090E002C081E090E0009709F4B4C3213798
:1032D00009F48DC1223720F4203709F0CCC307C090
:1032E000213F09F4B9C2223F09F0C5C308C3C60192
:1032F0000E94B2002FEF8F3F920709F0B6C0C601BF
:103300000E9459027C010E948D028F3F11F0D8016A
:1033100019C00E947510982E8F3FC9F0B7010E9406
:10332000790F892D90E0829DF001839DF00D929D93
:10333000F00D1124E158FB4FD80111968C91119793
:103340008283892D11966C910E94900F8EC081E42A
:103350000E948110082F8F3F51F0282F30E0229DCE
:10336000F001239DF00D329DF00D112446C7F601AA
:1033700085A5893C08F479C0C6010E94F710082F82
:10338000C601602F0E94A604D5012C91203709F0B8
:103390006CC0053009F069C08C0101960E9498004C
:1033A000BFEF8F3F9B0709F460C0C80103960E94DE
:1033B0009800009721F14091610250E0A0910F0820
:1033C000B0911008E5ECF2E020E030E000E00FC042
:1033D000608171816A177B0739F001E06481758132
:1033E0008617970708F000E02F5F3F4F38962417A5
:1033F00035071CF4002361F302C00023B1F100E0A3
:1034000020E0822F90E0829DF001839DF00D929D3F
:10341000F00D1124E158FB4F858190E080FF05C03D
:103420008A709070009709F40F5F2F5F2A3049F778
:103430000023D9F00E94D302DC01CB01602F70E0A1
:103440000E94A127E4E8F4E000E010E090819923D5
:1034500031F09A7021F4882309F4C8C681500F5FB7
:103460001F4F3B960A30110589F7C6010E94F710DD
:10347000082FC601602F0E94A604982EA92E0530A1
:1034800009F0F9C2C6010E9459028C01E92CFA2CFC
:10349000C6016AE10E94A6043C01FC01408057017C
:1034A0000894A11CB11CC5010E949800FFEF8F3F3A
:1034B0009F0709F49AC083E0882E912C8E0C9F1CE4
:1034C000C4010E949800009729F5C8010E948D024E
:1034D0008F3FE9F40E9475108F3FB1F48AE00E949B
:1034E0008110E82E8F3F99F0282F30E0229DF001C7
:1034F000239DF00D329DF00D1124E158FB4F80818A
:1035000091810E94B8108E2DB8010E94790FC801D8
:103510000E94B902C5010E9498007C01C4010E946A
:1035200098005C01C8010E949F024C01C8010E94E2
:10353000A1108A3079F1909161028917D1F422E3C8
:103540008216910438F5E82FF0E0B3E0EE0FFF1F8C
:10355000BA95E1F7EB53FD4F11830083F382E282CA
:10356000B582A48231E0368317828F5F8093610237
:1035700011C0E82FF0E0A3E0EE0FFF1FAA95E1F7DE
:10358000EB53FD4F11830083F382E282B582A48264
:1035900081E0868380912E02882339F521E046FE62
:1035A00020E0C8012B830E94A110909161022B8121
:1035B000891750F4E82FF0E073E0EE0FFF1F7A95C3
:1035C000E1F7EB53FD4F278380911408882311F016
:1035D000222349F080910F089091100880179107DD
:1035E00021F4222311F00E947503D30127C267E062
:1035F000A62EB12CA00EB11EF801978061806394B5
:103600006182F82DFD3108F036C2C6010E94200CFF
:1036100090915202891708F42EC2809047028820A8
:10362000A9F1C6010E941C0C2C018A94E09145026C
:10363000E80DEE3008F0EE50F0E0EE0FFF1FE55120
:10364000F84F0190F081E02DE080F180C7010E94E9
:103650001C0C8415950599F4F7013C969681D801C8
:1036600016968C911697981751F48181861539F426
:1036700021E030E09781F5018081981711F020E07A
:1036800030E0222309F0F7C1882079F680915302B7
:10369000882379F0C6010E949D01682F6850C601F9
:1036A0000E94DC0CAC01892DB6010E9495146C01BE
:1036B000E2C1C6010E949D01682F6850C6010E94A8
:1036C000DC0CA82EE92EF92DF03F21F0F13F09F096
:1036D00044C01CC0C6010E9459028C01809139026D
:1036E000882359F48A2D9E2D0E949800BC01C801A0
:1036F0000E943F0D0E945D02BEC18A2D9E2D0E9438
:103700009800BC01C8010E942314B5C1082F192FCD
:10371000A3C02091F6083091F708C8010296211540
:10372000310599F00E9498007C01C80106960E941C
:1037300098004C01C80104960E9498009C01C501A4
:10374000B701A4010E940F1396C10E949800B7010F
:1037500040E050E020E030E0F5CF90919C039923C9
:1037600009F489C120919B03222309F484C180912B
:103770005B08E82FF0E0EE0FFF1FE15DF64FE08001
:10378000F18011821082215020939B038F5F8093E0
:103790005B088C3011F410925B08E114F10409F419
:1037A0006AC180915F03E82FF0E0EE0FFF1FE4563F
:1037B000FA4FA080B18011821082915090939C03A7
:1037C0008F5F80935F038C3011F410925F03A1141C
:1037D000B10409F450C1D5012FE21D922A95E9F7F1
:1037E000C6018896DC0127E01D922A95E9F7D701EA
:1037F0001196DC92CE92EFEF1296EC931297FEE1C7
:103800001396FC93C7010E9439020097F1F4CE0190
:1038100001960E94B50C009789F4C80102960E9497
:10382000980029813A812817390740F00E949704AF
:103830008CE190E06CE170E00E94030C8091070540
:1038400081FD18C10E94790315C1C5010E94E201E2
:10385000C7010E94C3010FC1C80108960E949800C9
:103860007C012FEF8F3F920709F180910002909128
:103870000102E816F906D1F0C8010E9498005C0127
:10388000C80102960E9498004C01C80106960E9449
:1038900098003C01C80104960E9498009C01C50153
:1038A000B401A30187010E94EC12E5C0809140029F
:1038B00090914102009741F48091000290910102A1
:1038C0008130910509F0D7C0E0903E02F0903F02B0
:1038D000C8010E9498005C01E816F90609F019CFAA
:1038E000C80104960E949800009709F4C4C0C8015A
:1038F00002960E949800B70141E050E02BCF8091E2
:10390000400290914102009709F0B5C080910002F9
:10391000909101028130910509F4ADC031E03093FE
:103920003902809110058D7F80931005C8010E9497
:1039300098005C0190933F0280933E020E5F1F4F00
:10394000C8010E94980090931702809316028090FD
:10395000F6089090F7088114910411F1C8010E94B3
:103960009800BC016150704080E090E00E94912678
:103970002DEC3CEC4CEC5DE30E94F7260E946526A2
:103980007B017093190260931802C8010E9498008D
:1039900001978E199F0990931D0280931C0208C005
:1039A000C8010E9498000197909319028093180211
:1039B000E0901802F090190285010E0D1F1DC8013C
:1039C000019690931B0280931A028114910429F0AE
:1039D00080E090E00E94B51320C00894E108F1084F
:1039E000B70180E090E00E9491262DEC3CEC4CEC7D
:1039F0005DE30E94F7260E94652670931D02609386
:103A00001C02061B170B10931B0200931A02E61AE6
:103A1000F70AF0921902E092180281E090E0909388
:103A200041028093400286E044EF51E060E070E0A4
:103A30000E942B0420C02137F1F4D8018C918078AA
:103A40008038C9F40E94970416C0C6010E94B200D3
:103A50004FB7F89420912402309125024FBF82176E
:103A6000930721F0BFEF8F3F9B0729F48FB7F8949E
:103A70008FBF01C065019FB7F89480915908E82F66
:103A8000F0E0EE0FFF1FEC5AFD4FD182C0828F5F36
:103A900080935908833010F01092590880910708DC
:103AA0008150809307089FBFD5CB0E94D3022FB7C8
:103AB000F89470939905609398052FBFA9C38091DE
:103AC0008F02882311F5EFB7F89460915C0870912C
:103AD0005D0880915E0890915F0820915A023091B4
:103AE0005B0240915C0250915D02620F731F841F64
:103AF000951FEFBF20914E0830914F08409150081C
:103B00005091510800E00E94540F0E94080450C0D8
:103B10000E9408049B01AC018FB7F89410925103E6
:103B20008FBFEDEEF4E099249FEFE92E9FEFF92E81
:103B30009FEF092F9FE7192F60E070E0DB0183E022
:103B4000AA0FBB1F8A95E1F7A60FB71FA351BB4F62
:103B500018968C91189781FF1BC080819181A2815A
:103B6000B38159016A01A81AB90ACA0ADB0A848119
:103B70009581A681B7818A199B09AC09BD098E156B
:103B80009F05A007B10724F47C018D01992493942B
:103B90006F5F7F4F39966730710581F6992009F480
:103BA00037C31E141F04100611062CF0CA01B901F8
:103BB0000E9427152DC3CA01B901A801970101E090
:103BC0000E94540F25C38FB7F89410922D051092C0
:103BD0002C051092F4081092F308109251021092E2
:103BE00050021092700410926F048FBF11C38FB7F0
:103BF000F8949091670390932C0292E09093430283
:103C00008FBF80912C02882309F002C30E9490008C
:103C10000E948E008091F5088823B1F58EEF91E027
:103C20000E941A0216980E948C0086E090E00E9482
:103C30001A020E948A0083E060E00E94FF0082E096
:103C400068E00E94FF008EEF91E00E941A028EE071
:103C50006DE40E94FF0089E067EC0E94FF0085E0B0
:103C600060E80E94FF0010929A038BE0809391021B
:103C700088E06BE60E94FF000E94170181E08093BC
:103C8000F5080E94BA03C4C20E94C306C1C2809153
:103C9000440284FDBDC280914702882309F4B8C262
:103CA00080915302882341F480910F08909110086D
:103CB000EFEF8F3F9E0731F0CE0101960E94B50CC9
:103CC000009741F082E040E157E260E070E00E943E
:103CD0002B049EC2E0914502F0E0EE0FFF1FE5517C
:103CE000F84F00811181D801ED90FC90C7010E942E
:103CF0009D01A82EC0900F08D0901008C7010E9407
:103D0000200C90915202891758F40E940102F80188
:103D1000808191810E94E201C8010E94C30176C0A6
:103D200080915302882369F1D7015396CC909091EA
:103D3000680380916903292F382FD901F7018FE299
:103D400001900D928150E1F7E0906803F0906903D3
:103D5000C7010E949D01682F6850C7010E94DC0CBA
:103D6000AC018C2DB7010E94951490936903809348
:103D70006803F8018081918160E070E00E949111F8
:103D800047C299818A81D7011F969C931F971E96DF
:103D90008C93D801ED91FC91119784858F73848762
:103DA0008D919C910E94AE01009719F488E00E94C9
:103DB000A1018091440280FF09C0D801ED91FC91DE
:103DC00084858064848781E00E94A701F801E080F7
:103DD000F180C701B6010E94A10081E7D7011B96BF
:103DE0008C9380E0B7014A2D0E94BB0B009721F411
:103DF00080E10E94A1010CC28230910509F008C245
:103E0000F801808191816CE10E94A5000E947903F4
:103E1000FFC180915A08882309F4FAC103E714E02E
:103E200090E0EE24E39420915A088E2D822391F0A5
:103E3000D8016D917C9111971D921C928E2D8095C9
:103E4000822380935A08892F43E050E09B830E948D
:103E500071129B819F5F0E5F1F4F983009F4D8C18C
:103E6000EE0CE1CF80912D02E82FF0E0EE0FFF1F66
:103E7000ED58FB4F00811181118210828B830E94CB
:103E8000580C8B81B80141E050E00E947112C0C112
:103E900080915302882309F0BBC1AA24AA94BA2CAA
:103EA000EE24EA94FE2CCC24DD24992442C0092D72
:103EB00010E0B3E0000F111FBA95E1F70B531D4F4F
:103EC000F80182819381FFEF8F3F9F0789F1209155
:103ED000B4053091B5058217930751F1D8016D9063
:103EE0007C90C3010E949F02F801648175819C014E
:103EF000260F371F40910F08509110086416750661
:103F000049F4709312086093110887818093140814
:103F100059010EC0D80117964C911797442341F4CC
:103F20008233910528F42E153F0510F468017901BC
:103F3000939480916102981608F4B9CFBFEFEB1605
:103F4000BFEFFB0609F478C0EFEFAE16EFEFBE0649
:103F500091F080911408882341F08091110890918C
:103F600012080A96E816F90630F0C7010F968A156E
:103F70009B0508F061C08091550890915608A0916A
:103F80005708B09158080196A11DB11D809355089E
:103F900090935608A0935708B093580880910F0843
:103FA000909110080E948D028F3F79F090E02BE0F5
:103FB00030E0829FF001839FF00D929FF00D11245D
:103FC000E158FB4F8581877F8583D6018D919C9138
:103FD0000E94B902F601808191810E948D028F3F7B
:103FE00071F090E02BE030E0829FF001839FF00DB4
:103FF000929FF00D1124E158FB4F12861186D601D5
:104000008D919C9111979093100880930F081496AE
:104010008D919C9115979093120880931108179693
:104020008C91179780931408C5018E199F098531CB
:10403000910510F00E94970480914D02882361F44D
:10404000BFEFAB16BFEFBB0639F4EFEFEE16EFEFA5
:10405000FE0611F00E94790310924D02D9C08091A2
:104060004C02882309F0D4C0E0916403F091650309
:10407000108290910F0880911008E0916403F091F4
:1040800065039283818380915302882359F0909134
:10409000110880911208E0916403F0916503948304
:1040A00083832AC080910F089091100800916403C7
:1040B00010916503FFEF8F3F9F0799F490911108CE
:1040C00080911208D80114969C93149713968C93A0
:1040D0001397E0916403F091650380818068808389
:1040E0000BC00E949F022091110830911208280FE6
:1040F000391FF8012483338382E293E068E00E9451
:10410000A604A5E08A2E912C880E991E20E030E0AE
:1041100040E0EE240AE010E0FBE0CF2ED12C8091AD
:10412000490290E00196820F931FB8010E94B527C3
:10413000682F70E06C9DD0016D9DB00D7C9DB00D21
:104140001124A158BB4F15969C91159793709330ED
:10415000C9F46E2D70E0AC9011969C911197AB0153
:10416000440F551F460F571FB401640F751FFB0105
:10417000A182908316969C91DB0112969C931297D4
:10418000E394482F2930310529F02F5F3F4FBE2D92
:10419000B73028F24093490280914802982F9F5FE0
:1041A0009093480280932F038E2D8F7080932E035F
:1041B00082E293E06FEF7FEF0E94A10080E780939F
:1041C0002D034E2D440F4E0D495F81E062E273E0F6
:1041D0000E94BB0B009721F481E080934C0218C031
:1041E00084309105A9F410924A0212C0029DF00198
:1041F000039DF00D129DF00D1124E158FB4F8081BD
:1042000091810E94B810802FB7010E94790F2DC9AB
:104210000F900F900F90CF91DF911F910F91FF9012
:10422000EF90DF90CF90BF90AF909F908F907F9056
:104230006F905F904F903F902F9008950E9465027D
:104240008F3F21F00E94E31781E0089580E00895F8
:104250008FB7F89408958FBF0895EF92FF920F9350
:104260001F93EFB6F89414BE88E10FB6F8948093CC
:104270006000109260000FBE8CE692E06FEF70E07D
:104280004FE050E00E9421288FEF809352088093E6
:104290002C0956985E9854985C980E9492000E944F
:1042A00090000E948E00279A0E948C000E9A0E9415
:1042B0008A008BE693E090935F0280935E021092F7
:1042C0005E038AE58093150381E08093810080E29C
:1042D0008093B60083E08093B10080918400909138
:1042E00085004AE701C0C901209184003091850012
:1042F0002817390708F441504423A9F78091B200E8
:104300009091B2009817E1F32091840030918500DC
:104310008091B2009091B2009817E1F380918400EF
:10432000909185004096821B930B65E0969587954A
:104330006A95E1F790935408809353081092B10066
:104340008091B10080938100809181008093B600BC
:104350001092B20010928500109284008FEF87BBFC
:1043600087B386BB8091B6008571E1F70A9A099AF6
:10437000089A129A119A109A18B88FEF87B90C9868
:104380001498109285001092840080916F008160D3
:1043900080936F0080918100887F8260809381008C
:1043A0000E941E218823E1F71092CC031092520242
:1043B000EFE2F9E080E090E09C01220F331F220F32
:1043C000331F2A593A4F2193319301968C3091052E
:1043D00099F78CE080939B0310925B08ECE9F5E081
:1043E00080E090E04FE250E0849F9001859F300D87
:1043F000949F300D112429543A4F21933193019603
:104400008C30910589F78CE080939C0310925F03B8
:1044100010924A0210924B021092550810925608C0
:104420001092570810925808109253028FEF9FEF86
:104430009093100880930F081092120810921108A0
:1044400010921308109214081092610282E293E015
:104450006AE10E94A604909365038093640382E559
:1044600093E09093F0088093EF0804969093F208FD
:104470008093F10882E395E0909369038093680349
:1044800010926002E4E8F4E010823B9684E0E23FA0
:10449000F807D1F78FEF809366030E94D8048091CC
:1044A000B60080628093B6008091B60081FDFCCF9B
:1044B00082E08093B0008091B60080FDFCCF83E065
:1044C0008093B10086EE0E942A0280917000826083
:1044D000809370000E94CA0E209100023091010268
:1044E000C9010196A0E0B0E080935A0390935B036A
:1044F000A0935C03B0935D0382E698E0909355022D
:10450000809354028F96909357028093560280ECCA
:1045100098E090935902809358028FEF9FEF909309
:1045200045088093440890934708809346089093E9
:1045300049088093480890934B0880934A089093C9
:104540004D0880934C082295207F20934E028FEFD8
:10455000809395020E941E218823E1F7EFBE789494
:104560000E94C300809120038823B9F480914F02F8
:10457000882399F48091F508813029F480916105B0
:10458000882359F402C0853041F083E080934F02C4
:104590000E94C30685E0809320030E94E50A1092E2
:1045A000F7081092F60810929B0510929A058091D8
:1045B000060290910702A0910802B0910902B695F7
:1045C000A7959795879580932E0590932F05A09397
:1045D0003005B09331050E94D302E0902E05F09093
:1045E0002F050091300510913105A80197010E9417
:1045F000C8276E0D7F1D801F911F60932E0570933D
:104600002F0580933005909331051092B60581E017
:104610008093CE03EFB6F89452C080916E008670FE
:10462000E9F480916F008E72C9F4809171008E72EE
:10463000A9F40CB407FC12C08091C100887171F418
:104640008091C900887151F48091BC0082FD06C040
:1046500080917A0087FF04C021E003C020E001C000
:1046600025E08091700090E083709070009781F059
:104670008091B6008A71E1F78091B3009091B20009
:10468000891B8C3038F08091B200853F28F002C041
:10469000E5E003C0E2E001C0E3E083B72E1708F4D1
:1046A000E22FF0E0E453FF4FE491807F81608E2B96
:1046B00083BF78948895F89483B78E7F83BF0E94D8
:1046C00065028F3F09F4A9CFEFBE0E94E317A2CF86
:1046D0001F920F920FB60F920BB60F9211242F93C9
:1046E0003F934F935F936F937F938F939F93AF937A
:1046F000BF93EF93FF930E947B022091B30030E0C1
:104700002F5F3F4F40E050E080916502909166023C
:10471000A0916702B0916802820F931FA41FB51F7A
:104720008093650290936602A0936702B09368023B
:1047300078940E94CA0EFF91EF91BF91AF919F9123
:104740008F917F916F915F914F913F912F910F903A
:104750000BBE0F900FBE0F901F9018951F920F92D7
:104760000FB60F920BB60F9211242F933F934F93D6
:104770005F936F937F938F939F93AF93BF93EF93C9
:10478000FF930E947B02FF91EF91BF91AF919F91A8
:104790008F917F916F915F914F913F912F910F90EA
:1047A0000BBE0F900FBE0F901F9018951F920F9287
:1047B0000FB60F920BB60F9211240F931F932F93E6
:1047C0003F934F935F936F937F938F939F93AF9399
:1047D000BF93CF93DF93EF93FF932EB580912C057A
:1047E00090912D05009739F0E0916F04F0917004DD
:1047F000E80FF91F208380916F0490917004019657
:104800009093700480936F0480E00E948402C091B2
:104810006F04D09170042091500230915102C21760
:10482000D30708F03FC00091F3081091F4084091BD
:104830002C0550912D05CE010A9628173907E0F472
:10484000C9011AC00115110549F0F801EC0FFD1F4F
:1048500020812EBD0DB407FEFDCF04C01EBC0DB4DB
:1048600007FEFDCF2EB54115510521F0FA01EC0FE1
:10487000FD1F2083219601C00197C817D90710F3A7
:1048800081E00E9484020115110531F0F801EC0F5E
:10489000FD1F80818EBD01C01EBCD0937004C093EB
:1048A0006F0411C010922D0510922C051092F4087F
:1048B0001092F3081092510210925002109270045C
:1048C00010926F048EB5FF91EF91DF91CF91BF9160
:1048D000AF919F918F917F916F915F914F913F9198
:1048E0002F911F910F910F900BBE0F900FBE0F9045
:1048F0001F90189578941F920F920FB60F920BB6D7
:104900000F9211242F933F934F935F936F937F9355
:104910008F939F93AF93BF93EF93FF930E944401B4
:1049200078948FB7F89490916105913019F492E0E2
:10493000909361058FBF0E94C306FF91EF91BF91D5
:10494000AF919F918F917F916F915F914F913F9127
:104950002F910F900BBE0F900FBE0F901F901895C8
:1049600078941F920F920FB60F9211240F900FBEE2
:104970000F901F90189578941F920F920FB60F9278
:1049800011240F900FBE0F901F90189578941F92CE
:104990000F920FB60F920BB60F9211242F933F93E5
:1049A0004F935F936F937F938F939F93AF93BF9337
:1049B000EF93FF93E6E8F0E080819181808191811F
:1049C0002FB7F894909361038093600381E0809304
:1049D0000E082FBF0E94C306FF91EF91BF91AF91C8
:1049E0009F918F917F916F915F914F913F912F9107
:1049F0000F900BBE0F900FBE0F901F9018957894DC
:104A00001F920F920FB60F9211242F938F939F93A3
:104A1000AF93BF932FB7F89480917B0490917C045F
:104A2000A0917D04B0917E040196A11DB11D8093DB
:104A30007B0490937C04A0937D04B0937E042FBFED
:104A4000BF91AF919F918F912F910F900FBE0F90BB
:104A50001F901895ACE2B0E0E0E3F5E20C94EA2791
:104A600029833A834B835C836D837E838F8398870E
:104A7000A986BA86CB86DC86ED86FE860F87188BE4
:104A800069807A808B809C8069A27AA28BA29CA28A
:104A9000840173018FEF9FEFA0E0B0E0E822F922DC
:104AA0000A231B2314014424552469847A848B84AB
:104AB0009C846DA27EA28FA298A664015301A822B5
:104AC000B922CA22DB22340188249924C601B50107
:104AD000A80197010E94822769A77AA78BA79CA7A4
:104AE000C401B3010E9482277B018C01C601B5017C
:104AF000A20191010E9482275B016C01C401B301F4
:104B00000E9482279B01AC01EA0CFB1C0C1D1D1DA1
:104B100069A47AA48BA49CA4C401AA27BB27E80E8D
:104B2000F91E0A1F1B1FEA14FB040C051D0520F4C7
:104B3000205030404F4F5F4FC801AA27BB27820F3C
:104B4000931FA41FB51F8D8F9E8FAF8FB8A38701B2
:104B5000FF24EE2429A53AA54BA55CA54070507012
:104B6000E20EF31E041F151FE98EFA8E0B8F1C8FA9
:104B7000DE2CAA8CCB8C6C8C8D8B8E8D8E8B8F8D3E
:104B80008F8B88A1888F2D853E854F85588969A197
:104B90007AA18BA19CA10E9482277B018C012D818F
:104BA0003E814F8158856DA17EA18FA198A50E945D
:104BB0008227E60EF71E081F191F6D897E898F89CF
:104BC000988D6E0D7F1D801F911F6D8B7E8B8F8B3F
:104BD000988F7E892D2D3A2D4C2D562D8F89988DAD
:104BE000AC96E2E10C9406280F93DF93CF93CDB7F8
:104BF000DEB760970FB6F894DEBF0FBECDBF0023BF
:104C000009F459C029833A834B835C836D837E8387
:104C10008F839887E0E2E01B2D813E814F8158858C
:104C20001E16BCF01D861E861F86188A8E2F992799
:104C300087FD9095909581959F4F04C05695479517
:104C4000379527958A95D2F729873A874B875C87CE
:104C50002AC0CA01B901002E04C0969587957795A0
:104C600067950A94D2F76D877E878F87988BDA01D4
:104C7000C90104C0880F991FAA1FBB1FEA95D2F76C
:104C800029813A814B815C8104C0569547953795BF
:104C900027950A95D2F7822B932BA42BB52B8987C6
:104CA0009A87AB87BC8729853A854B855C856D855E
:104CB0007E858F85988960960FB6F894DEBF0FBE0B
:104CC000CDBFCF91DF910F91089570D088F09F579D
:104CD00090F0B92F9927B751A0F0D1F0660F771F48
:104CE000881F991F1AF0BA95C9F712C0B13081F028
:104CF00077D0B1E0089574C0672F782F8827B85F08
:104D000039F0B93FCCF3869577956795B395D9F788
:104D10003EF490958095709561957F4F8F4F9F4F92
:104D20000895E89409C097FB3EF49095809570959E
:104D300061957F4F8F4F9F4F9923A9F0F92F96E9E7
:104D4000BB279395F695879577956795B795F1115C
:104D5000F8CFFAF4BB0F11F460FF1BC06F5F7F4FF9
:104D60008F4F9F4F16C0882311F096E911C077230B
:104D700021F09EE8872F762F05C0662371F096E814
:104D8000862F70E060E02AF09A95660F771F881FE3
:104D9000DAF7880F9695879597F9089557FD9058FB
:104DA000440F551F59F05F3F71F04795880F97FBEF
:104DB000991F61F09F3F79F08795089512161306A9
:104DC0001406551FF2CF4695F1DF08C016161706D8
:104DD0001806991FF1CF869571056105089408950D
:104DE000E894BB2766277727CB0197F908950BD066
:104DF00078C069D028F06ED018F0952309F05AC019
:104E00005FC01124EECFCADFA0F3959FD1F3950FB9
:104E100050E0551F629FF001729FBB27F00DB11D3E
:104E2000639FAA27F00DB11DAA1F649F6627B00DCE
:104E3000A11D661F829F2227B00DA11D621F739FB7
:104E4000B00DA11D621F839FA00D611D221F749FC5
:104E50003327A00D611D231F849F600D211D822F0C
:104E6000762F6A2F11249F5750408AF0E1F0882353
:104E70004AF0EE0FFF1FBB1F661F771F881F915060
:104E80005040A9F79E3F510570F014C0AACF5F3F74
:104E9000ECF3983EDCF3869577956795B795F79593
:104EA000E7959F5FC1F7FE2B880F911D969587951B
:104EB00097F9089597F99F6780E870E060E008959A
:104EC0009FEF80EC089500240A9416161706180622
:104ED0000906089500240A941216130614060506FE
:104EE0000895092E0394000C11F4882352F0BB0F8F
:104EF00040F4BF2B11F460FF04C06F5F7F4F8F4FF2
:104F00009F4F0895629FD001739FF001829FE00D33
:104F1000F11D649FE00DF11D929FF00D839FF00D38
:104F2000749FF00D659FF00D9927729FB00DE11DE4
:104F3000F91F639FB00DE11DF91FBD01CF011124C1
:104F40000895AA1BBB1B51E107C0AA1FBB1FA617D0
:104F5000B70710F0A61BB70B881F991F5A95A9F722
:104F600080959095BC01CD01089597FB092E0726E9
:104F70000AD077FD04D0E5DF06D000201AF4709542
:104F800061957F4F0895F6F7909581959F4F08950D
:104F9000A1E21A2EAA1BBB1BFD010DC0AA1FBB1F3D
:104FA000EE1FFF1FA217B307E407F50720F0A21BAF
:104FB000B30BE40BF50B661F771F881F991F1A941C
:104FC00069F760957095809590959B01AC01BD0146
:104FD000CF0108952F923F924F925F926F927F92EE
:104FE0008F929F92AF92BF92CF92DF92EF92FF92F9
:104FF0000F931F93CF93DF93CDB7DEB7CA1BDB0BA5
:105000000FB6F894DEBF0FBECDBF09942A88398849
:1050100048885F846E847D848C849B84AA84B98450
:10502000C884DF80EE80FD800C811B81AA81B9815C
:10503000CE0FD11D0FB6F894DEBF0FBECDBFED0170
:105040000895DC0101C06D9341505040E0F7089590
:04505000F894FFCF02
:1050540001006400E8036400000001001400C800BB
:10506400640000000500FFFF99199A1965E60A001B
:1050740005000700010022FFFFFFFFFFFF0401807E
:06508400000000F0F10045
:00000001FF
