:100000000C9461000C94F8080C9402090C940C09EF
:100010000C9416090C9420090C942A090C948E0B4C
:100020000C9434090C9480000C9480000C94B60F4E
:100030000C9460130C94C2080C94D8080C943E09DC
:100040000C94B1080C94FA120C9480000C9480006B
:100050000C9480000C9480000C9480000C94800020
:100060000C94CD080C9480000C9480000C948000BB
:100070000C9480000C9480000C9480000C94800000
:100080000C9480000C9480000C948000BA246725A6
:1000900079268726D826F326FA263327F027142830
:1000A00028282B285E28B628DE28E128B3248229B8
:1000B0009629882AB024852BC22BFE2B00081C18F9
:1000C000141011241FBECFEFD0E1DEBFCDBF11E071
:1000D000A0E0B1E0E0EAF5E600E00BBF02C0079067
:1000E0000D92A833B107D9F71AE0A8E3B1E001C037
:1000F0001D92AE3AB107E1F70E94672C0C94CF3203
:100100000C9400008FB7F894992708958FBF089535
:10011000AC013091900A8FEF4F3F580711F020E06B
:1001200015C0832F99270895822F9927FC0163E03A
:10013000EE0FFF1F6A95E1F7E81BF90BE055FA4F48
:10014000808191818417950719F02F5F231761F73C
:10015000822F99270895FC0182819927582F4427DF
:1001600081819927482B592BCA01892F9927869578
:100170008695837090708230910559F08330910597
:1001800059F0892B19F420E030E008C02CE93FEF4A
:1001900005C022E030E002C028E030E0CA0184E07F
:1001A000989F812D992711248230910559F0833031
:1001B000910559F0892B19F480E090E008C08CE992
:1001C0009FEF05C082E090E002C088E090E0280F39
:1001D000391F2A5F3F4FCF01820F931F0895282FA9
:1001E0009FB7F894662349F0E82FFF27EE55FA4FA2
:1001F0008081882311F021E006C0E22FFF27EE5511
:10020000FA4F608320E0892F99278FBF822F99278B
:100210000895E82F8FB7F894282F332790E0FF2711
:10022000EE55FA4F8081861709F491E02FBF892F90
:1002300099270895882311F06E9A08956E9808956D
:10024000882311F06F9A08956F98089580E00E94B6
:100250001A01BA9ABB98B99AB89A6C9A80E00E942F
:1002600020016B986A9881E00E941A01709A8DB102
:100270008C7F8DB90895282F9FB7F894E82FFF271A
:10028000E259FD4F80818F3F81F4E091940AE2179B
:1002900071F40BC02093790A04C0FF27E259FD4F87
:1002A00020832093940A20E007C025E005C08091B8
:1002B000790A8F3F91F7EECF892F99278FBF822F31
:1002C000992708951F93182F81E00E941A011FB9E2
:1002D000779BFECF8FB199271F9108958F929F92A0
:1002E000AF92BF92CF92DF92EF92FF920F931F9344
:1002F000CF93DF938FB7F8949927C0908E0AD09050
:100300008F0A8090710490907204C0919303D091F1
:10031000940320916101309162011AE0A12EB12C69
:10032000AC0EBD1E2A153B0508F459018FBF7401A0
:10033000EC0EFD1E86010C0F1D1F14C0C114D1044C
:1003400019F0F801808101C080E00E9462018114EF
:10035000910411F0F701808321960894E11CF11CAF
:100360000F5F1F4FC5010197C817D90738F381E008
:100370000E9420019FB7F894C114D10431F0CC0E33
:10038000DD1EF60180818FB901C01FB8D0939403A0
:10039000C0939303892F99278FBF80E090E0DF916E
:1003A000CF911F910F91FF90EF90DF90CF90BF9072
:1003B000AF909F908F9008952FB7F8943327509364
:1003C00062014093610190938F0A80938E0A70932B
:1003D00072046093710410929403109293032FBFE0
:1003E000452B29F08FB10E946E019927089588E06E
:1003F0000E943B0180E090E008958FB7F894992720
:100400001092A4058FBF0895AC01E0EAF3E080E00C
:1004100090E09C01858180FF05C0808191818417D7
:10042000950741F0C90101963B968A30910589F7FD
:100430002FEF30E0C90108950E9404028F3F91F030
:1004400099272BE030E0829FF001839FF00D929F6F
:10045000F00D1124E056FC4F858181FF03C0878198
:10046000908508958FEF9FEF08950E9404028F3FBB
:1004700019F481E090E00895282F33278BE090E075
:10048000289FF001299FF00D389FF00D1124E056B0
:10049000FC4F85818860858380E090E008952F92ED
:1004A0003F924F925F926F927F928F929F92AF9204
:1004B000BF92CF92DF92EF92FF920F931F93CF9351
:1004C000DF93CDB7DEB729970FB6F894DEBF0FBE26
:1004D000CDBF6FB76983F89420903803309039030B
:1004E00040903A0350903B036624772488249EE48E
:1004F000A92E83E8B82ECC24DD24EE24FF2400E0CE
:1005000010E0222D332D442D552D662D772D882D6D
:1005100090E00E94A52E2A833B834C835D836E83EB
:100520007F8388879987822E932EA42EB52E24014F
:10053000350100E20E94A32FA22EB32EC42ED52E89
:10054000A301920156954795379527952A0D3B1D96
:100550004C1D5D1D57FF05C05F772F5F3F4F4F4F0D
:100560005F4F209338033093390340933A035093FD
:100570003B03E9818E2F99278FBFCA01B9012996C4
:100580000FB6F894DEBF0FBECDBFDF91CF911F91A4
:100590000F91FF90EF90DF90CF90BF90AF909F9022
:1005A0008F907F906F905F904F903F902F90089525
:1005B000EF920F931F93AE2D99E0899FF0011124C4
:1005C000E25FFB4F4083518362837383048315830F
:1005D00026833783A17080858E7F8A2B82608087F7
:1005E0008CE00E943B011F910F91EF9008957FB71F
:1005F000F89462B720911A0230911B0240911C02BC
:1006000050911D0206B601FE0FC081B792B7280FA8
:10061000311D411D511D2F5F3F4F4F4F5F4F290F20
:10062000311D411D511D04C0260F311D411D511D9D
:10063000872F99278FBFCA01B90108959C016E5F6A
:100640006D3118F080E090E008950C9611F0C9012A
:100650000E960895FC0185899927982F8827268969
:100660003327822B932B0895FC0127813085C90104
:1006700043E0880F991F4A95E1F7820F931F860F79
:10068000971F6AE070E00E943B327087678308958D
:10069000FC0161859285662329F48AE0989FB00168
:1006A000112409C077278AE0989FC00111240E9475
:1006B0004F3211861286CF010E9434030895AC0197
:1006C00020918508309186082817390718F481E0B1
:1006D00090E0089560E070E080915701909158019A
:1006E000281B390B4217530710F461E070E0CB016F
:1006F000089580914B01E82FFF27EE0FFF1FE75968
:10070000F74F0190F081E02D20914D01222351F00F
:100710008F5F80934B018D3011F410924B0121506B
:1007200020934D01CF010895FC0185899927982FC9
:10073000882726893327822B932B0895AF92BF9267
:10074000DF92EF92FF920F931F93CF93DF935C01A1
:10075000D0901E02F0909103EE2425C00F2D03705F
:100760001127C5010E949403F801EE0FFF1FEE0F41
:10077000FF1FE00FF11FE757FD4F208131818217E6
:10078000930779F4D5011C96ED019B858281891729
:1007900041F49E818481891721F49C858381891786
:1007A00021F0E394F394ED14C9F68E2D9927DF918F
:1007B000CF911F910F91FF90EF90DF90BF90AF907E
:1007C0000895AC0120918E032C3018F081E090E068
:1007D000089580913D03682F620F712D711DFB01FB
:1007E0006C30710508F03C97EE0FFF1FED57FA4F84
:1007F000518340832F5F20938E0380E090E0089523
:10080000AC0120918D032C3018F081E090E0089528
:100810008091870A682F620F712D711DFB016C306A
:10082000710508F03C97EE0FFF1FEA56F54F518314
:1008300040832F5F20938D0380E090E00895FC01BA
:1008400086859927982F882727853327822B932BF6
:1008500008959C01635F6D3118F080E090E0089589
:100860000C9611F0C90149960895CF93DF93EC01DE
:100870004FB7F89480913A01E82FFF27CF010196F6
:100880006AE570E00E944F329C01809139019927FE
:100890002817390741F0EE0FFF1FEC59FE4FD183A7
:1008A000C08320933A01842F99278FBFDF91CF9186
:1008B00008958F929F92AF92BF92CF92DF92EF9264
:1008C000FF920F931F93CF93DF93EC016B010E9474
:1008D0009403F60122813327442755278824922E3A
:1008E000A32EB42EE080FF24002711271E2D002701
:1008F000FF24EE242181332744275527A9013327DC
:100900002227E22AF32A042B152B2381332744279D
:100910005527E22AF32A042B152B8E289F28A02A7C
:10092000B12AFC01EE0FFF1FEE0FFF1FE057F74F3C
:1009300080819181A281B38188159905AA05BB05A3
:1009400090F480829182A282B38280911F028823D8
:1009500051F088899927982F882729893327822B56
:10096000932B0E943504CE01DF91CF911F910F91FF
:10097000FF90EF90DF90CF90BF90AF909F908F90BF
:100980000895FC01648B672F7727638B0895FC0122
:1009900084856095862384870895CF93DF93FC0137
:1009A000DC011196ED0129813327322F2227818125
:1009B00099278062282B392B2183232F33272983E2
:1009C00080E090E0DF91CF9108950F931F93CF9334
:1009D000DF93EC01892BE9F020918A0830918B0894
:1009E0008FEF2F3F3807A9F080911F02813019F453
:1009F000198218820BC000918C0810918D08C901D2
:100A00000E941C02080F191F1983088380E090E0E0
:100A100002C081E090E0DF91CF911F910F91089586
:100A2000DF92EF92FF920F931F938FB7F894282FC6
:100A30003327D22E91B782B746B7981711F041FFEE
:100A400002C02FBF6AC0809192038823E1F10E9407
:100A5000F702E0909E05F0909F050091A00510918F
:100A6000A10520912E0230912F0240913002509129
:100A700031026E197F09800B910B6217730784078F
:100A8000950720F01092920371E01EC02E0D3F1DBD
:100A9000401F511F80911A0290911B02A0911C02CD
:100AA000B0911D02281B390B4A0B5B0B273E310509
:100AB0004105510540F4822F223010F070E005C04E
:100AC00070E082E002C070E086EE682F615000B6F0
:100AD00001FCFDCF82B7681709F46F5F20911A02FD
:100AE00030911B0240911C0250911D02DA01C90194
:100AF0000196A11DB11D860F911DA11DB11D82176B
:100B00009307A407B50710F4622F609561BFDFBE9D
:100B1000772319F08BE00E943B011F910F91FF900A
:100B2000EF90DF900895AFB7F894BB27E1E0E09332
:100B3000920360939E0570939F058093A005909308
:100B4000A10520932E0230932F0240933002509340
:100B50003102AFBF0E9410050895AC013091860AA2
:100B60008FEF4F3F580711F020E014C0832F9927D3
:100B70000895822F9927FC01EE0FFF1FE80FF91F40
:100B8000EE0FFF1FE955FB4F808191818417950778
:100B900019F02F5F231769F7822F992708950F9374
:100BA0001F93CF93DF938C01EB010E94AD05982F2B
:100BB000843119F481E090E032C08091860A292FB7
:100BC00033274091870850918808981789F4F901D4
:100BD000EE0FFF1FE20FF31FEE0FFF1FE955FB4F54
:100BE00011830083D583C4839F5F9093860A0FC0CF
:100BF000F901EE0FFF1FE20FF31FEE0FFF1FE95584
:100C0000FB4F84819581D583C483C81BD90B4C0FBE
:100C10005D1F509388084093870880E090E0DF9143
:100C2000CF911F910F9108959BE0899FF0011124AE
:100C3000E056FC4F7183608312821382148285E038
:100C400085831682108617820895882349F0682FBD
:100C5000772784EC99E00E944F326B3F710510F0CA
:100C60006FEF7FEFCB010895CF92DF92FF920F934A
:100C70001F93CF93DF93282F062F482F55278BE004
:100C800090E0489FE001499FD00D589FD00D11245E
:100C9000C056DC4F8D8182FF02C08B7F8D838A819D
:100CA000302F381B0A838B818F5F8B83332379F03E
:100CB0008C81830F81508C833B3048F0688179812F
:100CC000822F0E9414060A8381E08B836EC08BE022
:100CD00090E0489FF001499FF00D589FF00D1124BE
:100CE000E056FC4F83812481820F912D911D039743
:100CF0001CF4333008F459C0C080D180C0EAD3E07E
:100D0000888199818C159D0509F049C08D81282F16
:100D1000332720FF44C06B81FC80F60E21FD16C0F6
:100D20007727882799272AEF30E040E050E00E949B
:100D300010322F2D3327442755270E946232DA01C3
:100D4000C9012E830E94250698878F838D8182603A
:100D50008D830E8189E0089F800111246B817727A4
:100D6000882799272AEF30E040E050E00E941032B7
:100D70002F2D3327442755270E946232C801820F46
:100D8000911D6AE070E00E944F32CB016E831B829E
:100D90001C820E942506BC01CE010E9434032B96C2
:100DA00084E0CE30D80709F0ABCFDF91CF911F910F
:100DB0000F91FF90DF90CF90089580E090E0E5EAFA
:100DC000F3E09C01808180FF08C0C90101963B9639
:100DD0008A309105B1F72FEF30E0C9010895982FBF
:100DE000AFEF60E070E040E050E0E5EAF3E08081E2
:100DF000282F332720FF0BC021FF09C023FD07C088
:100E0000228133812617370710F0A42FB9014F5FD5
:100E10005F4F3B964A30510551F7892F9927681744
:100E2000790718F48FEF90E008958A2F9927089595
:100E3000AC0130916A028FEF4F3F580711F020E06C
:100E400012C0832F99270895E22FFF2773E0EE0F3A
:100E5000FF1F7A95E1F7ED55FD4F80819181841751
:100E6000950719F02F5F231779F7822F9927089597
:100E7000FC018081448555274F7050709A01220FE4
:100E8000331F240F351F821B8F50992708951F93FE
:100E9000CF93DF93162FC0E0D0E06AE10E941E03DB
:100EA000FC0180818123811711F4C1E0D0E0CE01E3
:100EB000DF91CF911F910895AC0120914D012D300C
:100EC00018F081E090E0089580914C01E82FFF2711
:100ED000EE0FFF1FE759F74F518340838F5F8093D9
:100EE0004C018D3011F410924C012F5F20934D0175
:100EF00080E090E0089580E8809332021092F8023A
:100F00001092840A1092780A1092A0020895CF934A
:100F1000DF93FC0115A6DC019E96ED011B821A826F
:100F2000198280E886A7DF91CF9108958FB7F89452
:100F300060919E0370919F032CB53DB506B602FEED
:100F400004C06F5F7F4F2CB53DB599278FBF8827B1
:100F50009927CB017727662744275527622B732BC8
:100F6000842B952B0895EF92FF920F931F930E946D
:100F700096077B018C012091490330914A034091EF
:100F80004B0350914C038091420390914303A091F5
:100F90004403B0914503820F931FA41FB51FE216AF
:100FA000F3060407150730F082179307A407B50767
:100FB00058F005C082179307A407B507E0F5E816B7
:100FC000F9060A071B07B8F59C01AD012E193F0968
:100FD000400B510B213060E8360760E0460760E0C7
:100FE000560768F180E090E8A0E0B0E0E80EF91E56
:100FF0000A1F1B1FE0924903F0924A0300934B0320
:1010000010934C0380E090E8AFEFBFEFE80EF91EBD
:101010000A1F1B1F2050304840405040209342037D
:1010200030934303409344035093450320E030E85A
:1010300040E050E014C020E030E040E050E0809319
:10104000490390934A03A0934B03B0934C0310922F
:101050004203109243031092440310924503A901E6
:10106000B7012CB53DB5C9018E199F0903968417A8
:10107000950720F0B9016D5F7F4F02C0640F751FA7
:101080006115710511F461E070E0615070407BBD45
:101090006ABD80E186BF87B7806187BF1F910F91CE
:1010A000FF90EF9008950F931F930FB7F8941127B7
:1010B0006093490370934A0380934B0390934C03CE
:1010C00020934203309343034093440350934503DA
:1010D0000E94B3070FBF1F910F91089597B79F7D8F
:1010E00097BF90E296BF882319F08EB5806402C046
:1010F0008EB58F7B8EBD87B7806287BF80E090E022
:101100000895AF92BF92CF92DF92EF92FF920F932A
:101110001F93CF93DF93CDB7DEB728970FB6F89420
:10112000DEBF0FBECDBF20E070E0E0910001F09186
:10113000010132E14DE65CE46FE4809101019E2FF4
:1011400028960FB6F894DEBF0FBECDBFDF91CF91CA
:101150001F910F91FF90EF90DF90CF90BF90AF90D5
:1011600008951F920F920FB60F9211248F9383B799
:1011700083BF00B600FCFDCF8F910F900FBE0F9084
:101180001F90189578941F920F920FB60F9211240A
:101190000F900FBE0F901F90189578941F920F928A
:1011A0000FB60F9211240F900FBE0F901F9018953D
:1011B00078941F920F920FB60F9211242F933F93A2
:1011C0008F939F932FB7F894332780919E0390912C
:1011D0009F03019690939F0380939E032FBF9F913F
:1011E0008F913F912F910F900FBE0F901F901895E8
:1011F0001F920F920FB60F9211240F900FBE0F90F7
:101200001F9018951F920F920FB60F9211240F90F6
:101210000FBE0F901F9018951F920F920FB60F924E
:1012200011240F900FBE0F901F9018951F920F92D0
:101230000FB60F9211240F900FBE0F901F901895AC
:101240001F920F920FB60F9211240F900FBE0F90A6
:101250001F9018951F920F920FB60F9211240F90A6
:101260000FBE0F901F9018951F920F920FB60F92FE
:1012700011240F900FBE0F901F9018951F920F9280
:101280000FB60F9211242F933F934F935F936F9359
:101290007F938F939F93AF93BF93EF93FF9383B706
:1012A00083BF00B600FCFDCF81B799270196AA271E
:1012B000BB2720911A0230911B0240911C025091D1
:1012C0001D02280F391F4A1F5B1F20931A023093FB
:1012D0001B0240931C0250931D0278940E9410053B
:1012E000FF91EF91BF91AF919F918F917F916F91FE
:1012F0005F914F913F912F910F900FBE0F901F90D4
:1013000018950F931F93CF93DF93182F8FB7F894EF
:10131000C82FDD270C2F61E080E00E94EF008823BA
:1013200021F0CFBF85E090E024C080910D0188239B
:10133000A1F480914101823081F409C082E0809360
:10134000410110920D010E942601B89AC098109395
:101350000A0180E00FBF99270CC0809141018823CA
:1013600069F38FB7F89499271092A2058FBF81E097
:10137000F1CFDF91CF911F910F9108950F931F939C
:10138000182F0FB7F89461E080E00E94EF008823E7
:1013900071F510930A0180910D018823A9F58091C0
:1013A0004101823089F587E00CC00E9426018091BE
:1013B0004101882349F481E0809341011092A10208
:1013C00089E00E943B012AC0809148038F3F31F59C
:1013D000E0910C01EE2311F11CC010920B0104C02E
:1013E000FF27E85BFC4F108210920C0117C081E0D0
:1013F00090E002C0880F991F1A95E2F720914001F2
:10140000282B209340010AC0809141018823E1F6F6
:10141000CCCF80910B018F3F19F7DFCF802F992719
:101420008FBF80E090E01F910F9108951F9383E09C
:101430000E9481099927182F882319F083E00E94C0
:10144000BE09812F99271F91089561E081E00E94D4
:10145000EF008823E9F48FB7F894282F3327809181
:101460003D0190913E01892B11F02FBF20C081E0FA
:1014700090E090933E0180933D012FBFDD9A0E9442
:10148000960724E130E040E050E00E9453080FC08E
:1014900062E081E00E940901882319F089E090E070
:1014A000089561E081E00E940901882319F080E03D
:1014B00090E0089585E090E00895CF93DF93EC01EC
:1014C0000E941807282F80916A022817D1F0382F20
:1014D000315030936A0213C0822F992743E0880F5E
:1014E000991F4A95E1F7DC01AD55BD4FFC01E5556B
:1014F000FD4F88E001900D928150E1F72F5F231797
:1015000058F380918A0890918B088C179D07A1F45D
:101510008FEF9FEF90938B0880938A0810928D082D
:1015200010928C0810928E0810928F0881E08093A0
:10153000530182E10E943B01DF91CF910895CF9248
:10154000DF92EF92FF920F931F93CF93DF938C0163
:10155000F62E6A01E22E8FB7F894C82FDD2760E0DF
:1015600080E00E940901882321F0CFBF80E090E055
:101570001EC0CFBF0F0D111D802F80680E94620119
:10158000F82E16950795802F807C0E9462010E2D03
:101590000AC0EE2DFF27E01BF109EC0DFD1D808137
:1015A0000E94620101500023A1F78F2D9927DF913E
:1015B000CF911F910F91FF90EF90DF90CF90089502
:1015C000CF93DF93CDB7DEB72C970FB6F894DEBF7D
:1015D0000FBECDBF8FB7F894282FAE014F5F5F4F7E
:1015E000DA01E8EAF5E088E001900D928150E1F738
:1015F00080912D0390912E038987892F99278A87BF
:1016000080914D0390914E038B87892F99278C876A
:101610002FBF2CE060E080E691E00E949F0A2C96AC
:101620000FB6F894DEBF0FBECDBFDF91CF91089506
:101630001F93CF93DF93182F8FB7F894C82FDD2710
:1016400060E080E00E940901882321F0CFBF80E0A4
:1016500090E005C0CFBF812F0E9462019927DF91E2
:10166000CF911F910895EF92FF920F931F93CF9305
:10167000DF93182F7B01042F8FB7F894C82FDD2735
:1016800060E080E00E940901882321F0CFBF80E064
:1016900090E014C0CFBF1064812F9927909354031A
:1016A000809353030E946201182F402F5527B701E2
:1016B00080E090E00E94DC01812F9927DF91CF919B
:1016C0001F910F91FF90EF900895C09860915F0176
:1016D0007091600141E08FE30E94330B089582E036
:1016E00090E0909387028093860281E08093F802D5
:1016F00020E030E080910A01843011F421E030E0F4
:10170000232B29F484E00E948109882319F40E9484
:10171000650B089584E00E94BE0908951F920F9200
:101720000FB60F9211242F933F934F935F936F93B4
:101730007F938F939F93AF93BF93EF93FF9380918A
:10174000860290918702019749F482E090E090939D
:101750008702809386020E946F0B05C08091A002D1
:101760008F5F8093A002FF91EF91BF91AF919F9106
:101770008F917F916F915F914F913F912F910F903A
:101780000FBE0F901F9018951F93809140018823E2
:1017900009F04BC010910A011F3F09F046C060E0FC
:1017A0000E940901882309F440C081E08093670802
:1017B00080916D028823E1F11092670885E090E046
:1017C00045C0923069F5C09A80910B0120E030E06D
:1017D0008F3F11F421E030E0232BE9F410930D0149
:1017E0008F3F19F42FEF30E00DC0282F3327F90178
:1017F000E85BFC4F808180930B018F3F11F41093C5
:101800000C0110832093A10281E08093410189E0C3
:101810000E943B0105C010930D011092410111C0BF
:1018200080914101882369F00FC081E090E00EC0F3
:1018300080910D0190914101882319F2923021F09D
:10184000EFCF80E00E941A0180E090E01F910895A0
:101850001F93182F81E090E0909343018093420101
:1018600010926D020E94C40B8FB7F89499271093C1
:101870003C018FBF83E00E943B011F9108951F939D
:10188000CF93DF939FB7F894C92FDD271C2F90913A
:101890000A01981721F0CFBF81E090E03AC08FEFA6
:1018A00080930A01309140013323F1F48FB7F8940B
:1018B00099271092A2058FBF0E94C40BCFBF11C001
:1018C00020930A0181E090E002C0880F991F4A9599
:1018D000E2F7809538233093400187E00E943B0176
:1018E0001FBF80E090E015C080E065E0E32FFF2798
:1018F0000E942F32292F492F5527CF01042E02C0D5
:10190000959587950A94E2F780FDDACF822F8F5F55
:10191000EFCFDF91CF911F9108951F93CF93DF9366
:101920008FB7F894C82FDD271C2F809186029091E5
:101930008702892B29F484E00E943F0CCFBF1EC090
:101940001092F8028091A002882311F0B79904C088
:101950000E9908C0882319F081508093A0020E943C
:101960006F0B0BC081E090E090938702809386021A
:101970001092A00284E00E943F0C1FBFDF91CF9124
:101980001F9108950E947B07C09AC09888E00E942A
:10199000180B88E00E94180BC09A84E00E943F0C4C
:1019A0000E948D0C0895FF920F931F93CF93DF93A6
:1019B000F82E8B018FB7F894C82FDD2760E080E008
:1019C0000E940901882321F0CFBF80E090E00CC085
:1019D000CFBF8F2D0E946201812F99270E94620143
:1019E000802F0E9462019927DF91CF911F910F9163
:1019F000FF9008951F931FB7F89480919F0288234A
:101A000019F460E070E009C060E080918B0A8823DF
:101A100009F461E081E06827772780913403882307
:101A200019F480E090E00AC090E08091A705882337
:101A300009F491E081E09827892F9927762F66276E
:101A4000770F770F770FF4E0880F991FFA95E1F77A
:101A5000826E9262682B792B81E10E94D30C812FD8
:101A600099278FBF1F9108958FB7F8949927609198
:101A7000F6058FBF85E0689FB0011124625D7E4F3F
:101A8000706488E10E94D30C0895EF92FF921F9337
:101A9000CF93DF93E0903603F0903703F70182A5F0
:101AA0009927182F882309F41FE1C09880919E027E
:101AB000811749F0612F77276F717070606E7068C1
:101AC00085E10E94D30C10939E02F70110818FB71D
:101AD000F894C82FDD2760E080E00E940901882388
:101AE00011F0CFBF12C0CFBF8EE390E090935403AC
:101AF000809353038EE30E9462011150412F5527BA
:101B000060E070E0C7010E94DC01DF91CF911F917E
:101B1000FF90EF9008950F931F93CF93DF93EC0105
:101B20000FB7F89411270E94AB00FC018FE380836C
:101B30000FBF1092890A1092880A61E082E00E9429
:101B4000EF00882319F085E090E072C0809168086A
:101B50008F5F8093680881508B838FB7F894082F2C
:101B6000112762E081E00E940901882329F40FBF58
:101B70000E94FD0181E05BC08FB7F894992724E0B3
:101B80002093A3058FBFD0939003C0938F030FBF03
:101B9000FE013196818129819927982F8827332743
:101BA000822B932B80729C7C8983892F9927818338
:101BB0002981982F882733272164822B932B8983AF
:101BC000892F992781831CA618A619A619AA18AAD5
:101BD0001FA680E88EA761E06093A60540918F0361
:101BE000509190038FB7F894282F332780914201AA
:101BF000909143018830910511F0019711F02FBFAA
:101C000015C082E090E0909343018093420160937D
:101C1000950A5093370340933603109263012FBF08
:101C20000E94160A882311F40E94450D80E099272E
:101C3000DF91CF911F910F910895CF93DF93DA0138
:101C4000422F2D3118F082E090E05EC0ED018B87CD
:101C50006E83872F99278F832FB7F894332780912E
:101C60002D0390912E032FBFFD018483892F992787
:101C700085832FB7F894332780910E0190910F013F
:101C80002FBF8887892F992789873196818129815C
:101C90009927982F8827332720643868822B932B25
:101CA0008983892F99278183435F4C934D5080917D
:101CB0001101882359F010921101642FCD010E9467
:101CC0008B0D9927282F8823A9F417C0842F9927D3
:101CD00090938C0380938B03B0934701A0934601AC
:101CE0008DE00E943B0180911101882349F489E035
:101CF00090E00AC08FEF80931101822F992704C0D2
:101D000010923C0380E090E0DF91CF9108951F9303
:101D1000809114019927019664E070E00E944F328F
:101D2000682F8093140110E0462F5527FA01EE0F1B
:101D3000FF1FEB56FC4FA081B181109799F0E62F61
:101D4000E695E695E695FF27EB57F54F80819927B5
:101D50009A012770307002C0959587952A95E2F711
:101D600080FF0DC0CA01019664E070E00E944F320E
:101D7000682F1F5F1430C1F61093140119C06093CF
:101D800014016430A8F42C912D503327FD01678194
:101D90007727762F662786819927682B792BAD01C7
:101DA00083850E941D0E882319F081E10E943B016A
:101DB0001F910895CF93DF93582FFB01843018F0C3
:101DC00081E090E033C0C82FDD27CC0FDD1FCB565C
:101DD000DC4F88819981892B19F085E090E026C03D
:101DE00079836883435F40834D5080911401843030
:101DF00018F480E090E01AC0838567817727762FFA
:101E0000662726813327622B732B50931401242FCE
:101E1000AF010E941D0E9927282F882329F084E006
:101E20008093140119821882822F9927DF91CF9114
:101E30000895FB018683892F9927878381E783870C
:101E400080E00E94DA0E99270895FB018683892F8E
:101E50009927878380EF838782E00E94DA0E992793
:101E60000895CF92DF92EF92FF920F931F93CFB618
:101E7000F894DD240E944F02DC01CB0166E470E09F
:101E80000E943B324BE0E42EF12CE80EF91EF0925A
:101E9000920AE092910A0E94960700271127A80152
:101EA00097010E945308CFBE1F910F91FF90EF90B2
:101EB000DF90CF9008951F93CF93DF938FB7F8945F
:101EC000C82FDD271C2F8091420190914301089774
:101ED000C9F489E00E94180B83E00E943F0CC09A6D
:101EE00081E090E090934301809342018FB7F89492
:101EF000992723E020933C018FBF83E00E943B01A0
:101F0000CFBF30C0C0988091950A882311F085E03A
:101F100001C084E00E94180B83FD09C080E00E948C
:101F2000180B83FF04C085E090E020E003C083E04D
:101F300090E021E09093430180934201C09A1FBF3B
:101F4000222341F01092630183E00E943F0C0E9423
:101F5000310F08C00E94960720E431E040E050E0D5
:101F60000E945308DF91CF911F91089578941F929A
:101F70000F920FB60F9211242F923F924F925F92C1
:101F80006F927F928F929F92AF92BF92CF92DF9289
:101F9000EF92FF920F931F932F933F934F935F9373
:101FA0006F937F938F939F93AF93BF93CF93DF9361
:101FB000EF93FF93C6B5D7B58FB7F894282E0E943C
:101FC00096079B012C1B3D0B442755272B013C01F9
:101FD000421A530A640A750A8091420190914301A2
:101FE0008530910521F0069709F0E0C0BFC086E07A
:101FF00090E0909343018093420131E0332E309280
:10200000F7021092440180E00E946E08E0913603CE
:10201000F091370341AABB27A72D962D852D80ABC4
:10202000C301AA27BB2787A7872D9927AA27BB27E4
:1020300086A7E0913603F091370385A5882309F43C
:1020400084C06081655077274F01860E971EF4018A
:102050002081E1808281A3809927AA27BB27BA2FFC
:10206000A92F982F8827332744275527522F4427F5
:1020700033272227FF24002711278701FF24EE247E
:102080002E293F29402B512BBB24CC24DD242A2987
:102090003B294C295D29822B932BA42BB52B84192A
:1020A0009509A609B7098383292F3A2F4B2F552766
:1020B00022839D014427552721838B2F9927AA2707
:1020C000BB278083C09824E0A40180E090E00E94B8
:1020D0009F0AC09AF4012081E1808281A380992720
:1020E000AA27BB27BA2FA92F982F88273327442741
:1020F0005527522F442733272227FF240027112753
:102100008701FF24EE242E293F29402B512BBB248D
:10211000CC24DD242A293B294C295D29822B932BB1
:10212000A42BB52B840D951DA61DB71D8383292FC8
:102130003A2F4B2F552722839D0144275527218372
:102140008B2F9927AA27BB278083E0913603F09134
:102150003703818185FF02C030926D0283E00E94C7
:102160003F0C87B78F7E87BF84997AC01092F702A1
:1021700081E00E946E08E0913603F091370381817F
:1021800085FF0FC087E090E0909343018093420168
:102190000E94960720E031E040E050E00E945308A2
:1021A00003C080E00E94280C849B5AC080914401A7
:1021B000882391F58091F702882371F511E010933F
:1021C000F7020E946E0880B32091780A283098F4B4
:1021D000E091840AE20FFF27E770F070EE0FFF1F17
:1021E000EE0FFF1FEC5DF54F4082518262827382D9
:1021F0002F5F2093780A10934401D0935603C09325
:10220000550384992DC0992754E0969587955A9542
:10221000E1F7182F117001C010E08091F7028130B2
:10222000F9F41092F7020E946E08109244011123F3
:10223000B9F48091550390915603C81BD90B2A9786
:1022400078F48091780A882319F081508093780A75
:102250008091360390913703009711F00E94870711
:102260002FBEFF91EF91DF91CF91BF91AF919F91E1
:102270008F917F916F915F914F913F912F911F911E
:102280000F91FF90EF90DF90CF90BF90AF909F9015
:102290008F907F906F905F904F903F902F900F9016
:1022A0000FBE0F901F901895EF92FF920F931F9300
:1022B000CF93DF938B01809153039091540386FF5A
:1022C00040C18F7B8F3309F08EC1C0915F01D091E7
:1022D0006001588150938802809186029091870214
:1022E0008530910509F443C08630910509F48AC010
:1022F000029709F01FC185E090E0909387028093D8
:10230000860240913202852F99270196242F332788
:10231000281739074CF1B79906C00E9904C0451B20
:10232000415040933202409188024A32E8F44423FB
:10233000A1F0BE016F5F7F4F483018F047E050E0DA
:1023400007C086E090E0909387028093860255272D
:1023500080E090E00E94DC0146C11092F802C09A31
:1023600084E00E943F0CE3C00E94C20C3CC186E0A6
:1023700090E09093870280938602809134038823B3
:1023800009F439C08091A7058823A9F5898185FFC3
:1023900032C08F814E812FB7F894332760914D035F
:1023A00070914E032FBF9927982F88275527842B8C
:1023B000952B8617970759F08F812E819927982F93
:1023C00088273327822B932B8F5F9F4FA1F489811E
:1023D0008770813081F4C09AC0988AE00E94180BFF
:1023E000C09AC0984091880247502896BE018FE35A
:1023F0000E94330BF8C04091880247505527289619
:10240000BE01A6CFC09A8091A002882339F484E04F
:102410000E943F0C8091A002882311F0B7990AC056
:102420000E9B08C09091780A992321F08091880230
:102430008B3038F480915F01909160010E94870792
:102440003DC0913001F5E091840AFF27EE0FFF1F98
:10245000EE0FFF1FEC5DF54F2081318142815381EA
:10246000E0915F01F091600121ABBB27A52F942F74
:10247000832F80ABCA01AA27BB2787A7252F332725
:102480004427552726A78091840A9927019668E05A
:1024900070E00E944F328093840A8091780A8150C4
:1024A0008093780A882351F080915F0190916001B8
:1024B0000E9487071092840A1092780A80918802FD
:1024C000FE01E80FF11D808187FF31C0012B79F1FA
:1024D00069816770E0915F01F0916001623019F5E8
:1024E000A0913603B0913703109709F18091420112
:1024F000909143010797D9F4ED019B81838198174F
:10250000B1F487B78F7E87BF908181E08CA7E90FF8
:10251000F11D8291319688A780818F7789A780E00D
:102520000E94280C04C0613011F48AE02AC00E9485
:102530008D0C59C01092F802C09A84E00E943F0CA2
:1025400052C08E3309F04FC0C09A809142019091E1
:1025500043010897C9F4C09889E00E94180BC09AFB
:1025600083E00E943F0C81E090E0909343018093D0
:1025700042018FB7F894992723E020933C018FBF45
:1025800083E00E943B012FC08091950A882349F483
:1025900084E090E090934301809342010E945B0F9E
:1025A00022C083E00E943F0C83E090E090934301BF
:1025B000809342010E944F02DC01CB0166E371E08F
:1025C0000E943B324BE0E42EF12CE80EF91EF09213
:1025D0002D02E0922C020E94960700271127A801E5
:1025E00097010E945308DF91CF911F910F91FF90A7
:1025F000EF9008951F920F920FB60F9211242F9310
:102600003F934F935F936F937F938F939F93AF937A
:10261000BF93EF93FF932FB1E0917104F091720497
:10262000309739F08091930390919403E80FF91F4C
:102630002083809193039091940301969093940347
:102640008093930380E00E942001409161015091AA
:10265000620180919303909194038417950718F475
:102660000E946E011CC0609171047091720480918F
:102670008E0A90918F0A1092720410927104109237
:102680008F0A10928E0A10926201109261011092CC
:102690009403109293032FB120E00E945411FF91F4
:1026A000EF91BF91AF919F918F917F916F915F91CA
:1026B0004F913F912F910F900FBE0F901F90189543
:1026C00078941F920F920FB60F9211241F932F939D
:1026D0003F934F935F936F937F938F939F93AF93AA
:1026E000BF93EF93FF9387B78F7E87BF78941FB711
:1026F000F8948091420390914303A0914403B091D8
:1027000045030097A105B10509F051C08091420130
:10271000909143018530910561F18630910530F447
:102720008330910549F0049781F51AC087309105EF
:10273000F1F0089751F514C0869B0FC084E090E03B
:1027400090934301809342010E94960727E030E076
:1027500040E050E00E94530818C00E94310F15C09D
:102760000E94160A882389F40E945B0F0EC080E045
:102770000AC089E00E94180B81E00E946E0883E085
:102780000E943F0C87E00E94280C80913D019091AF
:102790003E01019771F482E090E090933E018093B6
:1027A0003D01DE98DE9A80E00E94BE0902C00E94D0
:1027B000B307812F99278FBFFF91EF91BF91AF9101
:1027C0009F918F917F916F915F914F913F912F9149
:1027D0001F910F900FBE0F901F901895AF92BF9250
:1027E000CF92DF92EF920F931F935B016C010E94D7
:1027F000F702AB01BC0181E0E82E9601850184E07F
:102800000E94D8021F910F91EF90DF90CF90BF9060
:10281000AF900895EF92FF920F931F93809127013D
:1028200090912801A0912901B0912A01B695A79510
:10283000979587958093800A9093810AA093820A46
:10284000B093830A0E944F02E090800AF090810AC0
:102850000091820A1091830AA80197010E946232B6
:102860006E0D7F1D801F911F6093800A7093810AF7
:102870008093820A9093830A109233030E94EE138E
:102880001F910F91FF90EF900895AF92BF92CF925A
:10289000DF92EF920F931F935B016C010E94F7028E
:1028A000AB01BC0131E0E32E9601850185E00E9479
:1028B000D8021F910F91EF90DF90CF90BF90AF9013
:1028C0000895EF92FF920F931F938091340190919E
:1028D0003501A0913601B0913701B695A79597952E
:1028E000879580933E0390933F03A0934003B0935A
:1028F00041030E944F02E0903E03F0903F0300919D
:10290000400310914103A80197010E9462326E0DAD
:102910007F1D801F911F60933E0370933F03809340
:10292000400390934103109235030E9445141F9178
:102930000F91FF90EF9008958091340190913501AF
:10294000A0913601B0913701880F991FAA1FBB1FB4
:102950008093340190933501A0933601B0933701F1
:1029600020912F013091300140913101509132017D
:10297000281739074A075B0768F42093340130931E
:102980003501409336015093370180915E018F5F8E
:1029900080935E010E9461140895609134017091EA
:1029A0003501809136019091370120913E0330919D
:1029B0003F034091400350914103621B730B840B12
:1029C000950B21E0209335030E9445140895AF92A2
:1029D000BF92CF92DF92EF920F931F935B016C0136
:1029E0000E94F702AB01BC01E1E0EE2E96018501E9
:1029F00083E00E94D8021F910F91EF90DF90CF905B
:102A0000BF90AF900895CF92DF92EF92FF920F9315
:102A10001F936C017B010E944F02DC01CB01B601C8
:102A20000E943B32E80EF91E00271127C801B701AA
:102A30000E94E7141F910F91FF90EF90DF90CF90CD
:102A40000895AF92BF92CF92DF92FF920F931F93A0
:102A5000CF93DF93EC01E0914B01FF27EE0FFF1FB7
:102A6000E759F74FC080D180662329F06CE170E010
:102A70008CE190E030C08091480183FF48C08CA574
:102A8000882309F044C08F812E819927982F8827A9
:102A90003327822B932B0E940402982F8F3F71F0D3
:102AA0008BE0989FF0011124E056FC4F82858F5FE8
:102AB0008287853018F0CF010E94480382E10E948E
:102AC0003B01F601838181508383882339F067E0DD
:102AD00070E087E090E00E940315FBC081E08093E6
:102AE0004A0180914801877E809348018E852F8519
:102AF0009927982F88273327822B932B0E945F03D7
:102B0000882309F0E6C08FE00E943B01E2C01092EA
:102B1000490110924A010E947903809148018F7EF9
:102B20008093480167E070E087E090E00E94031521
:102B30008F812E819927982F88273327822B932BDB
:102B40000E940402982F8F3F89F08BE0989FF0013C
:102B50001124E056FC4F81858F5F818782858F5FCE
:102B60008287853018F0CF010E944803F6018281E8
:102B7000882391F5D0928D0AC0928C0A8281882395
:102B800009F0A7C02FB7F8949091390180913A01CC
:102B9000891749F0892F992701966AE570E00E940C
:102BA0004F3280933901822F99278FBF8091060180
:102BB00090910701A0910801B09109010196A11D12
:102BC000B11D8093060190930701A0930801B09373
:102BD0000901109238017DC0F601A080B18080917A
:102BE0001E02843009F046C0C5010E949E03209158
:102BF0001E02622F0E942F32492F9217D8F5992377
:102C000059F4809191039927019664E070E00E9445
:102C10004F328093910329C080919103840F912DAD
:102C2000911D9C0123703070E901CC0FDD1FCC0F8A
:102C3000DD1FC20FD31F019664E070E00E944F3287
:102C4000FC01EE0FFF1FEE0FFF1FE80FF91FC75724
:102C5000DD4FE757FD4F85E0019009928150E1F784
:102C60004F5F80911E024817B8F280911E0281507A
:102C700080931E0280919103F0901E028F0D912D82
:102C8000911D837090708C01000F111F000F111F98
:102C9000080F191F07571D4FC5010E949403F80123
:102CA00091838083F5018789F8018283F501828908
:102CB000F8018483F501808DF8018383F394F09209
:102CC0001E02F601808191810E94E103C6010E94EB
:102CD0000004DF91CF911F910F91FF90DF90CF9073
:102CE000BF90AF9008958F929F92AF92BF92CF9274
:102CF000DF92EF92FF920F931F93CF93DF93CDB7A5
:102D0000DEB722970FB6F894DEBF0FBECDBF80911D
:102D1000480184FD69C290E080914D01882309F447
:102D200091E0992309F060C2E0914B01FF27EE0F7B
:102D3000FF1FE759F74FE080F180D7010D911C91FB
:102D4000F8018585882329F480914901882309F4B5
:102D5000CBC07091900A772309F453C0F80190809A
:102D600086859927582F442787859927482B592BE3
:102D7000772309F037C22EC2862F9927FC01A3E0E2
:102D8000EE0FFF1FAA95E1F7E81BF90BE055FA4F8C
:102D9000228133812417350750F084819581281BC7
:102DA000390B4217530718F06F5F671729F7862F03
:102DB000671709F40FC29927FC0153E0EE0FFF1FBC
:102DC0005A95E1F7E81BF90BE055FA4FA080B18066
:102DD00081E080934901D701ED91FC911586BFEF09
:102DE000AB16BFEFBB0669F0F701808191810E94AD
:102DF0009E0320E090911E02891708F421E022230F
:102E000069F00E947903D7018D919C910E94E103A2
:102E1000C7010E94000410924901D8C18091540159
:102E200085FD04C04FEFC42ED42E04C0C090850889
:102E3000D0908608F70100811181C8010E941F040B
:102E4000C816D906C9F4F801B08CA0914F03B0910F
:102E5000500384E301900D928150E1F700914F03FC
:102E600010915003D8018C918A51C82EDD246C2D0D
:102E7000C8010E94290456C16FEF7FEFC8010E946C
:102E8000C10460ECD7018D919C910E94C704F701A9
:102E9000808191810E94CD04882329F4809148018A
:102EA0008860809348018091480180FF0BC0D70162
:102EB000ED91FC91848580648487809148018E7FA8
:102EC00080934801B3EF9B0E492D5527F701608190
:102ED0007181C5010E94190F9927882309F469C1DE
:102EE000823009F081C16DC1C8010E941F040E9497
:102EF0005F03882309F496C080911F02882359F448
:102F000020E080918A0890918B088F5F9F4F09F095
:102F100021E0222331F0CE0101960E94E5048823AE
:102F200039F060E177E280E090E00E94E7145CC154
:102F3000D701ED91FC91B08080908A0890908B0829
:102F4000CF010E949E0320E090911E02891708F491
:102F500021E0222309F06AC08091540185FD04C05C
:102F60003FEFC32ED32E04C0C0908508D0908608B2
:102F7000D7010D911C91C8010E941F04C816D906E3
:102F8000C9F4F801B08CA0914F03B091500384E3D1
:102F900001900D928150E1F700914F031091500381
:102FA000D8018C918A51C82EDD246C2DC8010E9455
:102FB0002904B8C069817A81C8010E94C10460EC0B
:102FC000D7018D919C910E94C704F7018081918166
:102FD0000E94CD04882329F4809148018860809361
:102FE00048018091480180FF0BC0D701ED91FC9111
:102FF000848580648487809148018E7F8093480116
:10300000B3EFBB0E4B2D5527F70160817181C401D1
:103010000E94190F9927882309F4CBC0823009F048
:10302000E3C0CFC05091860A552331F40E94790342
:10303000F7018081918143C0D801BC90F801868559
:103040009927382F222787859927282B392B40E06D
:1030500011C0842F9927FC01EE0FFF1FE80FF91F05
:10306000EE0FFF1FE955FB4F828193818217930773
:1030700018F44F5F451769F7842F451721F4EFEFD8
:103080008E2E9E2E0CC09927FC01EE0FFF1FE80F1D
:10309000F91FEE0FFF1FE955FB4F80809180C8019B
:1030A0000E949E0320E090911E02891708F421E0FF
:1030B000222359F00E947903D7018D919C910E949F
:1030C000E103C7010E94000481C08091540185FD85
:1030D00004C05FEFC52ED52E04C0C0908508D090E7
:1030E0008608F70100811181C8010E941F04C816DB
:1030F000D90661F5F801B08CA0914F03B09150034F
:1031000084E301900D928150E1F700914F031091FB
:103110005003D8018C918A51C82EDD246C2DC80132
:103120000E942904BC01B0EFBB1629F44C2DC80144
:103130000E9459048C011093500300934F0360E0E8
:10314000F701808191810E9421154EC06FEF7FEFC2
:10315000C8010E94C10460ECD7018D919C910E942E
:10316000C704F701808191810E94CD04882329F44E
:10317000809148018860809348018091480180FFD8
:103180000BC0D701ED91FC91848580648487809188
:1031900048018E7F80934801B3EFBB0E4B2D55271E
:1031A000F70160817181C4010E94190F992788235A
:1031B00031F48091480180618093480115C08230CC
:1031C00099F4D701ED91FC9189E280838EE00E9411
:1031D0003B010AC081E080934901D701ED91FC9148
:1031E00015860FCE60E0C8CD22960FB6F894DEBFEC
:1031F0000FBECDBFDF91CF911F910F91FF90EF9048
:10320000DF90CF90BF90AF909F908F900895AF9236
:10321000BF92CF92DF92EF92FF920F931F93809114
:10322000160190911701A0911801B0911901B6955E
:10323000A795979587958093F3029093F402A093B6
:10324000F502B093F6020E944F02E090F302F09074
:10325000F4020091F5021091F602A80197010E9474
:1032600062325B016C01AE0CBF1CC01ED11EA0926D
:10327000F302B092F402C092F502D092F6021092DC
:1032800089080E94F702AB01BC0101E0E02E960123
:10329000850181E00E94D8021F910F91FF90EF906D
:1032A000DF90CF90BF90AF9008956F927F928F92F2
:1032B0009F92AF92BF92CF92DF92EF92FF920F93C5
:1032C0001F93CF93DF93CDB7DEB722970FB6F89455
:1032D000DEBF0FBECDBF3B014C01CC24DD246EE030
:1032E00074E0FB01A084A1FECDC220813181428126
:1032F0005381E480F58006811781D401C301821BCC
:10330000930BA40BB50B8E159F05A007B10708F40E
:10331000B9C2A0FE05C0FDEFAF22FB01A08609C027
:103320002E0D3F1D401F511FFB012083318342831F
:103330005383F5E0CF1609F48FC1FC15A0F022E00D
:10334000C21609F485C02C1528F081E0C81609F0D2
:10335000A3C221C0E3E0CE1609F486C0F4E0CF1684
:1033600009F09AC288C028E0C21609F475C22C156B
:1033700048F086E0C81609F438C2E7E0CE1609F036
:103380008BC23FC2F9E0CF1609F46CC22AE0C21624
:1033900009F082C273C280915001882309F47CC273
:1033A00080915101882309F477C28091890888238C
:1033B00039F582E10E943B0183E10E943B01A0902C
:1033C0001601B0901701C0901801D090190180919A
:1033D000F3029091F402A091F502B091F602A81ABE
:1033E000B90ACA0ADB0A81E0809389080E94F702C1
:1033F000AB01BC01E1E0EE2E9601850181E029C21E
:103400008091160190911701A0911801B0911901B6
:10341000880F991FAA1FBB1F809316019093170155
:10342000A0931801B09319018150904DA740B0406E
:1034300060F080E090EDA7E0B0E0809316019093FB
:103440001701A0931801B09319010E94071924C213
:1034500080915001882309F41FC280915101882373
:1034600009F41AC282E10BC2809148018F7E8093D9
:1034700048018EE004C260915D01809126016817C9
:1034800008F07EC080913303882309F04AC0009180
:103490008A0810918B08FFEF0F3F1F0719F020E0FB
:1034A00030E003C08C0121E030E080911C0190915C
:1034B0001D010817190711F4232BC9F080911E0173
:1034C00090911F01A0912001B091210180932701CB
:1034D00090932801A0932901B0932A0110925D01D5
:1034E0000E940A1410931D0100931C01D5C1609124
:1034F0002701709128018091290190912A01209142
:10350000800A3091810A4091820A5091830A621B9D
:10351000730B840B950B21E0209333030E94EE1371
:10352000BBC18091270190912801A0912901B09100
:103530002A01880F991FAA1FBB1F80932701909310
:103540002801A0932901B0932A01209122013091F2
:1035500023014091240150912501281739074A077A
:103560005B0758F4209327013093280140932901E9
:1035700050932A016F5F60935D010E940A148CC111
:1035800080911C0190911D0190931B0180931A0161
:10359000CE0101960E94E504E0902B01F0902C01F1
:1035A00000912D0110912E01A980BA800894A11CD0
:1035B000B11CCC24DD24C801B70142E0660F771F9F
:1035C000881F991F4A95D1F76E0D7F1D801F911F8F
:1035D000A60195010E94623239014A016E0C7F1CDE
:1035E000801E911E60922B0170922C0180922D0101
:1035F00090922E01E0902F01F09030010091310166
:1036000010913201C801B70132E0660F771F881FA1
:10361000991F3A95D1F76E0D7F1D801F911FA6014E
:1036200095010E946232E20EF31E041F151FE09204
:103630002F01F0923001009331011093320160921A
:1036400034017092350180923601909237011092C8
:103650005E010E94611420C180911F02882309F439
:10366000A5C090915E0180913301981730F480914C
:103670003503882309F4B3C0B5C08EEF9FEF909354
:103680008608809385089093580180935701809114
:103690005401806280935401F090860AFF2009F45F
:1036A000FBC080915B0190915C01FC01EE0FFF1F5C
:1036B000E80FF91FEE0FFF1FE955FB4F048115813D
:1036C0000F5F1F4FB801882777FD8095982F0E94C4
:1036D000213117FF06C020E030E040E857E40E94A7
:1036E000273029E934E646E657E40E94AD313B0134
:1036F0004C0100918708109188080F0D111DB80129
:10370000882777FD8095982F0E94213117FF06C0EA
:1037100020E030E040E857E40E9427309B01AC01F4
:10372000C401B3010E948B300E94F330E091340257
:10373000F09135026483672F77276383A091340269
:10374000B0913502409185085091860880915701CB
:1037500090915801481B590BFD0183819927982F9F
:10376000882724813327822B932B480F591F4150E0
:10377000504080915B0190915C01FC01EE0FFF1FB6
:10378000E80FF91FEE0FFF1FE955FB4F53834283EC
:10379000FD014283452F5527418380915401806468
:1037A000809354018EE180939D0329C09091540130
:1037B00095FD72C0809135038823A1F494FF0FC05A
:1037C00091FF0DC090FF0BC08EE180939D0385E1BA
:1037D0000E943B01809154018F7E809354010E948E
:1037E000CD145AC00E949C1457C090915401892F47
:1037F000877F8093540195FD02C085E140C086E13A
:103800003EC08091540181FF05C080FF03C087E165
:103810000E943B01809156018823F1F10E944F02E2
:103820007B018C010E94F7025B016C01C801B701AA
:1038300024EF31E040E050E00E9462326C507E4F55
:103840008F4F9F4F31E0E32E8B019C01B601A50104
:1038500087E00E94D80220C08091900A8823E1F07E
:1038600084E10DC080911F02882341F410E08EEFA7
:103870009FEF0E9435041F5F1A30C9F780E00E9455
:103880003B010AC00894C11CD11C675F7F4FFBE05D
:10389000CF16D10409F025CD8CE00E943B01229681
:1038A0000FB6F894DEBF0FBECDBFDF91CF911F9151
:1038B0000F91FF90EF90DF90CF90BF90AF909F90CF
:1038C0008F907F906F9008953F924F925F926F928A
:1038D0007F928F929F92AF92BF92CF92DF92EF92A0
:1038E000FF920F931F93CF93DF93CDB7DEB7AA97C5
:1038F0000FB6F894DEBF0FBECDBFA0915F01B091AF
:103900006001FC909D012F0D311DF9018081881F00
:103910008827881FFD0183A7F90180818F77FD012A
:1039200081A721503040F9018081FD0180A7A0913D
:103930005F01B0916001FD0132818FB7F894992742
:1039400020919F028FBF222309F490C0832F9927D3
:10395000969587959695879583709070823091059E
:1039600041F5878146812FB7F894332760914D0345
:1039700070914E032FBF9927982F88275527842BA6
:10398000952B8617970719F481E090E06CC0FD0134
:103990008781268140E050E09927982F8827332798
:1039A000822B932B8F5F9F4F11F441E050E0CA01AF
:1039B0005AC0039709F035C69E012D5F3F4F48EA74
:1039C00055E088E0FA010190AF01F90101929F01F1
:1039D0008150C1F79E012D5D3F4FAE014D5F5F4F9E
:1039E00088E0FA010190AF01F90101929F01815035
:1039F000C1F79E01255F3F4FAE014D5D5F4F88E0EF
:103A0000FA010190AF01F90101929F018150C1F7C4
:103A10009E012D5E3F4FAE01455F5F4F88E0FA018A
:103A20000190AF01F90101929F018150C1F79E0100
:103A3000255E3F4FAE014D5E5F4F88E0FA01019079
:103A4000AF01F90101929F018150C1F748E050E0B8
:103A5000BE01655E7F4FCD0106960E94BB32892B69
:103A600009F0DFC503C0882309F4DBC5FCE0FF15BE
:103A700008F0D7C5C0905F01D0906001F6012281A7
:103A8000822F992736E0969587953A95E1F7039727
:103A900019F468E070E002C062E070E0822F9927BC
:103AA000969587959695879583709070039719F4EE
:103AB00088E090E002C082E090E026E030E0C20EB4
:103AC000D31E40E050E020E030E0F601E80FF91F9F
:103AD0008AEF9FEFC80ED91E05C08191480F511D76
:103AE0002F5F3F4F26173707C4F3F60163818FEF2F
:103AF00080938A0A8FB7F894782F20E030E0E0E2D4
:103B0000F2E0808191818417950731F482818617D4
:103B100009F455C520938A0A2F5F3F4F339624300E
:103B2000310579F77FBF90918A0A3FB7F8949F3F9C
:103B300021F080914501891799F420914501822F48
:103B40009927FC01EE0FFF1FE80FF91FE05EFD4F04
:103B50005183408362832F5F2370209345010CC003
:103B6000892F9927FC01EE0FFF1FE80FF91FE05E78
:103B7000FD4F518340836283832F99278FBF0FB7F7
:103B8000F8941127C6010E94AB00FC0190810FBF81
:103B9000F60183A5882309F427C59F3309F024C5BE
:103BA000878146812FB7F894332760910E01709179
:103BB0000F012FBF9927982F88275527842B952BE6
:103BC0008617970761F0878126819927982F882784
:103BD0003327822B932B8F5F9F4F09F00AC5AF2DA0
:103BE000AD50F60183859927813709F4F6C18237F4
:103BF00020F4803709F0F8C407C0803F09F406C3F9
:103C0000813F09F0F1C47CC4F601878126819927A0
:103C1000982F88273327822B932B8F5F9F4F09F094
:103C2000EAC0F601818520859927F82EEE243327F6
:103C3000E22AF32AC7010E9404028F3F21F0F60115
:103C4000658577271CC00E94DD06182F8F3FD1F0B5
:103C5000B7010E941406F6014585212F33278BE01A
:103C600090E0289FF001299FF00D389FF00D11245E
:103C7000E056FC4F4283F60165857727812F0E942D
:103C80003406B9C081E40E94EF06182F8F3FA1F0DF
:103C9000282F33278BE090E0289FF001299FF00D1B
:103CA000389FF00D1124E056FC4F808191810E94D5
:103CB0005D0AB701812F9DC090E0F60181A58A368B
:103CC00008F091E0992309F496C0C6010E943807D4
:103CD000182F682FC6010E941E03DC01F6018385A0
:103CE000803709F088C0153009F07EC4FD0181815C
:103CF00022819927982F88273327822B932B8F5F38
:103D00009F4F09F485C4FD01838124819927582F91
:103D100044273327422B532B4115510521F1809124
:103D20006A02082F112760918A0870918B08A0E021
:103D300020E030E0E3EAF2E00EC080819181861756
:103D4000970731F0848195814817590708F4A1E05D
:103D50002F5F3F4F38962017310714F4AA2369F3D9
:103D6000AA2309F450C410E0E5EAF3E08081992722
:103D700080FF04C083FD02C081FF1F5F3B9624E0EB
:103D8000E331F20799F71123B1F10E944F02DC01F0
:103D9000CB01612F77270E943B3200E010E0E5EA7B
:103DA000F3E09081992349F0292F332723FD05C0A3
:103DB00021FD03C081508F3F39F00F5F1F4F3B96AD
:103DC0000A30110571F717C0202F0F3FA1F03327DC
:103DD0008BE090E0289FF001299FF00D389FF00DB7
:103DE0001124E056FC4F808191810E945D0AB70149
:103DF000802F0E941406C6010E943807182F682FD2
:103E0000C6010E941E037C01153009F0EDC3F601C6
:103E10001185908460E4C6010E944707382E57013F
:103E20000894A11CB11CF701818125010894411C53
:103E3000511CF50121819927982F88273327822B40
:103E4000932B8F5F9F4F09F4C0C0812F9927182FA4
:103E50000027892D9927082B192B83E0882E912C78
:103E60008E0C9F1CF7018381B4E06B2E712C6E0CBD
:103E70007F1C24819927982F88273327822B932B07
:103E8000892B51F5C8010E9404028F3F11F50E9451
:103E9000DD068F3F11F0B8011AC08AE00E94EF06DC
:103EA000F82EFFEF8F17A9F0282F33278BE090E033
:103EB000289FF001299FF00D389FF00D1124E05646
:103EC000FC4F808191810E945D0AB8018F2D0E9474
:103ED0001406C8010E943502F4019080F30180802D
:103EE000F501B080F201A080C8010E941C027C0193
:103EF000C8010E941807482F8A3009F43FC0892D55
:103F00009927782F6627882D9927682B792B8B2D59
:103F10009927382F22278A2D9927282B392B8091F2
:103F20006A024817D1F4F2E3EF16F10438F5E42FF2
:103F3000FF2753E0EE0FFF1F5A95E1F7ED55FD4FB8
:103F400011830083338322837583648381E08683B6
:103F500017824F5F40936A0211C0E42FFF2793E05E
:103F6000EE0FFF1F9A95E1F7ED55FD4F118300838A
:103F7000338322837583648381E086838091150176
:103F8000882319F5C8010E941807E82F80916A025A
:103F9000E81748F4FF2783E0EE0FFF1F8A95E1F74B
:103FA000ED55FD4F378280918F08882311F0332023
:103FB00049F080918A0890918B088017910729F425
:103FC000332019F082E10E943B0160E8C6010E94A3
:103FD0004707882309F408C3F9C2F601908C828947
:103FE0008F5F828BAD3108F0FFC2C6010E949E0335
:103FF00020E090911E02891708F421E0222309F0A5
:10400000F3C210914D01812F9927E82E8823B9F131
:10401000C6010E9494035C01F0904B01F10EFA94EA
:10402000EA94FCE0FF1510F0EF2D02C0EF2DED50EB
:10403000FF27EE0FFF1FE759F74F0190F081E02DAA
:1040400000811181C8010E9494038A159B0509F023
:10405000D5C2F8019789F6018789981709F0CEC271
:10406000F8019289F6018289981709F0C7C2F80110
:10407000908DF601808D981709F0C0C2B5C2C601B7
:104080000E941F04AC018091540185FD03C02FEFF5
:104090003FEF04C0209185083091860842175307EE
:1040A000A1F4F60180818A51082F1127602FC601E3
:1040B0000E942904BC01F0EF9F1609F095C2402F21
:1040C000C6010E9459046C018FC280E020918E03CA
:1040D000222309F481E0882309F086C290918D03A0
:1040E000992309F481E0882309F07EC2992309F419
:1040F0007BC28091870AE82FFF27EE0FFF1FEA5649
:10410000F54F0081118111821082915090938D039F
:104110008F5F8093870A8C3011F41092870A011503
:10412000110509F461C2222309F45EC280913D03A6
:10413000E82FFF27EE0FFF1FED57FA4FE080F180C9
:1041400011821082215020938E038F5F80933D0354
:104150008C3011F410923D03E114F10409F444C2CF
:1041600084E3F70111928A95E9F728E230E0C20E64
:10417000D31E8CE0F60111928A95E9F728ED3FEF06
:10418000C20ED31EF801D182C0828FEF82838EE1EE
:104190008383C8010E945C07882389F5CE010196BC
:1041A0000E94E504882311F5F60183892489992763
:1041B000982F88273327822B932B29813A81281720
:1041C0003907A0F080E890E0A0E0B0E0809316010D
:1041D00090931701A0931801B09319010E94071939
:1041E0006CE170E08CE190E00E9403158091310455
:1041F00081FD03C08EE00E943B016701F5C1C7014C
:104200000E94E103C8010E940004EEC1A53009F03C
:10421000EBC1F601918540858485282F3327222321
:1042200021F0213009F0E0C1A6C0892F9927182F6D
:104230000027842F9927082B192B8091540185FD85
:1042400029C080912B0190912C01A0912D01B0915A
:104250002E018093340190933501A0933601B093E1
:10426000370110925E010E946114F6016785808912
:104270007727762F66279927682B792BC8010E940C
:10428000CF05813009F4B0C18091540180618093E1
:104290005401AAC1F601678580897727762F6627A2
:1042A0009927682B792BC8010E94CF05813009F42A
:1042B0009BC18091540186FD97C1009159011091D5
:1042C0005A01B801882777FD8095982F0E942131E7
:1042D00017FF06C020E030E040E857E40E94273096
:1042E0002DEC3CEC4CEC5DE30E94AD310E94F330D0
:1042F000E0913402F09135026483672F772763835E
:10430000A0913402B0913502FD01238184813327CD
:10431000322F22279927282B392B809159019091F0
:104320005A01821B930B90935A018093590140913B
:104330005B0150915C0183812481FA01EE0FFF1F24
:10434000E40FF51FEE0FFF1FE955FB4F3497992738
:10435000982F88273327822B932B20813181349605
:10436000820F931F019793838283FD018283892F9C
:1043700099278183BEC04091540145FD35C1F601A6
:10438000858526859927982F88273327822B932B7D
:104390009093860880938508878520899927182F10
:1043A00000273327022B132B015010401093580184
:1043B00000935701406240935401F090860AFF2019
:1043C00009F412C1B801882777FD8095982F0E94C3
:1043D000213117FF06C020E030E040E857E40E949A
:1043E000273026E636E646E65FE30E94AD314B0114
:1043F0005C0180915B0190915C01FC01EE0FFF1F5D
:10440000E80FF91FEE0FFF1FE955FB4F04811581DF
:104410000F5F1F4FB801882777FD8095982F0E9466
:10442000213117FF06C020E030E040E857E40E9449
:1044300027309B01AC01C501B4010E94AD314B0195
:104440005C0100918708109188080F0D111DB801BB
:10445000882777FD8095982F0E94213117FF06C08D
:1044600020E030E040E857E40E9427309B01AC0197
:10447000C501B4010E948B300E94F330E0913402F8
:10448000F09135026483672F77276383A09134020C
:10449000B0913502FD014381648180915B0190916F
:1044A0005C01FC01EE0FFF1FE80FF91FEE0FFF1F6D
:1044B000E955FB4F8091850890918608209157011E
:1044C00030915801821B930B5527542F442777278F
:1044D000462B572B840F951F019793838283FD01F1
:1044E0008283892F992781838091540180648093EE
:1044F00054018EE180939D0386E10E943B0174C0CC
:10450000A43009F071C0F601918520858091540195
:1045100087FF6AC0892F9927F82EEE24822F9927CA
:10452000E82AF92A1091860AC7010E94AD051817DA
:1045300009F05AC0F601B684A78414850585C70121
:104540000E948800482F8A3009F44EC08091900A5A
:10455000242F3327481731F5F90183E0EE0FFF1FB1
:104560008A95E1F7E21BF30BE055FA4FF182E08206
:10457000812F9927982F8827202F3327822B932B41
:10458000938382838B2D9927982F88272A2D332771
:10459000822B932B9583848382E086834F5F4093A5
:1045A000900A22C0F901A3E0EE0FFF1FAA95E1F7E0
:1045B000E21BF30BE055FA4F82E0868315C07FBF04
:1045C00013C0F60184858078803871F480E890E02B
:1045D000A0E0B0E08093160190931701A09318011A
:1045E000B09319010E940719D0926001C0925F0137
:1045F00018C0F60183858137B9F7E3CFFA94EE202E
:1046000009F00ECD3CCD65E0C6010E941E0307C037
:10461000C6010E943807682FC6010E941E037C0154
:10462000F6CB8FB7F89499271092F8028FBF0E94AB
:104630008D0CAA960FB6F894DEBF0FBECDBFDF91EA
:10464000CF911F910F91FF90EF90DF90CF90BF908F
:10465000AF909F908F907F906F905F904F903F9022
:104660000895AF92BF92CF92DF92EF92FF920F9395
:104670001F938C017B010E944F02DC01CB01B8012A
:104680000E943B325C010E94F702AB01BC01AE0C00
:10469000BF1CCC24DD2401E0E02E9601850186E0DC
:1046A0000E94D8021F910F91FF90EF90DF90CF9062
:1046B000BF90AF900895AF92BF92CF92DF92EF92EA
:1046C000FF920F931F93CF93DF93FB01813069F02B
:1046D000813030F08230A9F0833009F0F7C0F2C0A9
:1046E000642FCF010E942115F1C0695F724009F06B
:1046F000EDC080915201882309F4E8C01092520164
:10470000E5C0442329F06CE170E08CE190E012C038
:104710004091540142FF13C084A5882381F4809105
:104720009D03815080939D03882339F067E070E0FA
:1047300087E090E00E943123C9C0477FC0C0842F2A
:10474000877F8093540146FFC1C0C0915B01D09127
:104750005C012196D0935C01C0935B018091860A35
:10476000A82EBB24CA15DB0508F092C000915701A2
:1047700010915801B801882777FD8095982F0E94E5
:10478000213117FF06C020E030E040E857E40E94E6
:10479000273026E636E646E65FE30E94AD316B0140
:1047A0007C01FE01EE0FFF1FEC0FFD1FEE0FFF1F40
:1047B000E955FB4F048115810F5F1F4FB801882712
:1047C00077FD8095982F0E94213117FF06C020E0C9
:1047D00030E040E857E40E9427309B01AC01C7015C
:1047E000B6010E94AD316B017C01009187081091E8
:1047F00088080A0D1B1DB801882777FD8095982F22
:104800000E94213117FF06C020E030E040E857E465
:104810000E9427309B01AC01C701B6010E948B307A
:104820000E94F330E0913402F09135026483672FE7
:104830007727638380915B0190915C01A0913402A2
:10484000B0913502FC01EE0FFF1FE80FF91FEE0FCC
:10485000FF1FE955FB4F3497ED018B819927982F66
:1048600088272C813327822B932B2081318134960A
:10487000820F931F0197938382838A83892F9927BD
:1048800089838EE180939D0386E10E943B011EC0D7
:10489000FE01EE0FFF1FEC0FFD1FEE0FFF1FED558A
:1048A000FB4F809185089091860820813181821B81
:1048B000930B90935A0180935901477B4068409332
:1048C000540104C0442311F410925501DF91CF919B
:1048D0001F910F91FF90EF90DF90CF90BF90AF901E
:1048E00008950F931F93CF93DF93042F109114011A
:1048F0001430A0F4E12FFF27EE0FFF1FEB56FC4F03
:10490000C081D181C617D70749F4118210820E9455
:10491000870E402FBE01812F0E945B23DF91CF9134
:104920001F910F9108956F927F928F929F92AF92F5
:10493000BF92CF92DF92EF92FF920F931F93CF938C
:10494000DF93E82FFF27E831F10510F00C943B2CA2
:10495000EA5BFF4FEE0FFF1F0590F491E02D0994E5
:10496000C0E0D0E0CCC68091850A882309F0A9C4B4
:104970000C943B2C80913801882309F086C0E0918B
:10498000390180913A018E1709F47FC0FF27EE0F9D
:10499000FF1FEC59FE4F608171812FEF6F3F72074F
:1049A00009F473C02091060130910701409108017C
:1049B00050910901E0916B02F0916C022383BB27B7
:1049C000A52F942F832F8283CA01AA27BB27818317
:1049D000252F3327442755272083E2E4F2E0609314
:1049E0004502872F9927809344028091480181FFD7
:1049F0004BC08EE1809336021092430280915401A5
:104A000085FD03C08FEF9FEF04C0809185089091D2
:104A1000860880934702892F99278483809100011B
:104A20009091010180934C02892F99278187809171
:104A300033028F5F809333028150838780EF8487B6
:104A40001682E0918C0AF0918D0A3097E9F086E3A6
:104A500092E09183808312828EE18383CF010E9452
:104A60005C07882389F48091480182FF05C084FD9A
:104A700003C08EE00E943B0110928D0A10928C0AB6
:104A800081E08093380101C0DA980E944F027B01D7
:104A90008C01A0900201B0900301C0900401D0905D
:104AA00005010E94F7023B014C01C801B701A601B4
:104AB00095010E946232A60EB71EC81ED91E91E053
:104AC000E92E96018501B401A3018AE00FC10FB759
:104AD000F894112781E00E946E0881E0E82EF12C05
:104AE000F0924301E09242011092440110926D0253
:104AF00010929E020FBF0FB7F89411270E947B07F8
:104B0000F0928702E09286021092F80289B78F7BBA
:104B100089BF80E488BF8AB780628ABF8AB78F7EE8
:104B20008ABF89B7806489BF0FBF8FB7F894C82F39
:104B3000DD2780913D0190913E01049719F483E0B7
:104B40000E94180BCFBF0FB7F8941127C09A80E0CE
:104B50000E943F0C0FBF8FB7F894992722E0209353
:104B6000A3058FBF11E0F12EF09250018091510109
:104B7000882311F00E944F02809148018460809345
:104B8000480190E080914D01882309F491E0992338
:104B900019F48EE00E943B01809154018260809361
:104BA0005401809148018260809348018FB7F89446
:104BB000992720910E0130910F018FBF30939C05F2
:104BC00020939B05809151018823E1F4F0925101DB
:104BD00080E890E0A0E0B0E0809316019093170188
:104BE000A0931801B09319010E9407190E94F702BF
:104BF000AB01BC01EE2400E010E220E030E082E0F6
:104C00000E94D8028FB7F894992720910E01309115
:104C10000F018FBF30938408209383088091540143
:104C200080FD17C081608093540180911E01909196
:104C30001F01A0912001B091210180932701909341
:104C40002801A0932901B0932A0110925D010E94CE
:104C50000A148091000190910101019721F52091A2
:104C60008A0830918B08F0921F0280919B059091E9
:104C70009C0590938B0880938A0810928D0810925F
:104C80008C082F5F3F4F19F48EE00E943B0188EEA5
:104C900093E0A0E0B0E08093020190930301A09321
:104CA0000401B093050180913B01882309F0E3C51D
:104CB00081E080933B010E944F027B018C010E94A6
:104CC000F7025B016C01C801B70128EC3FEA40E044
:104CD00050E00E9462326057704A8E4F9F4FB1E0A1
:104CE000EB2E8B019C01B601A50189E00E94D80240
:104CF000C2C58FB7F89499271092A3058FBF109261
:104D00005001809148018B7F80934801AFC58FB7D8
:104D1000F8949927F0903C018FBF63E081E00E94F6
:104D20000901882359F10FB7F89411271092430114
:104D30001092420187B78F7E87BF87B78F7D87BF6D
:104D400083E00E943F0CC09A0FBF0FB7F894112761
:104D500010928702109286020E947B07C09A89B740
:104D60008F7B89BF0FBF10923E0110923D01DE98EC
:104D7000DD98DE9A82E00E943B0107C08FB7F8946D
:104D8000992722E02093A3058FBFC0918F03D09174
:104D900090030E94FD018091880A9091890A892BD5
:104DA00009F069C58FEF809311014F2DBE01FEC13F
:104DB0008FB7F894282F3327122F8091930A8823D6
:104DC00009F581E08093930A80913D0190913E0125
:104DD000049721F481E00E94BE0903C085E00E948F
:104DE0003B011FBF48C58FB7F89499271092930ACB
:104DF0008FBF41C58FB7F894282F332780913F018B
:104E0000882311F02FBF37C52FBF80B39927A6E0A5
:104E100096958795AA95E1F7182F117090915103F7
:104E2000809152038917D9F01917C9F484E090E0F2
:104E300090933E0180933D018FB7F894992721E02C
:104E400020933F018FBF60E070E08DE10E94D30CA2
:104E50000E94E00AC09AC09881E00E943B01109332
:104E6000520386E06DC08FB7F894992710910A011C
:104E70008FBF123009F467C0133030F4112359F09A
:104E8000113009F0F8C448C0133009F476C014306A
:104E900009F0F1C4A2C0C0988FB7F894C82FDD27DD
:104EA00080913D0190913E010297A1F583E090E051
:104EB00090933E0180933D0168E170E08DE10E9496
:104EC000D30C81E08093510310923F0180B3992766
:104ED000F6E096958795FA95E1F78170907080934A
:104EE000520386E00E943B0181E00E94180B6FE7AD
:104EF00072E08CE10E94D30C0E94340D0E94FA0CE7
:104F000066E57AE287E10E94D30C6FEF70E885E1F5
:104F10000E94D30CCFBFAFC4C09886E00E94180B8C
:104F20000E94340D0E94FA0C0E94E00AC09AC098B8
:104F300083E00E94180BC09A81E00E943F0C85E03C
:104F40000E943B0198C4C0988FB7F894C82FDD2702
:104F500060E080E00E940901882311F0CFBF0AC001
:104F6000CFBF83E50E94620180E00E94620180E081
:104F70000E946201C09A82E02DC08FB7F8949927F1
:104F8000209142018FBF243039F0283041F0223087
:104F900001F50E94450D6FC40E945B0F6CC4C09860
:104FA00089E00E94180BC09A83E00E943F0C8FB7E3
:104FB000F894992721E030E0309343012093420197
:104FC0008FBF8FB7F894992710933C018FBF83E070
:104FD000B7CF83E00E943F0C4EC40E94650B4BC4C8
:104FE0000FB7F894112740916101509162016091CF
:104FF00071047091720480918E0A90918F0A1092C0
:1050000072041092710410928F0A10928E0A1092FC
:10501000620110926101109294031092930320E0B8
:105020000E9454110FBF27C42FB7F89433278091E3
:10503000A10280930D0182E0809341012FBF8091F6
:105040000D01882309F017C4B89AC09887E078CF7B
:105050000E94641C10C480919D02882361F52091F8
:105060009008309191084091920850919308EFB7C1
:10507000F894FF2760919E0570919F058091A0058F
:105080009091A105E0902E02F0902F020091300245
:10509000109131026E0D7F1D801F911FEFBF209375
:1050A000900830939108409392085093930810927F
:1050B0009D020E9493050E94F70243C00E94F702DE
:1050C0005B016C018FB7F8949927109292038FBF00
:1050D000EFEFEE2EEFEFFE2EEFEF0E2FEFE71E2F8E
:1050E00060E0EEE0F4E0808581FF1CC0808191816A
:1050F000A281B381A6019501281B390B4A0B5B0BDA
:10510000DA01C9012481358146815781281B390B79
:105110004A0B5B0B2E153F05400751071CF4790124
:105120008A0161E0399634E0E137F307E1F666235E
:1051300009F4A1C31E141F04100611062CF0C601A9
:10514000B5010E94551997C3E0929008F09291081A
:10515000009392081093930881E080939D02A80128
:105160009701C601B5010E94930585C390913C0348
:1051700080911101981709F47EC39093110199232E
:10518000C9F4C0914601D091470160918B03CE01D3
:105190000E948B0D482F5527442309F46CC38FEFD1
:1051A0008093110160914601709147018B850E94A7
:1051B000712461C38FEF809311015DC30E94731648
:1051C0005AC38091480184FD56C390E080914D01FF
:1051D000882309F491E0992309F04DC3E0914B0134
:1051E000FF27EE0FFF1FE759F74FC081D181E881FC
:1051F000F981108181E08587888199810E949E03D1
:1052000020E090911E02891708F421E0222369F022
:105210000E947903888199810E94E103CE010E9456
:10522000000410924A018EE08BCE6FEF7FEF8881F1
:1052300099810E94C10460EC888199810E94C70411
:1052400048815981DA011196FD018181FA0121819C
:105250009927982F88273327822B932B8F7D818343
:10526000892F9927FD01818390914801892F877F9C
:105270008093480190FF0AC0E881F98184858064A9
:105280008487809148018E7F809348011D50412F73
:105290005527688179818FEF9FEF0E94190F992719
:1052A000882331F480914801806180934801E3C2F2
:1052B000823009F0E0C2E881F98189E280838FE0E1
:1052C0003FCE41E0F42E00E010E0C5E9D3E090913C
:1052D000850A8F2D892369F0688179811982188266
:1052E0008F2D809598239093850A43E0802F0E940C
:1052F0005B230F5F1F4F22960830110509F4BBC2D4
:10530000FF0CE5CF10911401E12FFF27EE0FFF1FD7
:10531000EB56FC4FE080F180118210820E94870ED4
:1053200041E0B701812F0E945B23A5C280911F023B
:10533000882309F0A0C22FEFE22EF22E9FEFA92EB4
:10534000B92E00E010E0CC24DD243EC0C22FDD27C2
:1053500083E0CC0FDD1F8A95E1F7CD55DD4F2A8123
:105360003B81FFEF2F3F3F0761F180919B059091BB
:105370009C052817390729F1888199810E941C0210
:10538000FC016C817D81AC01460F571F288139815A
:1053900080918A0890918B08AF812817390741F4D2
:1053A00070938D0860938C08A0938F085A0109C0F0
:1053B000AA2339F4F29728F44E155F0510F47A0108
:1053C0008E010894C11CD11C2C2D80916A02C81634
:1053D00008F4BCCF2FEFE2162FEFF20609F484C0D9
:1053E0003FEFA3163FEFB30691F080918F0888231B
:1053F00041F080918C0890918D080A96E816F90684
:1054000030F0C7010F968A159B0508F06DC080919A
:105410007C0A90917D0AA0917E0AB0917F0A019644
:10542000A11DB11D80937C0A90937D0AA0937E0AF2
:10543000B0937F0AE801288139818091540185FF6A
:1054400004C030931D0120931C0180918A08909123
:105450008B080E9404028F3F81F0282F33278BE0B6
:1054600090E0289FF001299FF00D389FF00D112446
:10547000E056FC4F8581877F8583F801808191818B
:105480000E943502E801888199810E9404028F3FC1
:1054900041F0EBE08E9FF0011124E056FC4F1286A4
:1054A0001186F8018081918190938B0880938A08FE
:1054B0008481958190938D0880938C088781809357
:1054C0008F08C5018E199F09459770F080E890E01C
:1054D000A0E0B0E08093160190931701A09318010B
:1054E000B09319010E94071980915301882369F430
:1054F000FFEFAF16FFEFBF0641F42FEFE2162FEFDD
:10550000F20619F08EE00E943B0110925301B3C1E4
:1055100080915201882309F0AEC1E0914603F091D9
:105520004703108280918A0890918B08E09146038E
:10553000F09147038283892F9927818380911F02ED
:10554000882329F080918C0890918D0820C080914B
:105550008A0890918B08C0918C08D0918D083FEFFC
:105560008F3F930781F4E0914603F0914703C48392
:105570008D2F99278383E0914603F0914703808123
:10558000806880830CC00E941C028C0F9D1FE091DC
:105590004603F09147038483892F9927838375E01D
:1055A000E72E73E0F72E68E0C7010C970E941E03F8
:1055B0008C010B5F1F4FAA2440E0882499246BE0E4
:1055C000C62ED12C53E0B52E80914F01992701961C
:1055D000880D991D6AE070E00E944F329C01992766
:1055E0008C9DD0018D9DB00D9C9DB00D1124A056B9
:1055F000BC4FED018D81992780FF11C081FF0FC045
:105600008D919C914B9DF0011124E00FF11F81833E
:10561000892F992780838E8182834F5FA22EE9E0B4
:105620008E16910429F00894811C911C473060F279
:10563000A0924F0180914E018F5F80934E01815067
:10564000E7018983842F8F70809305038FEF809308
:10565000FF028093000380E78093040383E0489F68
:10566000C0011124895F482F552769EF72E081E05E
:105670000E94DA0E9927882321F481E08093520159
:10568000FAC0843009F0F7C010925001F4C0892F9D
:105690009927FC0123E0EE0FFF1F2A95E1F7E81B95
:1056A000F90BE055FA4F868186958683882331F57C
:1056B000808191810E948800482F8091900A48172C
:1056C000E9F081508093900A582F16C0242F332779
:1056D000C90103E0880F991F0A95E1F7821B930B1C
:1056E000DC01A055BA4FFC01E954FA4F87E0019064
:1056F0000D928150E1F74F5F451740F321969C2FA3
:105700008091900AC81718F2B6C04091540143FD29
:10571000B2C0209159033327322F2227809158039A
:1057200099278062282B392B20935803232F332766
:1057300020935903446040935401E0913402F09166
:10574000350210822091860A8091870890918808FE
:10575000820F911DE0913402F09135028483892FEC
:105760009927838345E067E573E080911A01909162
:105770001B010E94250F99278823C9F1843009F065
:105780007AC074C04091540143FD75C02091590303
:105790003327322F22278091580399278062282BA4
:1057A000392B20935803232F332720935903446028
:1057B00040935401E0913402F091350281E08083FE
:1057C00080915B0190915C01FC01EE0FFF1FE80FDF
:1057D000F91FEE0FFF1FE955FB4F45E067E573E04A
:1057E000808191810E94250F9927882321F480913F
:1057F000540188603EC08430F1F538C08091550175
:105800008823C9F58091850890918608E091180257
:10581000F09119028183892F992780838091570104
:1058200090915801E0911802F09119028383892F19
:105830009927828380911C0190911D0180935505C9
:10584000892F99278093560581EF80935A0544E06C
:105850006FE475E083E00E94DA0E9927882321F433
:1058600081E08093550107C0843029F48091540170
:105870008D7F80935401DF91CF911F910F91FF9005
:10588000EF90DF90CF90BF90AF909F908F907F90E0
:105890006F9008958091790A8F3FB1F0282F3327B8
:1058A000F901E259FD4F80818093790A8F3F11F40D
:1058B0008093940A8FEF80832F3F31F0822F0E94D4
:1058C000932481E090E0089580E090E008951F9394
:1058D000CF93DF93CDB7DEB7E0970FB6F894DEBF76
:1058E0000FBECDBF1FB7F89448E150E06FEF70E0F6
:1058F0008EE692E00E94C8328FEF8093790A8093FF
:10590000940A81E08EBD88E080BF83E083BF8CB5C0
:105910009DB54AE72CB53DB52817390708F4415025
:10592000442311F0C901F6CF92B782B78917E9F382
:105930002CB53DB592B782B78917E9F38CB59DB503
:10594000821B930B409625E0969587952A95E1F763
:1059500090937B0A80937A0A13BE83B78EBD8EB56F
:1059600080BF12BE1DBC1CBC8FEF86BF86B7809364
:105970007C0080B7992787709070892BD1F7D29AD5
:10598000D19AD09ADA9AD99AD89A15BA8FEF84BB5D
:10599000D498DC981DBC1CBC87B7846087BF8EB5CB
:1059A000887F84608EBD0E944A2C8823E1F7109284
:1059B000910310921E02E6E9FAE08FE195E08193EF
:1059C000919304962AE0EE3AF207C9F78CE08093AF
:1059D0008D031092870AE3E8F5E087EF95E0819365
:1059E0009193C49625E0EB39F207C9F78CE08093D8
:1059F0008E0310923D0310925001109251011092AB
:105A00007C0A10927D0A10927E0A10927F0A1092F0
:105A10001F028FEF9FEF90938B0880938A0810925C
:105A20008D0810928C0810928E0810928F08109298
:105A30006A026AE189EF92E00E941E039093470395
:105A4000809346038FE293E090938D0A80938C0AB3
:105A500083E794E09093500380934F0310923302B6
:105A6000809154018061809354011092860A1092B3
:105A7000900A83E693E090933502809334028BE59D
:105A800095E09093190280931802E5EAF3E0108202
:105A90003B9684E0E331F807D1F78FEF8093A202C1
:105AA000E0E2F2E08FEF9FEF9183808312823396E2
:105AB00022E0EC32F207C1F70E944F0260936808BF
:105AC00080910001909101010196AA27BB27809344
:105AD000380390933903A0933A03B0933B0380B704
